:020000040800F2
:100000008855002039BF000855BC000857BC0008BF
:1000100059BC00085BBC00085DBC00080000000083
:100020000000000000000000000000007137000820
:100030005FBC00080000000019370008B1BE0008CE
:1000400049BF00084DBF000851BF00084F650008B8
:1000500055BF000859BF00085DBF000861BF000818
:1000600065BF000869BF00086DBF000861BC0008DB
:1000700067BC00086DBC000873BC000871BF0008B5
:1000800075BF000879BF00087DBF000881BF000868
:1000900085BF000889BF00088DBF000891BF000818
:1000A00095BF000899BF00089DBF0008A1BF0008C8
:1000B000A5BF0008C9880008A9BF0008ADBF000897
:1000C000B1BF0008B5BF0008B9BF0008BDBF000838
:1000D000C1BF0008C5BF0008C9BF0008CDBF0008E8
:1000E000C5BC00084965000800000000D1BF000839
:1000F000D5BF0008D9BF0008DDBF0008E1BF000878
:10010000E5BF0008E9BF0008EDBF0008F1BF000827
:10011000F5BF0008F9BF000879BC0008FDBF000862
:1001200001C0000805C0000809C000080DC0000893
:1001300011C0000815C0000819C000081DC0000843
:1001400000000000000000000000000000000000AF
:1001500021C0000825C0000829C000087FBC000895
:100160002DC0000831C0000835C0000839C00008A3
:100170003DC0000841C0000845C0000849C0000853
:100180004DC0000851C0000885BC000855C00008DB
:1001900059C000085DC0000861C0000865C00008C3
:1001A00069C000086DC0000871C0000875C0000873
:1001B00079C000087DC0000881C0000885C0000823
:1001C00089C000088DC0000891C0000895C00008D3
:1001D00099C000089DC00008A1C00008A5C0000883
:1001E000A9C00008ADC00008B1C00008B5C0000833
:1001F000B9C00008BDC00008C1C00008C5C00008E3
:10020000C9C00008CDC00008D1C00008D5C0000892
:100210008BBC000891BC000897BC0008D9C000083E
:10022000DDC00008E1C00008E5C0000800000000D3
:10023000E9C00008EDC0000800000000F1C000089F
:10024000F5C00008F9C00008FDC0000801C10008A1
:1002500005C1000809C100080DC1000811C100084E
:1002600015C1000819C100081DC1000821C10008FE
:1002700025C1000829C100082DC1000800000000A8
:1002800031C1000835C1000839C100080000000074
:10029000000000003DC100082DE9F84F044601F0C0
:1002A00051FC002C00F030812168DFF870B604F1B9
:1002B0003405DFF86C66DFF86C76DFF86C86DFF803
:1002C0006C96DFF86CA6594518BF51452AD04945B0
:1002D00018BF414526D0B94218BFB14222D001F023
:1002E00049FA1CBFDFF84C3699421BD001F03EFAA8
:1002F0001CBFDFF84426914214D000F049FE1CBF19
:10030000DFF8382691420DD001F028FA1CBFDFF843
:100310003036994206D001F01DFA1CBFDFF82426C2
:10032000914245D1022300226B7059452A7018BFB3
:1003300051452AD0494518BF414526D0B94218BF7A
:10034000B14222D001F016FA1CBFDFF8E83599421D
:100350001BD001F00BFA1CBFDFF8DC25914214D052
:1003600000F016FE1CBFDFF8D42591420DD001F03D
:10037000F5F91CBFDFF8C835994206D001F0EAF95B
:100380001CBFDFF8C025914242D10B688E465B0846
:100390005B00CEF80030009023681868C1073DD597
:1003A00001F0D0FB009A801A0628F5D32020A8E09F
:1003B000DFF8940581421CBFDFF89025914218D0E8
:1003C000DFF88C3599421CBFDFF88805814210D0D8
:1003D000DFF8842591421CBFDFF88035994208D0B0
:1003E000DFF87C0581421CBFDFF81029914240F004
:1003F0008780022100206970287023681B68A0682C
:1004000040286FF3101340F0818043F0100381E027
:100410000A680B46520852001A60BCE7D3F800C0C5
:10042000A268DFF84005E16800EA0C001043626949
:10043000014320690843A1691043626A0143E069EE
:100440000843216A0143042A03D1E06A0843216B6F
:100450000143DFF81425D2F800C04FEA1C40000425
:10046000B0F1005F11D36068A0F12902062A24BF11
:10047000A0F13F02042A06D3A0F14702022A24BFBA
:100480004F38042801D241F4801119602268536961
:10049000606ADB0840EAC30304280ED1D4F828E0E0
:1004A000E06A4EEA030340B1A16969B9BEF1000FE9
:1004B00018BFBEF1020F1CD011D35361204601F0CA
:1004C00033FA00F0C4F845E0B1F5005F0BD1BEF19E
:1004D000030FF2D8DFE80EF00F0D0F03EDE7B0F1D8
:1004E000C07FEAD107E0BEF1020F04D9BEF10301DB
:1004F000E3D1C001E1D540210122296201209BE026
:100500004020286203216970012096E0802808BFFE
:1005100043F48043E168206962694FF0140C08439A
:10052000A1691043226A0143E0690843216843EA54
:10053000D003DFF8380443EA12130B602368C318B2
:10054000B3FBFCFC4FEA8C00A862204601F0ECF9FA
:1005500000F075F82068584518BF50454CD0484504
:1005600018BF404548D0B84218BFB04244D0DFF869
:10057000001488421CBFDFF8BC2390423CD0DFF857
:10058000F43398421CBFDFF8B013884234D000F037
:10059000B7FB1CBFDFF8A43398422DD000F0B8F9A8
:1005A0001CBFDFF89C23904226D000F0ADF91CBFA1
:1005B000DFF8901388421FD0DFF88C2390421CBFD5
:1005C000DFF88833984217D0DFF8841388421CBFC5
:1005D000DFF8802390420FD0DFF87C3398421CBFB5
:1005E000DFF87813884207D0DFF8742390421CBFED
:1005F000DFF8083798421BD1204601F0EBF9A068DC
:10060000802804BF00216160E96A20790860286BB6
:100610006A6B4260606838B1092805D2204601F053
:1006200027FA00F01CF803E00021A963E9632964BC
:1006300000210122296200206A70BDE8F28F95F83E
:100640002820012102F01F0291404160704795F877
:1006500028203F2102F01F02914081607047A96B62
:1006600000200860E86B2A6C426070472DE9F84F63
:1006700004004FF0000B08BF012005D004F1340640
:100680003078012808BF022000F02F810127377041
:100690007078012840F022814FF0020C002786F884
:1006A00001C0DFF878A2376220689F4F00F01FFB7F
:1006B00018BF48452AD0404518BFB84226D0994DAA
:1006C000A8421CBF964DA84220D0A94DA8421CBFED
:1006D000984DA8421AD0A74DA8421CBF964DA842DB
:1006E00014D0DFF83456A8421CBF944DA8420DD058
:1006F000DFF82856A8421CBF914DA84206D0DFF86B
:100700002056A8421CBF8F4DA8420AD12068D0F8BD
:1007100000C04FEA5C054FEA450C8646CEF800C0A3
:1007200006E02568286840084000AC46CCF8000088
:10073000204601F025F82068504518BF484528D0CC
:10074000404518BFB84224D0764988421CBF744A3D
:1007500090421ED000F0C7FA1CBF7649884218D0DC
:1007600000F0D5FA1CBF744B984212D0DFF8A815E0
:1007700088421CBF714A90420BD000F0B0FA1CBFF7
:100780006F49884205D000F0BEFA1CBF6D4B9842FD
:100790000DD121680B200A6860F344020B461A60F1
:1007A000F06890B12068016841F008010CE0216810
:1007B00005200A6860F343020B461A60F06820B116
:1007C0002068016841F00401016020686949594AC4
:1007D000674BDFF84CC1DFF84CE1504518BF484586
:1007E0003ED0404518BFB8423AD0704518BF60456A
:1007F00036D0984218BF904232D088421CBF4E4D2E
:10080000A8422DD0DFF81055A8421CBF4B4DA8427E
:1008100026D0DFF80855A8421CBF494DA8421FD07A
:10082000DFF8FC54A8421CBF464DA84218D0464DE4
:10083000A8421CBF454DA84212D0454DA8421CBF3E
:10084000444DA8420CD0444DA8421CBF434DA84281
:1008500006D0434DA8421CBFDFF8A054A8420FD1D8
:10086000F06A0568ED0303D5056845F480750560F9
:10087000B06B28B105462E46286840F48070306081
:100880002068504518BF484522D0404518BFB8429F
:100890001ED0704518BF60451AD0984218BF9042CC
:1008A00016D088421CBF2449884211D000F028FA93
:1008B0001CBF224B98420BD000F02AF81CBF204AE4
:1008C000904205D000F020F81CBF1E49884202D19A
:1008D00000F00DF808E000F010F805E04FF40063B8
:1008E000336286F800B0BB465846BDE8F28F026816
:1008F000034642F001021A60704701460A46086842
:1009000040F0010010607047DFF8143498427047DF
:10091000DFF8081488427047000000001000024011
:10092000880002407000024058000240400002402F
:1009300028000240B8000240280402405804024047
:1009400088040240B8040240085402581C5402585B
:100950003054025844540258585402586C540258A7
:10096000805402583F8010FE0010005CF8ABFDA7D9
:10097000A0000240100402402DE9F84F054601F0A6
:10098000E1F8002D044600F0F38005F1340670789C
:10099000022802D080213162E8E02868DFF8F8A55B
:1009A000DFF8F8B500F0A3F918BF48452FD040454F
:1009B00018BF58452BD0DFF8E81588421CBFDFF878
:1009C000E425904223D000F08EF91CBFDFF8D81543
:1009D00088421CD000F09BF91CBFDFF8D03598424C
:1009E00015D0DFF8341388421CBFDFF8C4259042CD
:1009F0000DD000F074F91CBFDFF8B815884206D09E
:100A000000F081F91CBFDFF8B03598420AD10168C7
:100A1000024621F01E0111602868436923F080031B
:100A2000436104E00168024621F00E01116028686C
:100A30002F68504518BF48454ED0404518BF58450F
:100A40004AD0DFF85C1588421CBFDFF85825904279
:100A500042D000F048F91CBFDFF84C1588423BD06B
:100A600000F055F91CBFDFF84435984234D0AA494C
:100A700088421CBFDFF8382590422DD000F02FF9B6
:100A80001CBFDFF83015884226D000F03CF91CBFAF
:100A9000DFF8243598421FD0DFF8201588421CBFAC
:100AA000DFF81C25904217D0DFF8183598421CBF9C
:100AB000DFF8141588420FD0DFF8102590421CBFD4
:100AC000DFF80C35984207D0DFF8081588421CBFC4
:100AD000DFF8B824904204D1F06A016821F48071F3
:100AE00001602868504518BF48452ED0404518BFC2
:100AF00058452AD0DFF8A82490421CBFDFF8A41480
:100B0000884222D000F0EFF81CBFDFF89C2490420E
:100B10001BD000F01BFE1CBFDFF89034984214D0AD
:100B200000F0EEF81CBFDFF8881488420DD000F00A
:100B3000D6F81CBFDFF87C24904206D000F002FEFD
:100B40001CBFDFF87434984214D102680146520881
:100B500052000A603B68D80712D500F0F3FF001B73
:100B60000628F7D3202003213062717000223270F2
:100B70000120B2E001680246490849001160E9E736
:100B8000D5F800E0DFF82404DFF84C14DFF818246F
:100B9000DFF84834DFF80C44DFF804C4D64518BF4A
:100BA000CE4526D0C64518BFDE4522D0E64518BF43
:100BB000A6451ED09E4518BF96451AD08E4518BF33
:100BC000864516D0544FBE451CBFDFF8E473BE45C2
:100BD0000FD0DFF80C74BE451CBFDFF8D873BE45DC
:100BE00007D0DFF80074BE451CBFDFF8CC73BE45EC
:100BF0000BD196F828704FF03F0E07F01F070EFA42
:100C000007FE776AC7F808E00AE096F828704FF008
:100C1000010E07F01F070EFA07FE776AC7F804E017
:100C20002D68554518BF4D4545D0454518BF5D4514
:100C300041D0654518BFA5423DD09D4218BF9542A1
:100C400039D08D4218BF854235D0334885421CBF0C
:100C5000DFF85C138D422ED0DFF8842395421CBF51
:100C6000DFF85003854226D0DFF878138D421CBF91
:100C7000DFF8442395421ED0DFF8400385421CBFB5
:100C8000DFF83C138D4216D0DFF8382395421CBFA5
:100C9000DFF8340385420ED0DFF830138D421CBFDD
:100CA000DFF82C23954206D0DFF8280385421CBFCD
:100CB000B6498D420CD1336B726B5A60B06B38B150
:100CC00001460A6822F480720260F26B316C516056
:100CD00001200021707000203170BDE8F28FDFF834
:100CE000003398427047DFF8F43298427047DFF8DB
:100CF000F882DFF8F892504570470000945402588B
:100D0000054A90427047DFF8DC2290427047DFF8D6
:100D1000C822904270470000400402407004024024
:100D2000A00402402DE9F84F30B100F134025178AF
:100D3000022903D080201062012025E10668DFF837
:100D40005892DFF86812DFF89032DFF85C42DFF883
:100D50008C52DFF850A2DFF848B2DFF840C2DFF86B
:100D600088E2DFF888824E4518BF464527D0764591
:100D700018BF664523D05E4518BF56451FD0AE420A
:100D800018BFA6421BD09E4218BF8E4217D0DFF874
:100D90006072BE421CBFDFF81872BE420FD0DFF88F
:100DA0004072BE421CBFDFF80C72BE4207D0DFF8B3
:100DB0003472BE421CBFDFF80072BE4234D1042739
:100DC0004E45577018BF464527D0764518BF664533
:100DD00023D05E4518BF56451FD0AE4218BFA6426D
:100DE0001BD09E4218BF8E4217D0DFF804128E42ED
:100DF0001CBFDFF8BC2196420FD0DFF8E4319E42E1
:100E00001CBFDFF8B0118E4207D0DFF8D821964220
:100E10001CBFDFF8A4319E423DD1314608460C6824
:100E2000640864000460AEE0376827F00E0737609E
:100E300006684E4518BF464527D0764518BF66451B
:100E400023D05E4518BF56451FD0AE4218BFA642FC
:100E50001BD09E4218BF8E4217D0DFF89471BE425D
:100E60001CBFDFF84C71BE420FD0DFF87471BE4278
:100E70001CBFDFF84071BE4207D0DFF86871BE4288
:100E80001CBFDFF83471BE420CD1366807687608A3
:100E900076003E600AE0314608460A685208520071
:100EA000026070E037687F087F00376006684E4553
:100EB00018BF464546D0764518BF664542D05E45C8
:100EC00018BF56453ED0AE4218BFA6423AD09E4209
:100ED00018BF8E4236D0DFF818118E421CBFDFF8E3
:100EE000D0309E422ED0DFF8F840A6421CBFDFF87B
:100EF000C4108E4226D0DFF8EC309E421CBFDFF8D3
:100F0000B840A6421ED0DFF8B4108E421CBFDFF8F6
:100F1000B0309E4216D0DFF8AC40A6421CBFDFF8CE
:100F2000A8108E420ED0DFF8A4309E421CBFDFF81E
:100F3000A040A64206D0DFF89C108E421CBF134B87
:100F40009E4219D1D16A0C6824F480740C6092F826
:100F50002830546A012103F01F0399406160156B2A
:100F6000536B6B60916B39B10B461C6824F4807431
:100F70000C60D46B136C6360012100235170D16944
:100F8000137001B188470020BDE8F28F94540258D5
:100F9000174B994270470000100002405800024071
:100FA0007000024088000240B8000240280402405D
:100FB0005804024088040240B80402400854025811
:100FC0001C54025830540258445402585854025881
:100FD0006C5402588054025810040240A000024091
:100FE00070040240A0040240400002402800024079
:100FF000400402402DE9FE4F0021DFF8182901913D
:1010000013684FF4165504460822DFF80CB9B3FBF9
:10101000F5F5029504F13405686A01230090DFF8C4
:10102000FC78DFF8FC88DFF8FC980146DFF88CA933
:101030000E680168D4F800C0DC4518BFD44531D033
:10104000CC4518BFC4452DD0BC451CBFDFF870E9A6
:10105000F44527D0DFF878EAF4451CBFDFF864E9EF
:10106000F4451FD0DFF86CEAF4451CBFDFF858E9FF
:10107000F44517D0DFF860EAF4451CBFDFF84CE90F
:10108000F4450FD0DFF854EAF4451CBFDFF840E91F
:10109000F44507D0DFF848EAF4451CBFDFF844EA1E
:1010A000F44541D100F044FB02FA00F0064200F0A2
:1010B0009580DC4518BFD44531D0CC4518BFC44518
:1010C0002DD0BC451CBFDFF8F8188C4527D0DFF8C1
:1010D000000A84451CBFDFF8EC0884451FD0DFF808
:1010E000F4198C451CBFDFF8E008844517D0DFF801
:1010F000E80984451CBFDFF8D4188C450FD0DFF811
:10110000DC0984451CBFDFF8C808844507D0DFF838
:10111000D0198C451CBFDFF8CC0984454AD1DCF8D6
:10112000000000F0040049E0DFF82869B4451CBF66
:10113000DFF82469B44518D0DFF82069B4451CBF36
:10114000DFF81C69B44510D0DFF81869B4451CBF3E
:10115000DFF81469B44508D0DFF81069B4451CBF46
:10116000DFF81866B44540F0E182DCF8006095F8DD
:1011700028C04FF0040E0CF01F0C0EFA0CFE11EA02
:101180000E0FCDF800E000F04B825FEA467E40F1A2
:10119000478200994160300440F1F881F10300F189
:1011A00037826969002900F0C182204603B0BDE89A
:1011B000F04F08476046006800F0080070B16046D4
:1011C000016821F00401CCF8001000F0B1FA82406F
:1011D00000988260296A41F00101296200F0A8FAB2
:1011E00026FA00F1CA073DD52168594518BF514577
:1011F0002ED0494518BF41452AD0B9421CBFDFF85F
:10120000C027914224D000F0B5FA1CBFDFF8B42704
:1012100091421DD000F0AAFA1CBFDFF8AC27914222
:1012200016D0DFF8B42891421CBFDFF8A027914206
:101230000ED000F093FA1CBFDFF89427914207D03C
:1012400000F088FA1CBFDFF89C28914240F08E80A5
:101250004969090606D5834000988360296A41F0F0
:101260000201296295F8281000F067FA06423FD083
:101270002168594518BF51452FD0494518BF4145F0
:101280002BD0B9421CBFDFF83827914225D0DFF8B8
:10129000403899421CBFDFF82C2791421DD000F046
:1012A00065FA1CBFDFF82037994216D0DFF82828EE
:1012B00091421CBFDFF8142791420ED0DFF81C3892
:1012C00099421CBFDFF80827914206D000F042FA8D
:1012D0001CBFDFF8103899424AD1D1F800C05FEA4C
:1012E0008C7205D500998860286A40F00400286255
:1012F00095F82800102100F01F0081400E4259D0BF
:101300002068584518BF50452CD0484518BF404567
:1013100028D0B8421CBFDFF8A826904222D0FFF7A1
:10132000E2FC1CBFDFF89C2690421BD0FFF7EFFCCD
:101330001CBFDFF89436984214D0FFF7E1FC1CBFC5
:10134000DFF8882690420DD0FFF7C9FC1CBFDFF8FC
:101350008026904206D0FFF7D6FC1CBFDFF884370A
:10136000984208D1006800F0080009E00A6879E7AF
:1013700008460368BCE78446DCF8000000F004007F
:10138000C0B100988160206801684A0307D50068F1
:1013900001030BD5696969B1204688470AE00168F5
:1013A000CA0503D4036823F008030360E96809B1A0
:1013B0002046884795F82800202100F01F00814032
:1013C0000E423BD02068584518BF50452DD04845A7
:1013D00018BF404529D0B8421CBFDFF8E425904231
:1013E00023D0FFF780FC1CBFDFF8D865B0421CD0CB
:1013F000FFF78DFC1CBFDFF8D035984215D0DFF821
:10140000D866B0421CBFDFF8C42590420DD0FFF76C
:1014100066FC1CBFDFF8B865B04206D0FFF773FC6E
:101420001CBFDFF8C036984203D1006800F01000FE
:1014300003E00246106800F00200002847D0009840
:10144000816020686978042927D1026822F0160299
:1014500002602068436923F080034361E968002942
:1014600004BF6869002804D02068016821F00801E1
:10147000016095F8282000993F2002F01F0290405B
:101480008860012068700022E9692A70002920D054
:10149000204603B0BDE8F04F084701684A0307D56E
:1014A000006801030FD4296989B1204688470EE0FE
:1014B0000168CA0507D40368002123F01003036004
:1014C000012068702970A96809B120468847286AF8
:1014D000002800F02B81296AC80756D504226A70BB
:1014E0002068584518BF50452ED0484518BF404584
:1014F0002AD0B8421CBFDFF8C814884224D0DFF8D5
:10150000D02590421CBFDFF8BC3498421CD000F0BC
:101510001DF91CBFDFF8B024904215D000F022F96D
:101520001CBFDFF8A81488420ED0DFF8B025904227
:101530001CBFDFF89C34984206D000F003F91CBFB2
:10154000DFF8A025904217D1206803685B085B0094
:1015500001460B600298019A521C90420192216848
:1015600002D30A68D307F6D40868C10747BF03222D
:101570006A7001236B7006E0206801684908490021
:1015800002461160E6E700202870C8E0B0063FD4AC
:101590002068584518BF50452ED0484518BF4045D3
:1015A0002AD0B8421CBFDFF81814884224D0DFF8D4
:1015B000202590421CBFDFF80C3498421CD000F06C
:1015C000C5F81CBFDFF80024904215D000F0CAF81F
:1015D0001CBFDFF8F81388420ED0DFF800259042D8
:1015E0001CBFDFF8EC33984206D000F0ABF81CBF0C
:1015F000DFF8F024904205D10368014623F0080388
:101600000B6005E002461346106820F004001860E5
:10161000E968002918D0204603B0BDE8F04F08471C
:101620004FF0020E0EFA0CFE11EA0E0FCDF800E09C
:101630005DD05FEA867E5AD500994160300409D5B5
:10164000F1034DD42969002970D0204603B0BDE8CC
:10165000F04F0847B00643D42068584518BF50459E
:101660002ED0484518BF40452AD0B8421CBFDFF8ED
:101670005013884224D0DFF8582490421CBFDFF872
:10168000443398421CD000F061F81CBFDFF83823C7
:10169000904215D000F066F81CBFDFF83013884286
:1016A0000ED0DFF8382490421CBFDFF82433984274
:1016B00006D000F047F81CBFDFF82824904205D17F
:1016C0000368014623F014030B6005E0024613464D
:1016D000106820F00A00186001210020697028704D
:1016E000A96819B3204603B0BDE8F04F084702FAD5
:1016F0000CF211421AD0310718D52268166826F06C
:101700000E06174601223E6095F8281001F01F01D1
:101710008B4043600120286200216A702970A9690A
:1017200021B1204603B0BDE8F04F0847BDE8F78F70
:1017300095F8280000F01F007047042001F01F01F9
:1017400088407047DFF8981388427047DFF88413A9
:1017500088427047DFF8882391427047DFF87C2386
:1017600091427047DFF8703398427047DFF8642386
:1017700091427047DFF858239142704794540258C1
:101780002DE9F84F0446DFF890A1A56DDFF830B2DF
:1017900000952668DFF884C1DFF884E1DFF88481F2
:1017A000DFF81892564518BF4E4543D0464518BF3E
:1017B00076453FD0664518BF5E453BD0DFF8100345
:1017C00086421CBF7F4FBE4234D0DFF808038642FA
:1017D0001CBF7D4886422DD0DFF8FC72BE421CBF84
:1017E0007A48864226D0DFF8F40286421CBF784F42
:1017F000BE421FD0DFF8E80286421CBFDFF8E402D9
:10180000864217D0934FBE421CBF9348864211D0E8
:10181000924886421CBF924FBE420BD091488642EE
:101820001CBF9148864205D0904FBE421CBFAE48B7
:1018300086425BD1676EA06E7860E06E10B1206F5B
:10184000676F4760564518BF4E4525D0464518BFBF
:10185000764521D0664518BF5E451DD09C4886421E
:101860001CBF5848864217D09A4886421CBF56482B
:10187000864211D0984886421CBF544886420BD0FD
:10188000964886421CBF5248864205D094488642FC
:101890001CBF9448864215D194F85C00DDF800B076
:1018A0003F2500F01F008540CBF80850356825F42F
:1018B000802535607360A068402827D0B160F26051
:1018C000BDE8F18F634886421CBF6348864210D052
:1018D000624886421CBF624886420AD061488642FE
:1018E0001FBF614886426148864202D07E488642D8
:1018F000E6D194F85C00012700F01F0007FA00FC15
:10190000C5F804C07360A368402BD7D1B260F16002
:10191000D6E700003C0000201000024070000240AA
:101920005800024040000240F0B501686F4A914201
:101930001CBF224B994229D06D4CA1421CBF6D4A5D
:10194000914223D06C4B99421CBF1D4CA1421DD02B
:10195000FFF710FF1CBF1B4B994217D05D4CA142F3
:101960001CBF194A914211D0FFF712FB1CBF174C44
:10197000A1420BD0FFF7F2FE1CBF154B994205D0D8
:10198000574CA1421CBF574A914211D101F0FF03AD
:10199000890A103B1824B3FBF4F20FF2A01502F0F1
:1019A00007068902AF5D042AC76503D3091D01E05C
:1019B000090A090281650846F0BD000028000240BE
:1019C00088000240B8000240280402405804024047
:1019D00088040240F0B5046801221E4D2346AC4243
:1019E0001CBF1D4EB44211D01C4FBC421CBF1C4D2D
:1019F000AC420BD01B4EB4421CBF1B4FBC4205D0A7
:101A00001A4DAC421CBF384EB4420DD104F0FF0158
:101A100008391423394DB1FBF3F1394B03EB810342
:101A200001F01F018A4011E004F0FF011039182471
:101A3000B1FBF4F43349CB18A92B38BF0834324B2F
:101A4000324D03EB840304F01F04A2400366456695
:101A50008266F0BD085402581C5402583054025893
:101A600044540258585402586C5402588054025836
:101A70000179002900D170470929F0B527D2026801
:101A8000234B9A421CBF234DAA4211D0224EB24290
:101A90001CBF224B9A420BD0214DAA421CBF214EA3
:101AA000B24205D0204FBA421CBF0F4DAA4204D10A
:101AB0001E4B1F4A03EB810403E01E4A02EB810424
:101AC0001D4A0123491E8B40C46602674367F0BD6F
:101AD000A000024010040240400402407004024092
:101AE000A0040240B804024094540258100002407E
:101AF00040000240580002407000024080580258E6
:101B000000580258F0FBFDBF000802408008024068
:101B1000085402581C540258305402584454025875
:101B2000585402586C54025880540258FC580258B9
:101B300040590258FC0802404009024000061016B5
:101B40000006101601484068704700BF0C000020D6
:101B5000F0B585B010260B9D25B986F3118800F0ED
:101B60004CFDFEE70C9C24B986F3118800F045FD7E
:101B7000FEE760270097DDF800E0BEF1600F04D0BB
:101B800086F3118800F039FDFEE7009E25630225EB
:101B9000002784F85D5004AD0397029401950A9ED6
:101BA000009600F034F8204600F07AF8049805B06A
:101BB000F0BD2DE9F8430646174684B0884699469D
:101BC000B80001F0E1F805001CD0602001F0DCF85D
:101BD000040014D00020256384F85D000D9A039062
:101BE0000C9801924B4600903A460294414630468A
:101BF00000F00DF8204600F053F8012004E02846DC
:101C000001F04BF94FF0FF3005B0BDE8F0832DE94E
:101C1000F0470A9F81460C4615469A46A522386B26
:101C2000A90001F08DF93A6B02EB850107F134054B
:101C3000081FC0084FEAC00808F0070054B100218F
:101C4000625C6A54605C10B1491C1029F8D3002012
:101C5000E87300E02870089E372E88BF3726099C5D
:101C6000FE62AE61C6F13806E861381D01F092F9F6
:101C700007F1180001F08EF93F610020BE610021DC
:101C80007F620022286240466962494687F85C20EC
:101C9000524601F0D9F9386004B12760BDE8F087F9
:101CA0002DE9F04100F087F8E86C1426DFF8F48A9B
:101CB000401CE864A86A28BBAC62E96C012929D100
:101CC000002706FB07F07F1C404401F056F9382F2F
:101CD000F7D305F1780005F18C0701F04EF938468D
:101CE00001F04BF9284601F048F905F1140001F024
:101CF00044F905F1380001F040F905F17801E96295
:101D00002F6307E0A86D28B9E16AA86AC26A914208
:101D100028BFAC62A86EE26A401C6064696D9142A3
:101D200038BF6A655643A866211D08EB060001F01E
:101D300034F901F014FAA86D40B1A96AE26AC86AE0
:101D4000904203D200F095F900F057FCBDE8F08115
:101D500038B500F030F800F04CF9A06A08B100F096
:101D600044F9A86E401CA866A96A8C4208D1211DBE
:101D700005F1140001F011F9686B401C686307E07D
:101D8000E96C2046491EE96400F0A9FC00F0BCFCA7
:101D900001F0E5F9A86D68B1A96A8C420AD1286FF3
:101DA00020B100F0E1FA00F028FCFEE700F0DCF8DA
:101DB00000F023FC31BD0446DFF8BC5A01F0B6B98F
:101DC00010B50A46102320B983F3118800F015FCE2
:101DD000FEE722B983F3118800F00FFCFEE7DFF87D
:101DE000984A216F21B183F3118800F006FCFEE7C9
:101DF000216F491C2167236D016852188B4202D262
:101E00008A4204D201E08A4203D3934201D30260A2
:101E100004E002600021D01A00F071FF00F0A4F984
:101E200018B900F0A1F800F0E8FB10BD80B578B15A
:101E3000DFF8442A116F11B100F0DCFBFEE7116FEF
:101E4000491C1167002100F05AFF00F08DF918B904
:101E500000F08AF800F0D1FB01BD2DE9F04105004A
:101E600002D100F0C7FBFEE7DFF80C6AB06A8542DA
:101E700008BF002020D001F059F96C69D6F82C80F9
:101E8000376B01F06CF9444518BFBC420BD006F12A
:101E900038018C4209D1A86A28B995F85C1001294B
:101EA00018BF032008D1022006E006F11400844286
:101EB00016BF002C04200120BDE8F08110B50446B7
:101EC00001F034F914B9DFF8B009846AE46A00F06B
:101ED00012BF2DE9F0410F460024382F054602D3EA
:101EE00000F088FBFEE701F021F9DFF88C6905B905
:101EF000B56AE86CB84233D0B16A06D28D4207D0D9
:101F0000B26AD36A9F4203D301E08D4200D101241B
:101F1000E96A884208BFEF62A869EF6400285CBFE5
:101F2000C7F13807AF614FF01408686908FB01F189
:101F3000DFF87078394488420DD1281D01F053F83C
:101F4000E86A716D814238BF706508FB00F2291D97
:101F5000B81801F022F81CB100F006F800F04DFBB3
:101F6000BDE8F04101F0FBB84FF08050DFF8EC1A0B
:101F70000860704738B5FFF71EFF00F03AF8A06A16
:101F800008B100F032F8211D05F1380001F005F824
:101F900094F85C00012804BF002184F85C1001F073
:101FA000DEF8A86D28B101F0C1F800F0ADFB01F03A
:101FB000D6F8A86A844217D1A96D59B1286F20B10B
:101FC00000F0D2F900F019FBFEE7FFF7CDFF00F0BB
:101FD00014FB31BDA86BE96C884202D10020A862D5
:101FE00031BDBDE83140C3E131BD04F1180000F05E
:101FF000FABF04B9AC6A201D00F0F5BF014600200D
:1020000010B511B900F0F6FAFEE74B69DFF8EC29DC
:1020100002F13804A34204D1896A914201D001B986
:10202000012010BD38B5040002D100F0E3FAFEE74C
:10203000DFF8C859A86A84421AD001F077F8204620
:10204000FFF7DCFF80B100F0AFFB00F067FA38BFAC
:102050006A6500F067FAE16AA86AC26A914203D32E
:1020600000F007F800F0C9FABDE8314001F077B898
:1020700031BD4FF08051DFF8E43919607047F8B591
:1020800004460025102724B987F3118800F0B5FA1B
:10209000FEE701F087F8EFF3118687F3118800F06F
:1020A000ACFA2046FFF7AAFFC0B1DFF85079386FCD
:1020B00078B9E16AB86AC26A914228BF012500F086
:1020C00073FBE26A786D904238BF7A6500F0CBFD11
:1020D00002E004F11801384600F05FFF86F3118832
:1020E0002846F2BD80B586B00020059003AA049072
:1020F00004A905A801F092F8059A0498029200211B
:10210000039A01900091002312A10FF2A140FFF762
:102110001FFDA8B101F08CF81021012812D181F324
:10212000118800F06AFADFF8D4084FF0FF31C16679
:10213000012282650023036501F084FA00F0A6FF06
:1021400007B000BD10F1010FFAD181F3118800F042
:1021500054FAFEE749444C4500000000DFF89C08B3
:10216000016F491C0167704770B5DFF80C670024E8
:10217000306F002520B900F0F7F800F03EFAFEE7D6
:1021800000F0D4FF306F401E3067316F002937D127
:10219000F06CD0B934E0F168CC68FFF726FF00F0AE
:1021A00003FBE06A716D814238BF70651423DFF86C
:1021B000F4255843211D104400F0EFFEE06AB16A97
:1021C000CA6A904224BF0123336630680028E2D1F6
:1021D0000CB100F099FAF46D44B100F065F808B163
:1021E00001203066641EF8D10021F165306E38B1EF
:1021F0004FF08051DFF864280125116000F0FDF9EF
:1022000000F027BCDFF8F407006D70472DE9F047B8
:102210008046DFF86476386F002538241646401C67
:102220003867FB6C99423AD3641E14206043DFF890
:1022300074354FF024090122191809FB05F04044B8
:1022400000F015FA4519002CEED109FB05F0F96AEA
:102250000222404400F00BFA00EB050A396B09FB3F
:102260000AF3022208EB030000F001FA8244042280
:1022700009FB0AF007F11401404400F0F8F9824428
:10228000032209FB0AF307F1380108EB030000F011
:10229000EEF900EB0A0516B101F0D8F93060FFF74E
:1022A00063FF2846BDE8F0872DE9F843DFF8C875DD
:1022B0000026386F002852D13C6D641C3C6510D15B
:1022C000F86A006820B100F04FF800F096F9FEE7D8
:1022D000F86A396BF9623863786E401C786600F0F2
:1022E00013FAF86E4FF01408DFF8B894844227D33D
:1022F0001FE0F96ACA68D568686884422DD3281D32
:1023000000F071FEA86A18B105F1180000F06BFE2C
:10231000E86A796D814238BF786508FB00F0291DB5
:10232000484400F03AFEE86AB96ACA6A904228BF97
:102330000126F86A00680028DBD14FF0FF31F9660A
:10234000B86AC06A08FB00F859F80810022928BFCB
:102350000126386E30B1012604E0F866F0E7F86D2A
:10236000401CF86500F011BC102181F31188704702
:1023700010B5DFF80445206F10B10121216610BDB2
:10238000206601F063F9616F814204D2A26A536D45
:10239000C318591A51656067A06A006BA16A0A6880
:1023A000904205D3A06A00F13401A06A01F052F90D
:1023B000616DDFF89C2900E0491E14234B43D0587F
:1023C00030B90029F8D1FFF7CFFF00F016F9FEE78A
:1023D000D01800F108034268526842609A4204BF74
:1023E000526842604068C268A262616510BD10B563
:1023F0000C4610B900F0FEF8FEE700F03AF800F0E5
:10240000D9FD20460121BDE8104000F078BC38B568
:102410001446102320B983F3118800F0EEF8FEE78C
:10242000DFF854542A6F22B983F3118800F0E5F8DD
:10243000FEE7AA6A41F000419161AB6A03F118011D
:1024400000F0ABFD204601210FE038B50D461446E3
:1024500010B900F0CFF8FEE700F00BF800F09DFD9A
:102460000CB14FF0FF3521462846BDE8344000F05E
:1024700046BCDFF8D828936A03F11801704738B5D5
:10248000C068C46824B9FFF76FFF00F0B6F8FEE734
:1024900004F11800DFF8B45800F0A5FD296F41B928
:1024A00000F082F900F03AF838BF6A6500F0DBFB13
:1024B00002E004F11801284600F06FFD00F068FB0F
:1024C00003D2012301202B6632BD002032BD38B576
:1024D000DFF8785810232A6F22B983F3118800F0AF
:1024E0008CF8FEE741F000410160C46824B983F331
:1024F000118800F082F8FEE700F075FD00F054F955
:1025000000F00CF838BF6A6500F00CF8A96AE26ABE
:10251000C86A90423CBF0121296631BDE26A686DFC
:10252000904270471420DFF828384243211D981844
:1025300000F033BDDFF814184A6E0260096D416087
:102540007047F8B504460D46102014B900F053F852
:10255000FEE715B900F04FF8FEE700F0E7FDDFF801
:10256000EC07016D62682E688B1A16F1010F0ED010
:10257000476ED4F800C0674501D091420BD2B342F8
:1025800007D2F31A2B60416E2160006D6060002459
:1025900002E000212960012400F0E1FD2046F2BDA7
:1025A0000120DFF8A81708667047000070B57D4C61
:1025B000B14D11E000F0BAFD286AC668301D00F088
:1025C00012FDE86C401EE864696B491E696300F007
:1025D000C6FD304600F083F8686B0028EAD1216818
:1025E0000229F9D34FF08050DFF86827106000F01F
:1025F00004F8F1E7102080F31188BFF34F8FBFF389
:102600006F8F704770B505000E4614469A4808BF94
:10261000856A356005F134017160EA6A3261296BBF
:10262000F1616A6CB260E96C71616A6D052BB2612F
:1026300011D0816A8D4208BF00200FD0032B337365
:102640000DD1016F491C0167A86A08B102213173DD
:10265000FFF78AFD03E02846FFF7FFFB30731CB14C
:10266000286B00F031F800E00020308470BD2DE9C7
:10267000F84304460D4628689046002708B3696869
:1026800005F1080248686860904204BF40686860CD
:102690006968CE68686805F108014068686088422A
:1026A00004BF40686860686843460122D0F80C9017
:1026B0002420784321184846FFF7A4FF7F1CB1452A
:1026C000E8D13846BDE8F2830146002000E0401C16
:1026D00011F8012BA52AFAD08003000C704710B521
:1026E000044694F85D0040B9206B00F0D6FB20460C
:1026F000BDE8104000F0D1BB10BD0128F7D0022882
:10270000FAD0FFF777FFFEE75B49C86A006818B99F
:102710004FF0FF32CA667047C86AC268D36858680B
:10272000C8667047DFF82416886D08B90120704725
:10273000086F08B90220704700207047F8B50446BA
:10274000002074B3E16A4C4DAA6AD36A994222D23E
:10275000A069002804D4A86AC26AC2F13802A26142
:10276000142762697943DFF8E86531448A420ED163
:1027700000F01AF8A96AC86A6A6D824238BF6865B3
:102780004743E062211DF01900F007FC08E0A86A49
:10279000C16AE16204E0E16CAA6AD36A994200D29C
:1027A0000120F2BD44410020201D00F01CBC38B5C2
:1027B0000446002134B3DFF894551022A86A8442FD
:1027C00004D082F31188FFF718FFFEE7206D20B9CF
:1027D00082F31188FFF711FFFEE7E26A401EE36C07
:1027E00020659A420ED068B9FFF7DEFFE26CE26224
:1027F000C2F13800A061696D914238BF6A65FFF788
:1028000091FE0121084632BDF8B5040033D0206D99
:10281000102220B982F31188FFF7EFFEFEE7E36C88
:10282000994238BF1946E36A8B4224D0012822D14D
:10283000114DA86A844204D182F31188FFF7DDFEAE
:10284000FEE7A069E16200285CBFC1F13801A16127
:10285000142761697B43DFF8F864F21891420AD1CA
:10286000FFF7A2FFE06A696D814238BF68654743A0
:10287000211DF01970E2F1BD6C4C002010B504462A
:1028800000F0FEFE204600F007FF202101E0215469
:10289000401C0F28FBD300222254204410BD00000E
:1028A0002DE9FE4F044600202070DFF8A004D0F888
:1028B0004C90C06C2425684300F066FA5FEA00087B
:1028C0003CD000224946FFF7A1FC824620460FF289
:1028D0009049002415E0002700E044277168641C3B
:1028E000FFF7CCFF8346B0680190318C3A465846DA
:1028F00000913369494600F0D9FE584600F0CCFEFD
:102900005844544515D205FB04F108EB0106317B10
:102910000429E0D8DFE801F00507090B0400DAE735
:10292000DBE75827DAE75227D8E74227D6E75327CD
:10293000D4E74046BDE8FE4F00F0AFBABDE8F78FE0
:102940002DE9F84F054600202870DFF80004D0F884
:102950004CA0C06C2426704300F016FA5FEA000811
:1029600034D06A465146FFF751FC009981466422F3
:10297000B1FBF2F21000009225D0284600270FF29A
:10298000F03A45461CE00FF2F43100F08FFE12E001
:1029900006FB07F1009A6C18A169B1FBF2F86168B7
:1029A000FFF76CFFB8F1000F8346A269EBD04346F6
:1029B000514600F07BFE58467F1C00F06DFE5844E7
:1029C0004F45E5D3A846404600F067FABDE8F18FD1
:1029D000DFF87813886A80698A6A896ACB6AC3F1EA
:1029E000380393617047DFF86413886A18B1886A06
:1029F000026D521C0265886A704700006C4C002012
:102A000070B504460D4600F091FBDFF84063B06AF4
:102A1000806D58B9B26A012182F85C1035B1284640
:102A200000F06DF9FFF7A0FAFFF7E7FD00F097FB64
:102A300000F07CFBB06A856D3DB11CB1B16A00202D
:102A4000886502E0B06A6A1E8265B26A002182F877
:102A50005C1000F084FB284670BD000004ED00E02F
:102A60002DE9F04180460F4614461D4600F05EFBFE
:102A7000DFF8D862B06A90F85C00022812D0B06A21
:102A8000816D21EA0808C0F85880B26A012082F8F6
:102A90005C003DB10121284600F031F9FFF764FAEE
:102AA000FFF7ABFD00F05BFB00F040FB14B1B06A38
:102AB000806D2060B06A90F85C10022918BF002475
:102AC00005D1B06A0124816D21EA07078765B16AE3
:102AD000002081F85C0000F042FB2046BDE8F08158
:102AE0002DE9F84304460F4691461D4601264FF056
:102AF000100824B988F31188FFF77FFDFEE700F086
:102B000015FB00F0A9F8B9F1040F84F85C1028D87F
:102B1000DFE809F006031F052300A26D1743A76530
:102B2000012830D1201D894D00F05DFAE06A696D01
:102B3000814238BF68651422854B5043211D1844DB
:102B400000F02BFAA06AA8B188F31188FFF755FDB1
:102B5000FEE7A16D491CA165E2E70228DFD100264E
:102B600011E0A16D11F1010FDAD088F31188FFF7A0
:102B700044FDFEE700F00CF805D24FF08050754B95
:102B80001860FFF73AFD00F0EAFA3046BDE8F2833C
:102B9000A86AE26AC16A9142704700002DE9F047D5
:102BA00004460F4692461D4601264FF0100824B9F0
:102BB00088F31188FFF721FDFEE700F0F3FAEFF349
:102BC000118988F31188FFF718FD00F045F8BAF174
:102BD000040F84F85C1018D8DFE80AF006030F052C
:102BE0001300A26D1743A765012830D1A06AA8B1D0
:102BF00088F31188FFF701FDFEE7A16D491CA1656F
:102C0000F2E70228EFD1002621E0A16D11F1010FBA
:102C1000EAD088F31188FFF7F0FCFEE74B4D286FF0
:102C200040B9FFF7C1FDFFF779FC38BF6A6500F0D6
:102C30001AF802E004F11801284600F0AEF9FFF797
:102C4000A7FF04D2089800B106600120286689F326
:102C500011883046BDE8F0870DB1A06D286094F86A
:102C60005C00022170471420394B4243211D981803
:102C70007047F8B504460D46102724B987F311882C
:102C8000FFF7BBFCFEE700F08DFAEFF3118687F348
:102C90001188FFF7B2FC94F85C00022184F85C1004
:102CA000A26D521C0128A26522D1A06A20B187F32F
:102CB0001188FFF7A2FCFEE7244F386F48B9FFF7F1
:102CC00073FDE26A786D904238BF7A65FFF7CBFFFB
:102CD00002E004F11801384600F05FF9B86AE26AD0
:102CE000C16A914204D20DB10120286001213966E8
:102CF00086F31188F1BD00F032FA204610BDF8B518
:102D0000124D0C462F6DA96A0646081D00F06BF99E
:102D100016F1010F05D124B1A86A011D05F1380093
:102D20001AE0A86AF619BE424660A86A05D2011DDB
:102D3000286BBDE8F44000F03DB9011DE86A00F0E1
:102D400039F9E86E864238BFEE66F1BD6C4C002062
:102D50004441002004ED00E0BDE8F44000F01DB95E
:102D60000925630925750925750925750D0A0000D2
:102D70000925750909257525250D0A0009257509F7
:102D8000093C3125250D0A002DE9F84304466B4F17
:102D9000FFF7E4F9B8684FF00009002508BB07F118
:102DA000200313F0070F07F120014FF470500A467B
:102DB00005D0CA1DD208D200C2F57053C8188018B9
:102DC0000838C008C0003A60811A7D60B86045606C
:102DD00005605160106050683861F8604FF0004045
:102DE000F861F9694FF010080C4246D1002C44D02C
:102DF000083414F0070F04D004F1080104F00700B0
:102E00000C1A002C39D0F868A04236D339463E68F7
:102E100001E0314606467268A24202D230680028BC
:102E2000F7D1B868864228D00A6833680B6002F18F
:102E300008097268121B102A0CD9311911F0070009
:102E400002D000F023F8FEE7301D025108467460FE
:102E500000F050F87168F8683C69401AF860FA6848
:102E6000A24288BF2246F8693A6101437160356029
:102E70007A6909F00705521C7A61FFF775F915B1F7
:102E800000F004F8FEE74846BDE8F28388F31188B5
:102E9000BFF34F8FBFF36F8F7047002800D170478B
:102EA00038B5A0F10805254C6968E2691023114284
:102EB00004D183F31188FFF7EBFFFEE7286820B108
:102EC00083F31188FFF7E4FFFEE791436960FFF7A2
:102ED00045F9E168686841182846E16000F00AF8A1
:102EE000A169491CA161BDE83140FFF73DB9134814
:102EF000C0687047114930B50A4600E01A461368A9
:102F00008342FBD35368D418844203D14068C3186A
:102F10001046536043681468C518A54208D18968F3
:102F20008C4204D06168CB184360246800E00C46F2
:102F30000460824218BF106030BD0000C400002051
:102F400062F30F2262F31F4200B500BF13009646E2
:102F50009446103928BFA0E80C50FAD85FEA417CAB
:102F600028BF0CC048BF40F8042BC90728BF20F871
:102F7000022B48BF00F8012B00BD4FF0FF3200F1DB
:102F80000801826000F1080341600022C360016112
:102F90000260704700210161704710B542684A60C5
:102FA00093688B6094686160916008610168491C56
:102FB000016010BD30B50A6812F1010F08BF036946
:102FC00007D000F1080300E023465C682568AA42A8
:102FD000FAD25A684A6091608B6059600861016852
:102FE000491C016030BD10B54368016982689A6070
:102FF0008268446854604B68834204BF82684A60B8
:10300000002303610868401E0860086810BD30B5E1
:10301000016884684218416802EB5103C90703D56F
:103020004C4401E0491C08D19A4218BF12F9011B17
:1030300001D10C3030BD12F8015B002904F8015BAE
:10304000F0D4491EF7D5EFE74908490010B5A0F1C3
:1030500020034FF0807499610FF215011A606FF030
:103060000202DC61596140F8242D203810BD0000B7
:103070005B4910204A6812F1010F80F31188BFF3F9
:103080004F8FBFF36F8F00D0FEE7FEE77CB5554A48
:1030900010211068544B984202D100F0B3F8FEE7BB
:1030A0001068524B984202D100F0ACF8FEE7504B4A
:1030B000FF251C7801944A4C1D701E788DF8006025
:1030C0009DF8000000F010002070072005E09DF83A
:1030D0000050401E6D008DF800509DF800603506D0
:1030E000F5D4454215F1030F03D0A06000F08AF833
:1030F000FEE7000200F4E060A06001981870116A19
:1031000041F470011162106A40F07040106200F0EA
:10311000EDFA0021616000F049FB3648026842F098
:103120004042026000F032FB002076BD102080F3A8
:103130001188BFF34F8FBFF36F8F29494A68521C24
:10314000012A4A600AD12C490A68130606D080F386
:103150001188BFF34F8FBFF36F8FFEE77047204991
:10316000486838B9102080F31188BFF34F8FBFF340
:103170006F8FFEE7401E486008BF80F311887047DC
:1031800080B5102080F3118800F03EF8FFF78CF82E
:1031900018B14FF0805018490860002282F311885E
:1031A00001BD000010B5EFF30580102210280C4976
:1031B00009D3124B185C0C78A04204D282F3118818
:1031C00000F022F8FEE788680D490B6803F4E0631D
:1031D000984204D282F3118800F016F8FEE710BD81
:1031E0000000002000ED00E071C20F4170C20F41ED
:1031F00000E400E034EF00E004ED00E0F0E300E084
:103200000CED00E081F31188BFF34F8FBFF36F8F98
:1032100070470268531C036011707047034B0360D2
:1032200003F160000860802111607047A445002010
:1032300010B586B0DFF8F44300F0B6F9A068C0B16D
:10324000002204A9059205A8049203AA00F0BCFA82
:103250000522059800920499039A02900191002397
:103260000FF2D0310FF20910FEF772FC0028E06077
:1032700005D1102181F3118800F042F8FEE701200A
:1032800006B010BD2DE9FC4105460E46174698468E
:103290002C20FFF779FD04000BD00021434684F871
:1032A0002810089800903A4601943146284600F0CC
:1032B00003F82046BDE8F6812DE9F8430E0081466B
:1032C0001546984602D100F018F8FEE7099C94B123
:1032D000089F00F069F9C4F80090201DA661C4F8A9
:1032E0001C802762FFF756FE2DB194F8280040F0AD
:1032F000040084F82800BDE8F183102080F31188D1
:10330000BFF34F8FBFF36F8F7047F8B5044684B09B
:103310001E46002014B9FFF7F0FFFEE7DFF80C733C
:10332000BD68BDB106290091019202940CDAFFF745
:10333000F9F9022807BF0A9A002300230022B8687F
:10334000694600F016FB05E0002332466946284630
:1033500000F0A3FB05B0F0BD040007D1102080F3FE
:103360001188BFF34F8FBFF36F8FFEE7FFF7DEBE0D
:10337000F8B586B0AD4D2968086810B9012400265B
:1033800002E0C86800240668FEF7E8FE01A800F025
:10339000B3F80746019800283FD154BBB7422DD35C
:1033A000FEF7E2FE2868C168CC68201DFFF71BFE0F
:1033B00094F82800410717D5A16933463A462046BC
:1033C000891900F0D6F840B1002000230090324661
:1033D00000212046FFF799FF18B1216A204688474F
:1033E00025E0FFF78AFFFEE700F0FE0084F82800E2
:1033F000F3E7686801684C1EA441E40FA868224600
:10340000F11B00F0A1FDFEF7AFFE80B94FF0805038
:1034100087490860FFF774FF09E0FEF7A5FE06E0A4
:1034200094F8280081073BD42046FFF736FDA868B2
:10343000002202A900F0B9FB00289CD002980028C5
:1034400003D505990498039A904702980028EED472
:10345000049C606910B1201DFFF7C5FD01A800F0B4
:103460004BF802990929E2D8DFE801F02121211A5D
:10347000070621211A07DAE7D2E794F8282042F05C
:10348000010284F828200399A16131B10346024664
:103490000918204600F06DF8C9E7FFF72EFFFEE798
:1034A00094F8280000F0FE0084F82800BFE794F8A4
:1034B00028100246A06941F0010184F82810039900
:1034C0000B464118204600F054F80028AFD0216A7E
:1034D0002046884794F828004207A8D50021039A7F
:1034E0000091A069002382182046FFF70EFF0028F4
:1034F0009DD1FFF702FFFEE72DE9FC4106464B4D4B
:10350000FEF780FE0446286984420BD30021316017
:1035100020462C61BDE8F6817860391D3F6128683E
:10352000FFF748FD29680868F0B1C868C768D0F897
:103530000080381DFFF757FD396A3846884797F8ED
:1035400028004207EED5B86940448045E4D3002006
:1035500000230090424600213846FFF7D6FE00289F
:10356000E0D1FFF7CAFEFEE76868696028600121C4
:10357000CDE738B500248A4241602C4D006106D366
:10358000D21A83699A4206D2011D686807E09A42FE
:1035900003D2994201D3012403E0011D2868FFF7FB
:1035A00009FD204632BD00001CB5FFF7BFFD1F4CD2
:1035B000A068E0B904F11400FFF7DFFC04F1280073
:1035C000FFF7DBFC04F1140004F128010022206065
:1035D000616004F13C03009204F18C02102114207C
:1035E00000F037F9A06010B114A100F098FCBDE81C
:1035F0001340FFF7B4BD10B5FFF7AEFEE469FFF767
:10360000AEFD204610BD38B584B01C46039222465C
:103610000190064CA0686FF001050291002300950F
:10362000694600F03AFA05B030BD0000E4490020D8
:1036300004ED00E0546D722053766300546D7251B6
:10364000000000000020054908607047034800683A
:103650007047000002A000F09BBC0000A04F0020BB
:10366000646973636F76657220737461636B4F7600
:103670006572466C6F77202121210D0A0000000041
:103680005FEA000C11F8012B00F8012B12B111F8C0
:10369000012BF9E76046704700F1010310F8011BA8
:1036A00011B110F8011BFBE7C01A70470CB430B51C
:1036B00083B00A4606A902910446002501940095AC
:1036C00002AB01A9084878441E3000F078FC019A4A
:1036D000157000284EBF04460198041B204603B015
:1036E00030BC5DF80CFB00BF2BFBFFFF30B508487A
:1036F0000021016000228260064B1C684FF47A753D
:103700000721B4FBF5F56D1E4560016030BD00BFBB
:1037100010E000E03C000020EFF30980BFF36F8F62
:10372000264B1A681EF0100F08BF20ED108A20E902
:10373000F04F106009B44FF0100080F31188BFF310
:103740004F8FBFF36F8FFEF713FE4FF0000080F333
:10375000118809BC19680868B0E8F04F1EF0100F16
:1037600008BFB0EC108A80F30988BFF36F8F7047F1
:10377000124B19680868B0E8F04F80F30988BFF36E
:103780006F8F4FF0000080F3118870470C4800687D
:10379000006880F308884FF0000080F3148862B658
:1037A00061B6BFF34F8FBFF36F8F00DFDFF81400F8
:1037B000016841F47001016070470000944C0020E2
:1037C00008ED00E088ED00E0044B036003F16000C9
:1037D00008604FF480711160704700BFE43C002026
:1037E00070B504000D4602D100F0A4F8FEE7FFF723
:1037F0009DFC206CE16B2268002600FB01F3491E52
:1038000048434FF0FF311344A3601044A663E060C7
:1038100004F1440062600170417075B92069A0B183
:1038200004F11000FEF72BFE78B14FF08050DFF866
:103830001017086000F0E8FA07E004F11000FFF745
:103840009CFB04F12400FFF798FBFFF788FC0120A4
:1038500070BD7CB51C46102320B983F3118800F09D
:10386000D3FAFEE724B983F3118800F0CDFAFEE71E
:103870002AB129B983F3118800F0C6FAFEE779B9B5
:1038800050250095009E502E0FD1009B34B1069B11
:10389000012584F84650009400F028F8204676BDB3
:1038A00083F3118800F0B0FAFEE783F3118800F08B
:1038B000ABFAFEE7F8B505000E46174602D100F058
:1038C00039F8FEE706FB05F05030FFF75DFA04001B
:1038D0000AD000213B4684F8461004F150020094BF
:1038E0003146284600F002F82046F2BD38B51C46A5
:1038F000049D00290CBF2D602A60E86328462964D6
:103900000121FFF76DFF85F84C4031BD30B100213A
:103910000022816000230260C3602AE070470246F3
:10392000002110B50120FFF7C5FF0446FFF7EEFFA9
:10393000204610BD102080F31188BFF34F8FBFF3D6
:103940006F8F704710B50C46102120B981F3118894
:1039500000F05AFAFEE7A04204D281F3118800F089
:1039600053FAFEE702220021FFF7A4FF00B18463AF
:1039700010BD2DE9F64782B004461E46102714B943
:1039800000F040FAFEE75FEA010A01D1206C60B95D
:10399000022E02D1E06B01280AD1FEF7C3FE50B916
:1039A000039840B100F02EFAFEE700F02BFAFEE794
:1039B00000F028FAFEE72746002400F075F92DE014
:1039C000039800284AD00CB900F018FAFFF7C7FB9B
:1039D000FEF7C4FBFFF7AAFB07F1440000F004FA6E
:1039E00004BF0022027000F004FA04BF00224270FB
:1039F000FFF7B5FB00F04DF8002844D1FFF796FB28
:103A0000B86BF96B884214BF00250125FFF7A7FBAF
:103A100045BB384600F044FAFEF7A6FBFFF786FBED
:103A2000B86BF96B884201D3022EC9D13246514698
:103A3000384600F0EEF9796A29B107F12400FEF763
:103A40001EFD08B904E018B1C8F8009000F0DCF9D8
:103A5000FFF785FB012004B0BDE8F087FFF77FFB8F
:103A60000020F8E7039907F11000FEF7C0FC384684
:103A700000F016FAFEF778FB0028CFD1C8F80090C6
:103A800000F0C2F9CAE7384600F00AFAFEF76CFB0C
:103A9000E6E703A96846FEF754BD2DE9F84304465E
:103AA000884615461E46102714B900F0ABF9FEE70C
:103AB000B8F1000F01D1206C28BB022E02D1E06BBF
:103AC000012823D1FFF76EFBEFF3118900F063F8B3
:103AD00001D3022E22D194F94570A06B32464146A3
:103AE000204600F096F917F1010F12D1606A98B1E3
:103AF00004F12400FEF7C3FC002818BF002D0BD0F2
:103B00000120286008E000F07DF9FEE700F07AF976
:103B1000FEE77F1C84F84570012000E0002089F357
:103B20001188BDE8F283F8B504460D46102714B994
:103B300000F068F9FEE7206C10B100F063F9FEE7D1
:103B4000216809B9A068D0B9FFF72CFBEFF3118603
:103B500000F021F81BD294F94510401CA06311F12C
:103B6000010F0FD1606A80B104F12400FEF787FCD9
:103B7000002818BF002D08D00120286005E000F0C3
:103B800041F9FEE7491C84F84510012000E00020BF
:103B900086F31188F2BD87F31188BFF34F8FBFF30F
:103BA0006F8FA06BE16B884270472DE9F7430646A3
:103BB0000F460024102526B985F3118800F024F95A
:103BC000FEE70FB9306C48B9FEF7ACFD78B9029842
:103BD00068B185F3118800F017F9FEE785F31188C5
:103BE00000F012F9FEE700F0FDF8FEF7BDFAFFF76E
:103BF0009DFAB56B00F058F8002D31D102980028DD
:103C000044D00CB900F0FAF8FFF7A9FAFEF7A6FACB
:103C1000FFF78CFA06F14400415711F1010F04BF80
:103C20000022027000F0E5F804BF00224270FFF7A6
:103C300096FA02A9FFF72EFF002830462AD100F09D
:103C400063F90028CFD000F0C8F800F0CBF8FEF7F9
:103C50008BFA0028CBD1C8F8009000F0D5F8C6E761
:103C60003946304600F009F96D1EB563306940B140
:103C700006F11000FEF703FC18B1C8F8009000F040
:103C8000C3F8FFF76CFA0120BDE8FE83FFF767FA7F
:103C90000020F9E700F004F9FEF766FA304600F07C
:103CA00033F90028A3D0F3E7DFF894824FF080596E
:103CB00070472DE9F24382B0064600240025102704
:103CC00016B900F09FF8FEE7306C10B100F09AF8DA
:103CD000FEE7FEF727FD40B9029830B100F092F8F8
:103CE000FEE700F07FF8FEF73FFAFFF71FFAB06B30
:103CF000FFF7DAFF00283AD1029800284DD00CB91E
:103D000000F07CF8FFF72BFAFEF728FAFFF70EFA1F
:103D100006F1440000F068F804BF0022027000F0D1
:103D200068F804BF00224270FFF719FA02A9FFF7F2
:103D3000B1FE0028304634D100F0E6F80028D0D09B
:103D4000306838B9FFF7F2F9B068FEF7F7FC0546BE
:103D5000FFF705FA00F041F800F044F8FEF704FA26
:103D60000028C2D1C8F8009000F04EF8BDE7401E10
:103D7000B063306810B9FEF736FEB060306940B10C
:103D800006F11000FEF77BFB18B1C8F8009000F0B8
:103D90003BF8FFF7E4F901201DE0CDB100F032F867
:103DA000FEE700F07DF8FEF7DFF9304600F0ACF8F2
:103DB00000289AD075B1FFF7B9F9706A00281DBFC5
:103DC000316B0968C1F138010021B068FEF71CFDB4
:103DD000FFF7C5F90020BDE8FE83029906F1240033
:103DE000FEF705BB30465BE090F9001011F1010FC2
:103DF000704790F9011011F1010F704768460124D6
:103E0000FEF798BB87F31188BFF34F8FBFF36F8F17
:103E10007047F8B506461546B46B326C002742B9B8
:103E2000316831BBB068FEF7C2FC00210746B160C3
:103E30001FE065B9706801F025F8B2687068316CF0
:103E400008449042706014D33068706011E0F068EC
:103E500001F018F8306CF16840420144F1603268BA
:103E6000914202D2B3681844F060022D01D104B12E
:103E7000641E641C3846B463F2BD38B5026C0B4650
:103E80006AB1C16884681144C160A14224BF056859
:103E9000C560C1681846BDE8384000F0F3BF31BDC9
:103EA000F8B5054605F14404FFF740F994F90160BF
:103EB00007E005F12400FEF7E2FA08B1FEF770FB17
:103EC000761E70B2012802DB686A0028F1D14FF03B
:103ED000FF366670FFF743F9FFF728F994F9007091
:103EE00007E005F11000FEF7CAFA08B1FEF758FB2B
:103EF0007F1E78B2012802DB28690028F1D12670E4
:103F0000BDE8F140FFF72BB910B50446FFF70EF9F5
:103F1000A06B441EA441FFF722F9E00F10BD10B5BD
:103F20000023084C54F833201AB15B1C082BF9D33A
:103F300010BD44F8331004EBC301486010BD00000D
:103F400004ED00E024510020F8B504460D46164665
:103F500004F13807FFF7EAF897F90C0010F1010FA8
:103F600004BF0021397397F90D0010F1010F04BF50
:103F700000217973FFF7F3F8386828B932462946EB
:103F800004F12400FEF761FA2046BDE8F24087E71D
:103F90000EB4C0B5024603A800210190009101AB08
:103FA0000121044878440C3000F009F806BC5DF8A3
:103FB00010FB00BF6D7F000040F0200070472DE92E
:103FC000F14FB0B0924604910DF142013A9A2B9113
:103FD00099464A7000200AE01AF8011B0498309AAA
:103FE00090470028049000F041860D98401C0D90E9
:103FF0009AF8000050B12528EED100210022079147
:10400000089209910A920B910C9204E00D9800F02D
:104010002FBE41F001011AF8010F2028F9D0232802
:104020000CD02B2804D02D2805D0302809D00BE047
:1040300041F00201EFE741F00401ECE741F0080133
:10404000E9E741F01001E6E72A280FD1D9F800206E
:1040500052F8040BC9F8002000280F9003D5404205
:104060000F9041F004010AF1010A14E00F92DFF809
:10407000083C0AE00F98984205DA00EB800402EB56
:104080004402303A0F920AF1010A9AF80020A2F194
:1040900030000A28EED39AF800002E2803D04FF003
:1040A000FF320E9229E01AF8010F2A2809D1D9F817
:1040B000000050F8042BC9F800000E920AF1010A22
:1040C0001BE02D280CBF0AF1010A002000220E92ED
:1040D000DFF8A44B0BE040B90E9AA24205DA02EBDE
:1040E000820503EB4503303B0E930AF1010A9AF86F
:1040F0000030A3F130020A2AEDD3ADF840100FF6DC
:104100007C309AF8001000F0C9FE08B11AF8010BD3
:104110008DF842009DF84200682805D19AF8000009
:1041200068280CD1622106E06C2804BF9AF80000D0
:104130006C2804D171218DF842100AF1010A12A8ED
:1041400006901AF801BBBBF125012CD01C3900F0F8
:104150009481091F022940F29081133900F0B8843C
:10416000093900F08A81891E00F04D85491E00F052
:10417000FA84491E022940F28081091F00F0F3846D
:10418000491F00F0EF80491E00F0A284491E00F094
:10419000D780C91E0CD0891E00F09A84C91E00F079
:1041A000978400F03BBD01230793252100F033BD28
:1041B000D9F8000050F8044BC9F80000002C059411
:1041C00040F0AB802B994878002800F0A1804FF098
:1041D000FF340FF6B02000F06DFE241A40F0468543
:1041E00000F028BD01236A4602A9304600F00EFE09
:1041F000002840F03B85641EF4D13096079C12AF36
:1042000074B1309E17F8011B0498B0470028049041
:1042100000F02C850D98401C641E0D90F2D1309654
:104220000A9C3021002C8DF800100CDD309E0123FB
:104230006A4602A9304600F0E9FD002840F01685E4
:10424000641EF4D13096059F089C74B1309E17F817
:10425000011B0498B0470028049000F007850D98D2
:10426000401C641E0D90F2D130960B9C3021002C26
:104270008DF800100CDD309E01236A4602A93046FD
:1042800000F0C4FD002840F0F184641EF4D13096A3
:1042900005980899099C471874B1309E17F8011BBE
:1042A0000498B0470028049000F0E0840D98401C6A
:1042B000641E0D90F2D130960C9C3021002C8DF8AC
:1042C00000100CDD309E01236A4602A9304600F042
:1042D0009DFD002840F0CA84641EF4D130969DF8FC
:1042E000400041077FF584AE2020002D8DF80000AE
:1042F0007FF77EAE309C01236A4602A9204600F07B
:1043000085FD002840F0B2846D1EF4D130946FE634
:104310000FF65830059000F08DBC0E9D002D04D591
:104320002046FFF7B9F9044607E02A46204600F088
:10433000E1FD002814BF041B2C46089400F07ABC51
:10434000D9F8001051F8040BC9F8001020F000044F
:10435000002121F0FF35CDE9024512AB059378210C
:1043600000F04DBC2B99487820B14FF0FF340FF688
:10437000CC2030E79DF84200622860D0682817D032
:104380006A283FD06C2806D0712847D074282CD0DA
:104390007A281DD062E0D9F8001051F8040BC9F852
:1043A0000010002866D14FF0FF340FF6A82012E766
:1043B000D9F8001051F8040BC9F8001020B94FF0DB
:1043C000FF340FF6902006E70D99018000F032BC13
:1043D000D9F8001051F8040BC9F80010002849D191
:1043E0004FF0FF340FF66C20F5E6D9F8001051F8C5
:1043F000040BC9F8001000283CD14FF0FF340FF631
:104400005420E8E6D9F8001051F8040BC9F8001060
:1044100080B94FF0FF340FF63C20DCE6D9F80010ED
:1044200051F8040BC9F8001020B94FF0FF340FF613
:104430002420D0E60D9AD317C0E90023FAE3D9F877
:10444000001051F8040BC9F8001020B94FF0FF34E8
:104450000FF60020BFE60D990170EBE3D9F80010CC
:1044600051F8040BC9F8001020B94FF0FF340FF6D3
:10447000E410B0E60D990160DCE39DF842004C28A1
:1044800007BFD9F80010CA1DD9F80000C21D22F0DC
:104490000702C9F80020D2E900010832C9F800205B
:1044A000CDE90201C80F02D007982D210AE0BDF81E
:1044B0004000810702D507982B2103E0C00705D5EE
:1044C0000798202112AA1154401C079012A807999E
:1044D0004BF0200300EB010CDDE90201CDE92C01DA
:1044E000612BCDF814C021AC0BD00E98002848BF2A
:1044F000062105D404BF4BF02000672801D101211B
:104500000E91DDE902014F0047EAD0777E15FF17D3
:104510004FF0FF32974208BF964210D1090341EA9B
:1045200010510003002908BF002808D0ABF1610535
:1045300003211A2D089118D30FF6381110E0DDE988
:1045400002014A00521512F1010F11D108030FD1D7
:10455000ABF1610503211A2D08911FD30FF61C1131
:104560000322604600F08EFC64E30FF60411F7E7C7
:10457000DDE902016A4600F0E9FCCDE902014BF0F9
:104580002000612811D1059830210170821C05920C
:10459000BBF1610F0CBF7821582102E00FF6D80162
:1045A000DEE741700798801C0790DDE9020120F0EA
:1045B000000231F0004308BF002A02D10026002586
:1045C00042E14BF02008B8F1610F40F092800E9864
:1045D000002847BF21210191401C0190019FDDE986
:1045E0002C017F1C00220023DDE9024500F0E6FCDF
:1045F00038BF85F0004500998DF88420091F002FF1
:1046000000910DF1850632DD204629460022002367
:1046100000F0EEFC2BD21C2200F004FD04460D46F7
:1046200000F082FDFF1F002F804609DD00F083FDB2
:1046300002460B462046294600F084FD04460D46FE
:10464000F01D0721B8F1000F0CDD491E5EBF08F018
:104650000F0200F8012D4FEA2818F3D502E00022DE
:1046600000F8012D491EFAD5C61D002FCCDC0DF136
:104670008500361A01980DF185048642D8BF304670
:1046800000282FD4B04206DA0DF185010A5C082A11
:10469000A8BF0F2100DA0021024621AB134400E03D
:1046A000401E13F80159521E8D42F9D00F2904D132
:1046B0000DF185018B5C5B1C8B54002A04D500999D
:1046C000091D21AC401C0091411E0BD462181378C7
:1046D0003033DDB23A2DA4BF5B443A3B491E02F8A9
:1046E0000139F4D50E99002940F1AC80421E0E929A
:1046F000A8E00099DFF8042747F29750414391FB67
:10470000F2F20092DDE92C45C2F10702002A25F001
:10471000004504DD2046294600F04CFB0BE05242E8
:104720000020DFF8DC1600F045FB02460B46204671
:10473000294600F010FD04460D46B8F1660F06BF8D
:10474000009F0A3706270E983F18142FC8BF14275A
:1047500030208DF884000DF18506002F34DD2046D1
:10476000294600F001FD01460A4606F1080304202F
:104770000A26B2FBF6F606EB860EA2EB4E023032AC
:1047800003F8012C0A22B6FBF2F202EB820EA6EB32
:104790004E063036401E03F8026DE9D1083F002F67
:1047A00003F10806D9DD084600F0E5FC02460B4699
:1047B0002046294600F0C6FC0022DFF8483600F00B
:1047C000E1FC04460D46CAE70DF18500361A0DF1ED
:1047D000850404E00098401E761E0090641C20783A
:1047E0003028F7D0B8F1660F02D10098401C04E0E1
:1047F000B8F1650F0CBF012000200E9940188642C9
:10480000B8BF701E00281DD4B04204DA215C3429E0
:10481000C8BF392100DC30210246631E9D1800E02C
:10482000401E15F80169521E8E42F9D0392902D175
:10483000A15C491CA154002A04D50099491C1C46BE
:10484000401C00910646009D00F0A6FC406A0778D7
:10485000DDF8388030B2002802DC01260FF2206437
:104860004BF02000662808BF6D1C16D0672845D184
:1048700028B210F1040F47DB404545DA9DF84000AF
:104880006D1C010703D430B24045D8BF804628B222
:10489000B8EB000848BF4FF000080FFA85FBBBF1EA
:1048A000000F00F3B4800898411C0891302205994C
:1048B0000A54B8F1000F03DC9DF84000010704D54D
:1048C0000898411C089105990F5418EB0B0FB8BFBD
:1048D000C8F100052DB26842454432B20B909542B2
:1048E000B8BF2E46059B089836B209963246214637
:1048F000184400F0C7FAAD1B0C95D2E0BBF1610F74
:1049000017D14FF0700B19E030B2404504DA9DF832
:1049100040100A0758BF8046B8F1010848BF4FF061
:104920000008BBF1670F14BF4FF0450B4FF0650B4C
:1049300004E0BBF1410F08BF4FF0500B0898411C39
:104940000891B8F1000F059914F8012B0A5403DC03
:104950009DF8400001071AD50898411C0891B8F14C
:10496000000F05990F5412DD761E30B28045B8BF96
:1049700046460598089B32B22146184400F082FA58
:10498000089936B271180891A8EB06000B900598AB
:104990000899084429B2002980F800B003D42B22DA
:1049A0004270821C04E02D2242700D46821C6D4232
:1049B00000212CAB28460AE004460A2094FBF0F0C4
:1049C00000EB8005A4EB450403F8014B491C00B241
:1049D0000028F1DC012906DC4BF02000652804BF2B
:1049E000302002F8010B00292CAB08D1302002F84E
:1049F000010B06E0491E585C303002F8010B00291B
:104A0000F8DC059908980844121A099249E030B276
:104A100029B288421CDA0598089B32B22146184414
:104A200000F030FA089936B271180891ABEB060025
:104A3000B8F1000F0B9003DC9DF84000020704D58D
:104A4000059847540999491C0991CDF8308028E010
:104A50000598089B2AB22146184400F013FA0898DA
:104A6000761B5844B8F1000F089003DC9DF8401005
:104A70000A0703D5411C089105990F5430B28045AF
:104A8000B8BF46460598089B32B204EB0B011844A8
:104A900000F0F8F9089836B230180890A8EB060034
:104AA0000B909DF8400000F01400102840F0C280E8
:104AB000079A08980B99821809988A1882180C98F6
:104AC0000F998018884280F2B580081A0A90B1E0E8
:104AD0009DF84200622808D068280ED06A2814D0B9
:104AE0006C281FD0712810D01CE0D9F8001051F8A4
:104AF000040BC9F80010C0B21AE0D9F8001051F840
:104B0000040BC9F8001080B212E0D9F80000C21DF1
:104B100022F00702C9F80020D2E900010832C9F8E2
:104B2000002006E0D9F8001051F8040BC9F8001075
:104B30000021CDE902019DF8400001075AD5DDE9C9
:104B40000223002B08BF002A54D04BF02000782805
:104B500050D1079812A930220A54401C431C0793D5
:104B600001F800B046E09DF84200622808D06828AD
:104B70000ED06A2814D06C281FD0712810D01CE0E9
:104B8000D9F8001051F8040BC9F8001040B21AE02F
:104B9000D9F8001051F8040BC9F8001000B212E067
:104BA000D9F80000C21D22F00702C9F80020D2E99E
:104BB00000010832C9F8002006E0D9F8001051F8C9
:104BC000040BC9F80010C117CDE90201002902D574
:104BD00007982D210AE0BDF84000810702D507980B
:104BE0002B2103E0C00705D50798202112AA1154F4
:104BF000401C079012A8079901440591594602A844
:104C000000F04EF816E001200790D9F8000050F8A7
:104C1000041BC9F800008DF848100BE00121252283
:104C2000BBF1000F07918DF8482003D002220792B4
:104C30008DF849B00F9D07990A986D1A08992D1A99
:104C40000B986D1A09992D1A0C986D1A9DF8401041
:104C50002D1A48073FF5D2AA2021002D8DF800100B
:104C60007FF7CCAA309E2C46FFF7BCBA4FF0FF303E
:104C700031B0BDE8F08F0000CBCCCC0C686A6C740E
:104C80007A4C00007072696E74665F733A206261DC
:104C90006420257320617267756D656E7400000075
:104CA0002DE9FC4707468A463C6950466F2808BFF5
:104CB000082505D0FFF780F9782814BF0A251025AC
:104CC000D7E900013C2680468946BAF1640F18BF37
:104CD000BAF1690F05D1002903D5D8F1000869EBB5
:104CE0004909B9F1000F08BFB8F1000F0CD1386BBA
:104CF00050B9082D3AD197F83800010736D530223F
:104D00003B2684F83B2031E08DF800A04046494620
:104D10002A46EB1700F044FA3032D0B2761E3A2819
:104D200001960EDAA255404649462A46EB1700F096
:104D300037FA80465FEA010908BFB8F1000F05D1D4
:104D400008E09DF800001218513AEBE7F868A11945
:104D50008842DBD3082D09D197F83800010705D523
:104D6000A05D302802D0761E3020A055C6F13C034D
:104D7000BB61A119F960386B834208DAC31A3B6240
:104D80004FF6EF70398F01403987BDE8F38700286F
:104D90000ED597F8380000F01400102808D17A6B6F
:104DA0007969386A521A121AD21A002AC8BF3A62AE
:104DB000BDE8F3872DE9D04306460F4614464FF071
:104DC0000008DFF8449012E0E00707D542464B4662
:104DD0003046394600F0D6F906460F464046494669
:104DE00042464B4600F0CEF9641080468946002CBE
:104DF000EAD130463946BDE8D0830000A0860100E4
:104E00000000F03F84D7974100002440F8B50546E4
:104E10000E4617461C4600205CB117F8011BB0680F
:104E2000A847B06030B1F06A401CF0620020641EF8
:104E3000F3D1F2BD4FF0FF30F2BD00007072696E29
:104E400074665F733A20256E20646973616C6C6FC1
:104E5000776564007072696E74663A2062616420DE
:104E6000256E20617267756D656E7400000000002C
:104E70006E616E004E414E00696E6600494E4600FE
:104E800030002E004AB1000011F8013B521E00F81C
:104E9000013B1CBF11F8013BF8E77047C9B202782B
:104EA0008A421AB11CBF10F8012FF9E718BF002081
:104EB0007047000080B500B906A005490B681BB11A
:104EC00022220021984701E000F0EDF9222002BDE6
:104ED00084510020636F6E73747261696E74206810
:104EE000616E646C65723A20626164206D657373F3
:104EF00061676500C9B2830706D0521E22D310F83D
:104F0000013B9942F7D11FE0083A13D302F10402A2
:104F100041EA012141EA014150F8043B121F21BF3F
:104F20004B40A3F1013C2CEA030C1CF0803FF3D072
:104F3000C9B2001F083210F8013B521E28BF91EA87
:104F4000030FF8D818BF0120401E704710B5144653
:104F500000F002F8226010BDC1F30A5343B14A00C9
:104F600012F5001F28D2A3F2FE32A1EB02517047C6
:104F700050EA410C20D001F0004C31EA0C01B1FAAA
:104F800081F204BFB0FA80F3D2180B3AB2F12003D9
:104F90002CBF00FA03F1914041EA0C013EBFC2F17F
:104FA000200C20FA0CF319439040524240F2FD339A
:104FB000D21A01EB035170470022704741EA030CFB
:104FC00050EA4C0C52EA0C0C4FF4001C09D307D0E9
:104FD0001CEB410F9CBF1CEB430F8B4208BF82426E
:104FE00070471CEB430FFBD8994208BF90427047B3
:104FF00041EA030C50EA4C0C52EA0C0C4FF4001C32
:1050000009D307D01CEB410F9CBF1CEB430F994207
:1050100008BF904270471CEB410FFBD88B4208BF82
:105020008242704700B541EC100B104600F004F8C6
:1050300051EC100B00BD00BF020030EE101B40F21F
:10504000FF7C37D41CEA115313D063456BD09B18F7
:10505000634504D201EB025120EE101B704701F0B2
:10506000004141EA0C51002041EC100BAFF30080ED
:10507000704710EE100B50EA410054D0B2F57F7F1C
:1050800008D202EB5C010905002041EC110B20EE77
:10509000010B70474FF0FE41002341EC113B20EE25
:1050A000010BB2F57E7230EE101B4FEA410342EB6A
:1050B0005353CDE752421CEA115316D0634532D008
:1050C0009A4204D2A1EB025120EE101B70475B1EE6
:1050D000D21AA1EB035120EE101B372A0CD300206B
:1050E00001F0004141EC100BC0E710EE100B50EA4C
:1050F000410018D0372AF2D2C2EB5C021105002021
:1051000041EC110BF1EE100A20F01F0121F4F851CF
:10511000E1EE101A20EE010BF1EE101AE1EE100A8A
:1051200011F0080FA2D1704741EC100BBDEEC00B7F
:1051300010EE100A704700EE100AB8EEC00B51ECEA
:10514000100B704741EC100B43EC112B30EE410B70
:1051500051EC100B704741EC100B43EC112B80EE1F
:10516000010B51EC100B704741EC100BBCEEC00B67
:1051700010EE100A704700EE100AB8EE400B51EC2A
:10518000100B704741EC100B43EC112B20EE010B80
:1051900051EC100B7047000000487047440000209D
:1051A000D3BBD9B1B2F5803F5BD2022A1ED98C465F
:1051B000B1FBF2F102FB11C31B0443EA1043B3FB42
:1051C000F2FC02FB1C3380B240EA0343B3FBF2F073
:1051D00002FB103240EA0C4000237047022A05D936
:1051E0008446B0FBF2F002FB10C270474AB105D111
:1051F00000F0010249085FEA3000704700220023F6
:10520000704700F053B80B000200002100207047E7
:10521000F7D3002200237047904271EB030CF2D3C6
:1052200070B5B1FA81F4B3FA83F52C1BA340C4F135
:10523000200532FA05F63343A2405FF00046E6400F
:1052400002E05B085FEA3202841A71EB030524BFB7
:10525000204629467641F4D302000B00300000219D
:1052600070BD70B5B1FA81F4B2FA82F5C4F12004D0
:105270006419B4F12006DAD3B2405FF00044F44080
:10528000002502E052085FEA3303C61A71EB020EF2
:1052900024BF3046714664416D41F3D302000B00D8
:1052A0002000290070BD012000F002B87047000006
:1052B00080B5AFF30080024A11001820ABBEFBE7B7
:1052C00026000200FEF797B92DE9F04FDFF8CC9BDE
:1052D000ADF5057D09F6E40209F274560792002146
:1052E000DFF8BC4B059609F2047309F214528DF8ED
:1052F0000810DFF8B06B0394DFF8AC7B21700FF679
:105300002428A160DFF8A45B6180DFF8A4AB0693DA
:105310000FF2BC3B049214E000210FF2BC30616438
:10532000FEF736FE07E01328F6D10FF2CC30FEF779
:105330002FFE00F0F1FF2069FCF71CFE1420FCF7A3
:1053400075FD606C01282BD14846FEF721FE09F15E
:105350004000FEF71DFE08A8FDF7A2FA08A958466E
:10536000FEF716FE09F17400FEF712FE08A8FDF71D
:10537000E7FA08A95846FEF70BFE01F011F8BAF853
:10538000000000F0C3F9AAF8000009F19C00CAF877
:105390000410CAF81820CAF82830FEF7F9FDCAE749
:1053A00002282AD109F1F000FEF7F2FD606918B178
:1053B000FCF7CEFC0020606128880146401C696033
:1053C00082B2401CAA6183B2401CAB62288009F5FE
:1053D0008C70FEF7DDFD09F5B470FEF7D9FDA06B0A
:1053E00000F0B1FC09F5D070FEF7D2FD00230222D7
:1053F0000021E069FDF774FB9DE703282AD109F538
:10540000EA70FEF7C5FD606960B904F1140102227B
:105410000191002300924FF4007241460FF2FD20EB
:10542000FCF7C7FB388800F071F9388009F5FE7089
:105430007960BA61BB62FEF7ABFD09F51370FEF748
:10544000A7FD09F52970FEF7A3FD00230222002124
:10545000A069CFE7042816D1FDF768FE09F53A7078
:10546000FEF796FD6069FCF785FD308800F04EF987
:10547000308009F545707160B261B362FEF788FD56
:10548000FDF76DFE57E7052808D109F55A70FEF7BC
:105490007FFDDFF8680B01F048F94CE70628FCD0E7
:1054A000072803D1E069FCF7BDFD44E7082825D1B2
:1054B000FCF754FEA06A012101F026FCC0074CBF96
:1054C00009F5647009F57270FEF762FDA06A0221A9
:1054D00001F01AFC80074CBF09F2044009F23C407D
:1054E000FEF756FDFCF740FE012806D14FF0805034
:1054F000DFF80C1B086000F0E0FC1CE79DF80810CA
:10550000491C09282CD1E06A8DF8081000230A22D2
:1055100002A9FEF72EFA012814BF09F58F6009F2DF
:10552000AC40FEF735FD09F59C60FEF731FD606982
:105530000521FCF7CEFC6069FCF7C0FC014604982D
:10554000FEF726FD09F23C50FEF722FD0598FEF716
:105550001FFD09F2BC50FEF71BFDDFF8A80A9AE711
:105560000A2836D1039800230A220178491C0170C9
:1055700003988168491C816003984188491C4180D7
:10558000206B03A9FEF7F5F9012814BF09F5BF60E8
:1055900009F22C60FEF7FCFC09F5CC60FEF7F8FC84
:1055A00060690121FCF795FC6069FCF787FC014606
:1055B0000498FEF7EDFC09F29460FEF7E9FC05980B
:1055C000FEF7E6FC09F2CC60FEF7E2FCDFF8380AF1
:1055D00061E70B280BD10698FEF7DAFC09F24C7054
:1055E000FEF7D6FC002301220121606A02E70C28A5
:1055F0000AD10698FEF7CCFC09F5F160FEF7C8FC6D
:10560000002301220221F0E70D2860D00E280DD1E1
:105610008DF808109DF8081009F2C470FEF7B8FC68
:10562000002303229DF80810206AE3E60F2815D115
:105630008DF808109DF8081009F61800FEF7A8FC70
:105640009DF80810206A00230422FDF749FA01287A
:1056500014BF09F6940009F5076061E6102818BF29
:10566000112834D012287FF45EAEFDF740FC0146CD
:105670000FF64C30FEF78CFC1020FDF785FB0390F5
:10568000FDF735FC014609F50C60FEF781FC039936
:10569000582059220870039B08209A600399002320
:1056A0000A224880606B03A9FEF763F901280CBF4A
:1056B0000FF648300FF62830FEF76AFC0398FDF726
:1056C000ECFBFDF714FC01460798FEF761FC32E69F
:1056D00025730D0A000000005573657242757474DD
:1056E0006F6E537461747573207265736574207482
:1056F0006F20300D0A0000004A756D70546F426FC4
:105700006F746C6F616465720D0A00000146401C85
:1057100082B2401C83B2401C704700001CB5FCF7ED
:1057200071FD0090DFF8E44800F00BF800F009F894
:10573000002001F075FB4FF47A716846FCF740FBDE
:10574000F2E7206BC82201A9FEF72FBA2DE9FC4130
:10575000DFF84C473222642104F1550001F01CFCB3
:105760001C220FF6B421DFF8A808DFF8A85801F0D2
:10577000AEFC0FF6C426DFF8A078DFF8A088E06A58
:105780004FF496720DF10101FEF70FFAE06A4FF443
:1057900096726946FEF709FA002002F0E3FB002248
:1057A0008021404602F023FD582002F053FD0122E3
:1057B0008021404602F01BFD082002F04BFD012035
:1057C00002F0D0FBFF23642204F15401384601F0BB
:1057D0002EFCA06B4FF49671FEF76BFA012804BF04
:1057E0003046FEF7D5FB4FF496710020FDF708F91F
:1057F00001001CBF2846FEF7CBFB4FF47A70FCF784
:1058000015FBBCE72DE9F84287B0DFF814089922B0
:1058100047F28873DFF80C1805908DF81020DFF838
:105820000848ADF812300FF648250691DFF8FC67FE
:105830000FF62429DFF868763CE0022818BF0A2812
:1058400035D14FF0FF310120FDF7DAF806F1F40011
:10585000FEF79EFB2BE00728EFD12846FEF798FBCA
:10586000204602F065FD0C2204A9204602F0A0FDAE
:10587000BDF812309DF810209DED060A0599B7EE8F
:10588000C00A8DED000B06F16400FEF781FB94ED7C
:10589000020A06F1AC00B7EEC00A8DED000B63887A
:1058A00022786168FEF774FBF869FCF763FB0A2055
:1058B000FCF7BCFA786C0628CDD100F0FBFA204644
:1058C00002F036FDAA2245F2AA538DF80820DFF82F
:1058D0006007ADF80A300122039002A9204602F0C9
:1058E00067FD02220DF10A0104F1200002F060FDC3
:1058F000042203A904F1400002F05AFD002080F3C5
:1059000011884846FEF744FBBDF80A209DF80810B0
:10591000039B3046FEF73CFB228C2178236C06F17A
:105920003400FEF735FBBFE738B5FCF76BFC00F53C
:105930007A74DFF800574FF4FA736A4600F063F8A0
:10594000012803D100992846FEF722FBFCF75AFCF8
:10595000201AB0F57A7F04F57A74ECD8FCF766FA71
:10596000E9E77CB5DFF8D046DFF8A0566426A86AE0
:10597000009601230122032101F047F900F0030002
:10598000032805D12046FEF703FB012001F048FA69
:10599000642301AA00F037F8012817D10198C10744
:1059A00004D5014604F13800FEF7F2FA01988107A8
:1059B00004D5014604F18000FEF7EAFA0198410798
:1059C00004D5014604F1C800FEF7E2FA686BC8226C
:1059D0006946FEF7EAF8012811D10098017804F52C
:1059E0008870FEF7D5FA0098816804F5A270FEF77A
:1059F000CFFA0098418804F5BA70FEF7C9FA012081
:105A0000FCF714FAB3E74FF0FF310020FDF728B898
:105A10002DE9F84F86B068460021002200230024BB
:105A200080E81E0002F0A3FD01214FF010538DF815
:105A3000001012218DF80810012103228DF8014079
:105A4000019368468DF809408DF80A108DF80B20F7
:105A5000ADF80C408DF80E108DF80F1002F09EFD81
:105A600001214FF040528DF801101021019268463B
:105A70008DF808108DF809408DF80A408DF80F4018
:105A800002F08CFD0221DFF8B4258DF80110684684
:105A9000019202F083FD0321DFF8A4258DF80110A7
:105AA0000E2100F045F904214FF060528DF80110ED
:105AB0000F2100F03DF9042002F063FDDFF884259A
:105AC000DFF88415106883030AD400F0F6F90C603F
:105AD00000F0F3F9106840F40030106000F0EDF9C8
