:020000040800F2
:100000006055002025AC0008F5A80008F7A80008F6
:10001000F9A80008FBA80008FDA8000800000000DF
:10002000000000000000000000000000C1460008C1
:10003000FFA8000800000000694600089DAB00080A
:1000400035AC000839AC00083DAC0008D38000088E
:1000500041AC000845AC000849AC00084DAC0008B4
:1000600051AC000855AC000859AC000801A90008C3
:1000700007A900080DA9000813A900085DAC000835
:1000800061AC000865AC000869AC00086DAC000804
:1000900071AC000875AC000879AC00087DAC0008B4
:1000A00081AC000885AC000889AC00088DAC000864
:1000B00091AC00086590000895AC000899AC000868
:1000C0009DAC0008A1AC0008A5AC0008A9AC0008D4
:1000D000ADAC0008B1AC0008B5AC0008B9AC000884
:1000E00065A90008CD80000800000000BDAC000834
:1000F000C1AC0008C5AC0008C9AC0008CDAC000814
:10010000D1AC0008D5AC0008D9AC0008DDAC0008C3
:10011000E1AC0008E5AC000819A90008E9AC00084A
:10012000EDAC0008F1AC0008F5AC0008F9AC000833
:10013000FDAC000801AD000805AD000809AD0008E0
:1001400000000000000000000000000000000000AF
:100150000DAD000811AD000815AD00081FA900087D
:1001600019AD00081DAD000821AD000825AD00083F
:1001700029AD00082DAD000831AD000835AD0008EF
:1001800039AD00083DAD000825A9000841AD0008C3
:1001900045AD000849AD00084DAD000851AD00085F
:1001A00055AD000859AD00085DAD000861AD00080F
:1001B00065AD000869AD00086DAD000871AD0008BF
:1001C00075AD000879AD00087DAD000881AD00086F
:1001D00085AD000889AD00088DAD000891AD00081F
:1001E00095AD000899AD00089DAD0008A1AD0008CF
:1001F000A5AD0008A9AD0008ADAD0008B1AD00087F
:10020000B5AD0008B9AD0008BDAD0008C1AD00082E
:100210002BA9000831A9000837A90008C5AD0008BE
:10022000C9AD0008CDAD0008D1AD00080000000048
:10023000D5AD0008D9AD000800000000DDAD000814
:10024000E1AD0008E5AD0008E9AD0008EDAD00083E
:10025000F1AD0008F5AD0008F9AD0008FDAD0008EE
:1002600001AE000805AE000809AE00080DAE00089A
:1002700011AE000815AE000819AE0008000000001D
:100280001DAE000821AE000825AE000800000000E9
:100290000000000029AE00082DE9F84F044601F0E7
:1002A00051FC002C00F030812168DFF870B604F1B9
:1002B0003405DFF86C66DFF86C76DFF86C86DFF803
:1002C0006C96DFF86CA6594518BF51452AD04945B0
:1002D00018BF414526D0B94218BFB14222D001F023
:1002E00049FA1CBFDFF84C3699421BD001F03EFAA8
:1002F0001CBFDFF84426914214D000F049FE1CBF19
:10030000DFF8382691420DD001F028FA1CBFDFF843
:100310003036994206D001F01DFA1CBFDFF82426C2
:10032000914245D1022300226B7059452A7018BFB3
:1003300051452AD0494518BF414526D0B94218BF7A
:10034000B14222D001F016FA1CBFDFF8E83599421D
:100350001BD001F00BFA1CBFDFF8DC25914214D052
:1003600000F016FE1CBFDFF8D42591420DD001F03D
:10037000F5F91CBFDFF8C835994206D001F0EAF95B
:100380001CBFDFF8C025914242D10B688E465B0846
:100390005B00CEF80030009023681868C1073DD597
:1003A00001F0D0FB009A801A0628F5D32020A8E09F
:1003B000DFF8940581421CBFDFF89025914218D0E8
:1003C000DFF88C3599421CBFDFF88805814210D0D8
:1003D000DFF8842591421CBFDFF88035994208D0B0
:1003E000DFF87C0581421CBFDFF81029914240F004
:1003F0008780022100206970287023681B68A0682C
:1004000040286FF3101340F0818043F0100381E027
:100410000A680B46520852001A60BCE7D3F800C0C5
:10042000A268DFF84005E16800EA0C001043626949
:10043000014320690843A1691043626A0143E069EE
:100440000843216A0143042A03D1E06A0843216B6F
:100450000143DFF81425D2F800C04FEA1C40000425
:10046000B0F1005F11D36068A0F12902062A24BF11
:10047000A0F13F02042A06D3A0F14702022A24BFBA
:100480004F38042801D241F4801119602268536961
:10049000606ADB0840EAC30304280ED1D4F828E0E0
:1004A000E06A4EEA030340B1A16969B9BEF1000FE9
:1004B00018BFBEF1020F1CD011D35361204601F0CA
:1004C00033FA00F0C4F845E0B1F5005F0BD1BEF19E
:1004D000030FF2D8DFE80EF00F0D0F03EDE7B0F1D8
:1004E000C07FEAD107E0BEF1020F04D9BEF10301DB
:1004F000E3D1C001E1D540210122296201209BE026
:100500004020286203216970012096E0802808BFFE
:1005100043F48043E168206962694FF0140C08439A
:10052000A1691043226A0143E0690843216843EA54
:10053000D003DFF8380443EA12130B602368C318B2
:10054000B3FBFCFC4FEA8C00A862204601F0ECF9FA
:1005500000F075F82068584518BF50454CD0484504
:1005600018BF404548D0B84218BFB04244D0DFF869
:10057000001488421CBFDFF8BC2390423CD0DFF857
:10058000F43398421CBFDFF8B013884234D000F037
:10059000B7FB1CBFDFF8A43398422DD000F0B8F9A8
:1005A0001CBFDFF89C23904226D000F0ADF91CBFA1
:1005B000DFF8901388421FD0DFF88C2390421CBFD5
:1005C000DFF88833984217D0DFF8841388421CBFC5
:1005D000DFF8802390420FD0DFF87C3398421CBFB5
:1005E000DFF87813884207D0DFF8742390421CBFED
:1005F000DFF8083798421BD1204601F0EBF9A068DC
:10060000802804BF00216160E96A20790860286BB6
:100610006A6B4260606838B1092805D2204601F053
:1006200027FA00F01CF803E00021A963E9632964BC
:1006300000210122296200206A70BDE8F28F95F83E
:100640002820012102F01F0291404160704795F877
:1006500028203F2102F01F02914081607047A96B62
:1006600000200860E86B2A6C426070472DE9F84F63
:1006700004004FF0000B08BF012005D004F1340640
:100680003078012808BF022000F02F810127377041
:100690007078012840F022814FF0020C002786F884
:1006A00001C0DFF878A2376220689F4F00F01FFB7F
:1006B00018BF48452AD0404518BFB84226D0994DAA
:1006C000A8421CBF964DA84220D0A94DA8421CBFED
:1006D000984DA8421AD0A74DA8421CBF964DA842DB
:1006E00014D0DFF83456A8421CBF944DA8420DD058
:1006F000DFF82856A8421CBF914DA84206D0DFF86B
:100700002056A8421CBF8F4DA8420AD12068D0F8BD
:1007100000C04FEA5C054FEA450C8646CEF800C0A3
:1007200006E02568286840084000AC46CCF8000088
:10073000204601F025F82068504518BF484528D0CC
:10074000404518BFB84224D0764988421CBF744A3D
:1007500090421ED000F0C7FA1CBF7649884218D0DC
:1007600000F0D5FA1CBF744B984212D0DFF8A815E0
:1007700088421CBF714A90420BD000F0B0FA1CBFF7
:100780006F49884205D000F0BEFA1CBF6D4B9842FD
:100790000DD121680B200A6860F344020B461A60F1
:1007A000F06890B12068016841F008010CE0216810
:1007B00005200A6860F343020B461A60F06820B116
:1007C0002068016841F00401016020686949594AC4
:1007D000674BDFF84CC1DFF84CE1504518BF484586
:1007E0003ED0404518BFB8423AD0704518BF60456A
:1007F00036D0984218BF904232D088421CBF4E4D2E
:10080000A8422DD0DFF81055A8421CBF4B4DA8427E
:1008100026D0DFF80855A8421CBF494DA8421FD07A
:10082000DFF8FC54A8421CBF464DA84218D0464DE4
:10083000A8421CBF454DA84212D0454DA8421CBF3E
:10084000444DA8420CD0444DA8421CBF434DA84281
:1008500006D0434DA8421CBFDFF8A054A8420FD1D8
:10086000F06A0568ED0303D5056845F480750560F9
:10087000B06B28B105462E46286840F48070306081
:100880002068504518BF484522D0404518BFB8429F
:100890001ED0704518BF60451AD0984218BF9042CC
:1008A00016D088421CBF2449884211D000F028FA93
:1008B0001CBF224B98420BD000F02AF81CBF204AE4
:1008C000904205D000F020F81CBF1E49884202D19A
:1008D00000F00DF808E000F010F805E04FF40063B8
:1008E000336286F800B0BB465846BDE8F28F026816
:1008F000034642F001021A60704701460A46086842
:1009000040F0010010607047DFF8143498427047DF
:10091000DFF8081488427047000000001000024011
:10092000880002407000024058000240400002402F
:1009300028000240B8000240280402405804024047
:1009400088040240B8040240085402581C5402585B
:100950003054025844540258585402586C540258A7
:10096000805402583F8010FE0010005CF8ABFDA7D9
:10097000A0000240100402402DE9F84F054601F0A6
:10098000E1F8002D044600F0F38005F1340670789C
:10099000022802D080213162E8E02868DFF8F8A55B
:1009A000DFF8F8B500F0A3F918BF48452FD040454F
:1009B00018BF58452BD0DFF8E81588421CBFDFF878
:1009C000E425904223D000F08EF91CBFDFF8D81543
:1009D00088421CD000F09BF91CBFDFF8D03598424C
:1009E00015D0DFF8341388421CBFDFF8C4259042CD
:1009F0000DD000F074F91CBFDFF8B815884206D09E
:100A000000F081F91CBFDFF8B03598420AD10168C7
:100A1000024621F01E0111602868436923F080031B
:100A2000436104E00168024621F00E01116028686C
:100A30002F68504518BF48454ED0404518BF58450F
:100A40004AD0DFF85C1588421CBFDFF85825904279
:100A500042D000F048F91CBFDFF84C1588423BD06B
:100A600000F055F91CBFDFF84435984234D0AA494C
:100A700088421CBFDFF8382590422DD000F02FF9B6
:100A80001CBFDFF83015884226D000F03CF91CBFAF
:100A9000DFF8243598421FD0DFF8201588421CBFAC
:100AA000DFF81C25904217D0DFF8183598421CBF9C
:100AB000DFF8141588420FD0DFF8102590421CBFD4
:100AC000DFF80C35984207D0DFF8081588421CBFC4
:100AD000DFF8B824904204D1F06A016821F48071F3
:100AE00001602868504518BF48452ED0404518BFC2
:100AF00058452AD0DFF8A82490421CBFDFF8A41480
:100B0000884222D000F0EFF81CBFDFF89C2490420E
:100B10001BD000F01BFE1CBFDFF89034984214D0AD
:100B200000F0EEF81CBFDFF8881488420DD000F00A
:100B3000D6F81CBFDFF87C24904206D000F002FEFD
:100B40001CBFDFF87434984214D102680146520881
:100B500052000A603B68D80712D500F0F3FF001B73
:100B60000628F7D3202003213062717000223270F2
:100B70000120B2E001680246490849001160E9E736
:100B8000D5F800E0DFF82404DFF84C14DFF818246F
:100B9000DFF84834DFF80C44DFF804C4D64518BF4A
:100BA000CE4526D0C64518BFDE4522D0E64518BF43
:100BB000A6451ED09E4518BF96451AD08E4518BF33
:100BC000864516D0544FBE451CBFDFF8E473BE45C2
:100BD0000FD0DFF80C74BE451CBFDFF8D873BE45DC
:100BE00007D0DFF80074BE451CBFDFF8CC73BE45EC
:100BF0000BD196F828704FF03F0E07F01F070EFA42
:100C000007FE776AC7F808E00AE096F828704FF008
:100C1000010E07F01F070EFA07FE776AC7F804E017
:100C20002D68554518BF4D4545D0454518BF5D4514
:100C300041D0654518BFA5423DD09D4218BF9542A1
:100C400039D08D4218BF854235D0334885421CBF0C
:100C5000DFF85C138D422ED0DFF8842395421CBF51
:100C6000DFF85003854226D0DFF878138D421CBF91
:100C7000DFF8442395421ED0DFF8400385421CBFB5
:100C8000DFF83C138D4216D0DFF8382395421CBFA5
:100C9000DFF8340385420ED0DFF830138D421CBFDD
:100CA000DFF82C23954206D0DFF8280385421CBFCD
:100CB000B6498D420CD1336B726B5A60B06B38B150
:100CC00001460A6822F480720260F26B316C516056
:100CD00001200021707000203170BDE8F28FDFF834
:100CE000003398427047DFF8F43298427047DFF8DB
:100CF000F882DFF8F892504570470000945402588B
:100D0000054A90427047DFF8DC2290427047DFF8D6
:100D1000C822904270470000400402407004024024
:100D2000A00402402DE9F84F30B100F134025178AF
:100D3000022903D080201062012025E10668DFF837
:100D40005892DFF86812DFF89032DFF85C42DFF883
:100D50008C52DFF850A2DFF848B2DFF840C2DFF86B
:100D600088E2DFF888824E4518BF464527D0764591
:100D700018BF664523D05E4518BF56451FD0AE420A
:100D800018BFA6421BD09E4218BF8E4217D0DFF874
:100D90006072BE421CBFDFF81872BE420FD0DFF88F
:100DA0004072BE421CBFDFF80C72BE4207D0DFF8B3
:100DB0003472BE421CBFDFF80072BE4234D1042739
:100DC0004E45577018BF464527D0764518BF664533
:100DD00023D05E4518BF56451FD0AE4218BFA6426D
:100DE0001BD09E4218BF8E4217D0DFF804128E42ED
:100DF0001CBFDFF8BC2196420FD0DFF8E4319E42E1
:100E00001CBFDFF8B0118E4207D0DFF8D821964220
:100E10001CBFDFF8A4319E423DD1314608460C6824
:100E2000640864000460AEE0376827F00E0737609E
:100E300006684E4518BF464527D0764518BF66451B
:100E400023D05E4518BF56451FD0AE4218BFA642FC
:100E50001BD09E4218BF8E4217D0DFF89471BE425D
:100E60001CBFDFF84C71BE420FD0DFF87471BE4278
:100E70001CBFDFF84071BE4207D0DFF86871BE4288
:100E80001CBFDFF83471BE420CD1366807687608A3
:100E900076003E600AE0314608460A685208520071
:100EA000026070E037687F087F00376006684E4553
:100EB00018BF464546D0764518BF664542D05E45C8
:100EC00018BF56453ED0AE4218BFA6423AD09E4209
:100ED00018BF8E4236D0DFF818118E421CBFDFF8E3
:100EE000D0309E422ED0DFF8F840A6421CBFDFF87B
:100EF000C4108E4226D0DFF8EC309E421CBFDFF8D3
:100F0000B840A6421ED0DFF8B4108E421CBFDFF8F6
:100F1000B0309E4216D0DFF8AC40A6421CBFDFF8CE
:100F2000A8108E420ED0DFF8A4309E421CBFDFF81E
:100F3000A040A64206D0DFF89C108E421CBF134B87
:100F40009E4219D1D16A0C6824F480740C6092F826
:100F50002830546A012103F01F0399406160156B2A
:100F6000536B6B60916B39B10B461C6824F4807431
:100F70000C60D46B136C6360012100235170D16944
:100F8000137001B188470020BDE8F28F94540258D5
:100F9000174B994270470000100002405800024071
:100FA0007000024088000240B8000240280402405D
:100FB0005804024088040240B80402400854025811
:100FC0001C54025830540258445402585854025881
:100FD0006C5402588054025810040240A000024091
:100FE00070040240A0040240400002402800024079
:100FF000400402402DE9FE4F0021DFF8182901913D
:1010000013684FF4165504460822DFF80CB9B3FBF9
:10101000F5F5029504F13405686A01230090DFF8C4
:10102000FC78DFF8FC88DFF8FC980146DFF88CA933
:101030000E680168D4F800C0DC4518BFD44531D033
:10104000CC4518BFC4452DD0BC451CBFDFF870E9A6
:10105000F44527D0DFF878EAF4451CBFDFF864E9EF
:10106000F4451FD0DFF86CEAF4451CBFDFF858E9FF
:10107000F44517D0DFF860EAF4451CBFDFF84CE90F
:10108000F4450FD0DFF854EAF4451CBFDFF840E91F
:10109000F44507D0DFF848EAF4451CBFDFF844EA1E
:1010A000F44541D100F044FB02FA00F0064200F0A2
:1010B0009580DC4518BFD44531D0CC4518BFC44518
:1010C0002DD0BC451CBFDFF8F8188C4527D0DFF8C1
:1010D000000A84451CBFDFF8EC0884451FD0DFF808
:1010E000F4198C451CBFDFF8E008844517D0DFF801
:1010F000E80984451CBFDFF8D4188C450FD0DFF811
:10110000DC0984451CBFDFF8C808844507D0DFF838
:10111000D0198C451CBFDFF8CC0984454AD1DCF8D6
:10112000000000F0040049E0DFF82869B4451CBF66
:10113000DFF82469B44518D0DFF82069B4451CBF36
:10114000DFF81C69B44510D0DFF81869B4451CBF3E
:10115000DFF81469B44508D0DFF81069B4451CBF46
:10116000DFF81866B44540F0E182DCF8006095F8DD
:1011700028C04FF0040E0CF01F0C0EFA0CFE11EA02
:101180000E0FCDF800E000F04B825FEA467E40F1A2
:10119000478200994160300440F1F881F10300F189
:1011A00037826969002900F0C182204603B0BDE89A
:1011B000F04F08476046006800F0080070B16046D4
:1011C000016821F00401CCF8001000F0B1FA82406F
:1011D00000988260296A41F00101296200F0A8FAB2
:1011E00026FA00F1CA073DD52168594518BF514577
:1011F0002ED0494518BF41452AD0B9421CBFDFF85F
:10120000C027914224D000F0B5FA1CBFDFF8B42704
:1012100091421DD000F0AAFA1CBFDFF8AC27914222
:1012200016D0DFF8B42891421CBFDFF8A027914206
:101230000ED000F093FA1CBFDFF89427914207D03C
:1012400000F088FA1CBFDFF89C28914240F08E80A5
:101250004969090606D5834000988360296A41F0F0
:101260000201296295F8281000F067FA06423FD083
:101270002168594518BF51452FD0494518BF4145F0
:101280002BD0B9421CBFDFF83827914225D0DFF8B8
:10129000403899421CBFDFF82C2791421DD000F046
:1012A00065FA1CBFDFF82037994216D0DFF82828EE
:1012B00091421CBFDFF8142791420ED0DFF81C3892
:1012C00099421CBFDFF80827914206D000F042FA8D
:1012D0001CBFDFF8103899424AD1D1F800C05FEA4C
:1012E0008C7205D500998860286A40F00400286255
:1012F00095F82800102100F01F0081400E4259D0BF
:101300002068584518BF50452CD0484518BF404567
:1013100028D0B8421CBFDFF8A826904222D0FFF7A1
:10132000E2FC1CBFDFF89C2690421BD0FFF7EFFCCD
:101330001CBFDFF89436984214D0FFF7E1FC1CBFC5
:10134000DFF8882690420DD0FFF7C9FC1CBFDFF8FC
:101350008026904206D0FFF7D6FC1CBFDFF884370A
:10136000984208D1006800F0080009E00A6879E7AF
:1013700008460368BCE78446DCF8000000F004007F
:10138000C0B100988160206801684A0307D50068F1
:1013900001030BD5696969B1204688470AE00168F5
:1013A000CA0503D4036823F008030360E96809B1A0
:1013B0002046884795F82800202100F01F00814032
:1013C0000E423BD02068584518BF50452DD04845A7
:1013D00018BF404529D0B8421CBFDFF8E425904231
:1013E00023D0FFF780FC1CBFDFF8D865B0421CD0CB
:1013F000FFF78DFC1CBFDFF8D035984215D0DFF821
:10140000D866B0421CBFDFF8C42590420DD0FFF76C
:1014100066FC1CBFDFF8B865B04206D0FFF773FC6E
:101420001CBFDFF8C036984203D1006800F01000FE
:1014300003E00246106800F00200002847D0009840
:10144000816020686978042927D1026822F0160299
:1014500002602068436923F080034361E968002942
:1014600004BF6869002804D02068016821F00801E1
:10147000016095F8282000993F2002F01F0290405B
:101480008860012068700022E9692A70002920D054
:10149000204603B0BDE8F04F084701684A0307D56E
:1014A000006801030FD4296989B1204688470EE0FE
:1014B0000168CA0507D40368002123F01003036004
:1014C000012068702970A96809B120468847286AF8
:1014D000002800F02B81296AC80756D504226A70BB
:1014E0002068584518BF50452ED0484518BF404584
:1014F0002AD0B8421CBFDFF8C814884224D0DFF8D5
:10150000D02590421CBFDFF8BC3498421CD000F0BC
:101510001DF91CBFDFF8B024904215D000F022F96D
:101520001CBFDFF8A81488420ED0DFF8B025904227
:101530001CBFDFF89C34984206D000F003F91CBFB2
:10154000DFF8A025904217D1206803685B085B0094
:1015500001460B600298019A521C90420192216848
:1015600002D30A68D307F6D40868C10747BF03222D
:101570006A7001236B7006E0206801684908490021
:1015800002461160E6E700202870C8E0B0063FD4AC
:101590002068584518BF50452ED0484518BF4045D3
:1015A0002AD0B8421CBFDFF81814884224D0DFF8D4
:1015B000202590421CBFDFF80C3498421CD000F06C
:1015C000C5F81CBFDFF80024904215D000F0CAF81F
:1015D0001CBFDFF8F81388420ED0DFF800259042D8
:1015E0001CBFDFF8EC33984206D000F0ABF81CBF0C
:1015F000DFF8F024904205D10368014623F0080388
:101600000B6005E002461346106820F004001860E5
:10161000E968002918D0204603B0BDE8F04F08471C
:101620004FF0020E0EFA0CFE11EA0E0FCDF800E09C
:101630005DD05FEA867E5AD500994160300409D5B5
:10164000F1034DD42969002970D0204603B0BDE8CC
:10165000F04F0847B00643D42068584518BF50459E
:101660002ED0484518BF40452AD0B8421CBFDFF8ED
:101670005013884224D0DFF8582490421CBFDFF872
:10168000443398421CD000F061F81CBFDFF83823C7
:10169000904215D000F066F81CBFDFF83013884286
:1016A0000ED0DFF8382490421CBFDFF82433984274
:1016B00006D000F047F81CBFDFF82824904205D17F
:1016C0000368014623F014030B6005E0024613464D
:1016D000106820F00A00186001210020697028704D
:1016E000A96819B3204603B0BDE8F04F084702FAD5
:1016F0000CF211421AD0310718D52268166826F06C
:101700000E06174601223E6095F8281001F01F01D1
:101710008B4043600120286200216A702970A9690A
:1017200021B1204603B0BDE8F04F0847BDE8F78F70
:1017300095F8280000F01F007047042001F01F01F9
:1017400088407047DFF8981388427047DFF88413A9
:1017500088427047DFF8882391427047DFF87C2386
:1017600091427047DFF8703398427047DFF8642386
:1017700091427047DFF858239142704794540258C1
:101780002DE9F84F0446DFF890A1A56DDFF830B2DF
:1017900000952668DFF884C1DFF884E1DFF88481F2
:1017A000DFF81892564518BF4E4543D0464518BF3E
:1017B00076453FD0664518BF5E453BD0DFF8100345
:1017C00086421CBF7F4FBE4234D0DFF808038642FA
:1017D0001CBF7D4886422DD0DFF8FC72BE421CBF84
:1017E0007A48864226D0DFF8F40286421CBF784F42
:1017F000BE421FD0DFF8E80286421CBFDFF8E402D9
:10180000864217D0934FBE421CBF9348864211D0E8
:10181000924886421CBF924FBE420BD091488642EE
:101820001CBF9148864205D0904FBE421CBFAE48B7
:1018300086425BD1676EA06E7860E06E10B1206F5B
:10184000676F4760564518BF4E4525D0464518BFBF
:10185000764521D0664518BF5E451DD09C4886421E
:101860001CBF5848864217D09A4886421CBF56482B
:10187000864211D0984886421CBF544886420BD0FD
:10188000964886421CBF5248864205D094488642FC
:101890001CBF9448864215D194F85C00DDF800B076
:1018A0003F2500F01F008540CBF80850356825F42F
:1018B000802535607360A068402827D0B160F26051
:1018C000BDE8F18F634886421CBF6348864210D052
:1018D000624886421CBF624886420AD061488642FE
:1018E0001FBF614886426148864202D07E488642D8
:1018F000E6D194F85C00012700F01F0007FA00FC15
:10190000C5F804C07360A368402BD7D1B260F16002
:10191000D6E700003C0000201000024070000240AA
:101920005800024040000240F0B501686F4A914201
:101930001CBF224B994229D06D4CA1421CBF6D4A5D
:10194000914223D06C4B99421CBF1D4CA1421DD02B
:10195000FFF710FF1CBF1B4B994217D05D4CA142F3
:101960001CBF194A914211D0FFF712FB1CBF174C44
:10197000A1420BD0FFF7F2FE1CBF154B994205D0D8
:10198000574CA1421CBF574A914211D101F0FF03AD
:10199000890A103B1824B3FBF4F20FF2A01502F0F1
:1019A00007068902AF5D042AC76503D3091D01E05C
:1019B000090A090281650846F0BD000028000240BE
:1019C00088000240B8000240280402405804024047
:1019D00088040240F0B5046801221E4D2346AC4243
:1019E0001CBF1D4EB44211D01C4FBC421CBF1C4D2D
:1019F000AC420BD01B4EB4421CBF1B4FBC4205D0A7
:101A00001A4DAC421CBF384EB4420DD104F0FF0158
:101A100008391423394DB1FBF3F1394B03EB810342
:101A200001F01F018A4011E004F0FF011039182471
:101A3000B1FBF4F43349CB18A92B38BF0834324B2F
:101A4000324D03EB840304F01F04A2400366456695
:101A50008266F0BD085402581C5402583054025893
:101A600044540258585402586C5402588054025836
:101A70000179002900D170470929F0B527D2026801
:101A8000234B9A421CBF234DAA4211D0224EB24290
:101A90001CBF224B9A420BD0214DAA421CBF214EA3
:101AA000B24205D0204FBA421CBF0F4DAA4204D10A
:101AB0001E4B1F4A03EB810403E01E4A02EB810424
:101AC0001D4A0123491E8B40C46602674367F0BD6F
:101AD000A000024010040240400402407004024092
:101AE000A0040240B804024094540258100002407E
:101AF00040000240580002407000024080580258E6
:101B000000580258F0FBFDBF000802408008024068
:101B1000085402581C540258305402584454025875
:101B2000585402586C54025880540258FC580258B9
:101B300040590258FC0802404009024000061016B5
:101B40000006101601484068704700BF0C000020D6
:101B500040F0200070472DE9F14FB0B0924604915B
:101B60000DF142013A9A2B9199464A7000200AE001
:101B70001AF8011B0498309A90470028049000F04E
:101B800041860D98401C0D909AF8000050B1252810
:101B9000EED1002100220791089209910A920B913F
:101BA0000C9204E00D9800F02FBE41F001011AF8EC
:101BB000010F2028F9D023280CD02B2804D02D2861
:101BC00005D0302809D00BE041F00201EFE741F0E9
:101BD0000401ECE741F00801E9E741F01001E6E714
:101BE0002A280FD1D9F8002052F8040BC9F8002098
:101BF00000280F9003D540420F9041F004010AF1F4
:101C0000010A14E00F92DFF8083C0AE00F989842AE
:101C100005DA00EB800402EB4402303A0F920AF13D
:101C2000010A9AF80020A2F130000A28EED39AF8AF
:101C300000002E2803D04FF0FF320E9229E01AF850
:101C4000010F2A2809D1D9F8000050F8042BC9F84F
:101C500000000E920AF1010A1BE02D280CBF0AF1C8
:101C6000010A002000220E92DFF8A44B0BE040B9DD
:101C70000E9AA24205DA02EB820503EB4503303BE4
:101C80000E930AF1010A9AF80030A3F130020A2AF1
:101C9000EDD3ADF840100FF67C309AF8001000F04C
:101CA000D9FE08B11AF8010B8DF842009DF84200E8
:101CB000682805D19AF8000068280CD1622106E056
:101CC0006C2804BF9AF800006C2804D171218DF8AB
:101CD00042100AF1010A12A806901AF801BBBBF1E2
:101CE00025012CD01C3900F09481091F022940F2F3
:101CF0009081133900F0B884093900F08A81891E77
:101D000000F04D85491E00F0FA84491E022940F278
:101D10008081091F00F0F384491F00F0EF80491E05
:101D200000F0A284491E00F0D780C91E0CD0891E85
:101D300000F09A84C91E00F0978400F03BBD012397
:101D40000793252100F033BDD9F8000050F8044B6B
:101D5000C9F80000002C059440F0AB802B9948781E
:101D6000002800F0A1804FF0FF340FF6B02000F003
:101D700081FE241A40F0468500F028BD01236A4602
:101D800002A9304600F00EFE002840F03B85641E9C
:101D9000F4D13096079C12AF74B1309E17F8011B36
:101DA0000498B0470028049000F02C850D98401C42
:101DB000641E0D90F2D130960A9C3021002C8DF8D3
:101DC00000100CDD309E01236A4602A9304600F067
:101DD000E9FD002840F01685641EF4D13096059F79
:101DE000089C74B1309E17F8011B0498B047002876
:101DF000049000F007850D98401C641E0D90F2D1F0
:101E000030960B9C3021002C8DF800100CDD309E9C
:101E100001236A4602A9304600F0C4FD002840F0C4
:101E2000F184641EF4D1309605980899099C4718EE
:101E300074B1309E17F8011B0498B0470028049035
:101E400000F0E0840D98401C641E0D90F2D1309695
:101E50000C9C3021002C8DF800100CDD309E0123ED
:101E60006A4602A9304600F09DFD002840F0CA8471
:101E7000641EF4D130969DF8400041077FF584AE92
:101E80002020002D8DF800007FF77EAE309C0123CE
:101E90006A4602A9204600F085FD002840F0B28481
:101EA0006D1EF4D130946FE60FF65830059000F0B7
:101EB0008DBC0E9D002D04D5204600F0FBFD044690
:101EC00007E02A46204600F0FFFD002814BF041B4F
:101ED0002C46089400F07ABCD9F8001051F8040B95
:101EE000C9F8001020F00004002121F0FF35CDE9F1
:101EF000024512AB0593782100F04DBC2B99487830
:101F000020B14FF0FF340FF6CC2030E79DF84200AF
:101F1000622860D0682817D06A283FD06C2806D085
:101F2000712847D074282CD07A281DD062E0D9F8C7
:101F3000001051F8040BC9F80010002866D14FF0CA
:101F4000FF340FF6A82012E7D9F8001051F8040B5F
:101F5000C9F8001020B94FF0FF340FF6902006E7C3
:101F60000D99018000F032BCD9F8001051F8040B33
:101F7000C9F80010002849D14FF0FF340FF66C204B
:101F8000F5E6D9F8001051F8040BC9F80010002844
:101F90003CD14FF0FF340FF65420E8E6D9F800109A
:101FA00051F8040BC9F8001080B94FF0FF340FF658
:101FB0003C20DCE6D9F8001051F8040BC9F80010F9
:101FC00020B94FF0FF340FF62420D0E60D9AD31736
:101FD000C0E90023FAE3D9F8001051F8040BC9F85E
:101FE000001020B94FF0FF340FF60020BFE60D9926
:101FF0000170EBE3D9F8001051F8040BC9F8001098
:1020000020B94FF0FF340FF6E410B0E60D990160EF
:10201000DCE39DF842004C2807BFD9F80010CA1D28
:10202000D9F80000C21D22F00702C9F80020D2E949
:1020300000010832C9F80020CDE90201C80F02D022
:1020400007982D210AE0BDF84000810702D50798C6
:102050002B2103E0C00705D50798202112AA1154AF
:10206000401C079012A807994BF0200300EB010CCD
:10207000DDE90201CDE92C01612BCDF814C021ACC2
:102080000BD00E98002848BF062105D404BF4BF0A2
:102090002000672801D101210E91DDE902014F00E6
:1020A00047EAD0777E15FF174FF0FF32974208BFFF
:1020B000964210D1090341EA10510003002908BFDC
:1020C000002808D0ABF1610503211A2D089118D31F
:1020D0000FF6381110E0DDE902014A00521512F145
:1020E000010F11D108030FD1ABF1610503211A2DA6
:1020F00008911FD30FF61C110322604600F010FD5B
:1021000064E30FF60411F7E7DDE902016A4600F027
:1021100013FDCDE902014BF02000612811D1059893
:1021200030210170821C0592BBF1610F0CBF782138
:10213000582102E00FF6D801DEE741700798801CB5
:102140000790DDE9020120F0000231F0004308BFF2
:10215000002A02D10026002542E14BF02008B8F108
:10216000610F40F092800E98002847BF2121019115
:10217000401C0190019FDDE92C017F1C00220023FF
:10218000DDE9024500F010FD38BF85F000450099FB
:102190008DF88420091F002F00910DF1850632DD96
:1021A000204629460022002300F018FD2BD21C22D5
:1021B00000F02EFD04460D4600F0ACFDFF1F002F81
:1021C000804609DD00F0ADFD02460B46204629465B
:1021D00000F0AEFD04460D46F01D0721B8F1000FDA
:1021E0000CDD491E5EBF08F00F0200F8012D4FEA1A
:1021F0002818F3D502E0002200F8012D491EFAD577
:10220000C61D002FCCDC0DF18500361A01980DF1AA
:1022100085048642D8BF304600282FD4B04206DA63
:102220000DF185010A5C082AA8BF0F2100DA002100
:10223000024621AB134400E0401E13F80159521E20
:102240008D42F9D00F2904D10DF185018B5C5B1C07
:102250008B54002A04D50099091D21AC401C009123
:10226000411E0BD4621813783033DDB23A2DA4BF6F
:102270005B443A3B491E02F80139F4D50E99002916
:1022800040F1AC80421E0E92A8E00099DFF80427CE
:1022900047F29750414391FBF2F20092DDE92C4561
:1022A000C2F10702002A25F0004504DD2046294638
:1022B00000F04CFB0BE052420020DFF8DC1600F08F
:1022C00045FB02460B462046294600F03AFD0446EF
:1022D0000D46B8F1660F06BF009F0A3706270E9815
:1022E0003F18142FC8BF142730208DF884000DF13B
:1022F0008506002F34DD2046294600F02BFD0146DF
:102300000A4606F1080304200A26B2FBF6F606EB9D
:10231000860EA2EB4E02303203F8012C0A22B6FBE5
:10232000F2F202EB820EA6EB4E063036401E03F8A8
:10233000026DE9D1083F002F03F10806D9DD0846F8
:1023400000F00FFD02460B462046294600F0F0FC47
:102350000022DFF8483600F00BFD04460D46CAE7C0
:102360000DF18500361A0DF1850404E00098401E39
:10237000761E0090641C20783028F7D0B8F1660FE4
:1023800002D10098401C04E0B8F1650F0CBF012099
:1023900000200E9940188642B8BF701E00281DD438
:1023A000B04204DA215C3429C8BF392100DC302175
:1023B0000246631E9D1800E0401E15F80169521E7A
:1023C0008E42F9D0392902D1A15C491CA154002ABE
:1023D00004D50099491C1C46401C00910646009DEE
:1023E00000F0D0FC406A0778DDF8388030B2002871
:1023F00002DC01260FF220644BF02000662808BFA3
:102400006D1C16D0672845D128B210F1040F47DBA8
:10241000404545DA9DF840006D1C010703D430B2F9
:102420004045D8BF804628B2B8EB000848BF4FF0FF
:1024300000080FFA85FBBBF1000F00F3B480089889
:10244000411C0891302205990A54B8F1000F03DCB1
:102450009DF84000010704D50898411C0891059992
:102460000F5418EB0B0FB8BFC8F100052DB268422E
:10247000454432B20B909542B8BF2E46059B089852
:1024800036B2099632462146184400F049FBAD1B8E
:102490000C95D2E0BBF1610F17D14FF0700B19E032
:1024A00030B2404504DA9DF840100A0758BF804614
:1024B000B8F1010848BF4FF00008BBF1670F14BF27
:1024C0004FF0450B4FF0650B04E0BBF1410F08BF27
:1024D0004FF0500B0898411C0891B8F1000F059976
:1024E00014F8012B0A5403DC9DF8400001071AD5AB
:1024F0000898411C0891B8F1000F05990F5412DD9E
:10250000761E30B28045B8BF46460598089B32B269
:102510002146184400F004FB089936B2711808915E
:10252000A8EB06000B9005980899084429B20029E9
:1025300080F800B003D42B224270821C04E02D22CC
:1025400042700D46821C6D4200212CAB28460AE0E9
:1025500004460A2094FBF0F000EB8005A4EB450450
:1025600003F8014B491C00B20028F1DC012906DC0C
:102570004BF02000652804BF302002F8010B002931
:102580002CAB08D1302002F8010B06E0491E585C44
:10259000303002F8010B0029F8DC0599089808444E
:1025A000121A099249E030B229B288421CDA059821
:1025B000089B32B22146184400F0B2FA089936B2AC
:1025C00071180891ABEB0600B8F1000F0B9003DC1B
:1025D0009DF84000020704D5059847540999491C05
:1025E0000991CDF8308028E00598089B2AB2214651
:1025F000184400F095FA0898761B5844B8F1000F7B
:10260000089003DC9DF840100A0703D5411C08918F
:1026100005990F5430B28045B8BF46460598089BCF
:1026200032B204EB0B01184400F07AFA089836B283
:1026300030180890A8EB06000B909DF8400000F0C1
:102640001400102840F0C280079A08980B9982184D
:1026500009988A1882180C980F998018884280F27D
:10266000B580081A0A90B1E09DF84200622808D0AF
:1026700068280ED06A2814D06C281FD0712810D07A
:102680001CE0D9F8001051F8040BC9F80010C0B2D2
:102690001AE0D9F8001051F8040BC9F8001080B204
:1026A00012E0D9F80000C21D22F00702C9F800208C
:1026B000D2E900010832C9F8002006E0D9F800107C
:1026C00051F8040BC9F800100021CDE902019DF872
:1026D000400001075AD5DDE90223002B08BF002A7C
:1026E00054D04BF02000782850D1079812A93022FE
:1026F0000A54401C431C079301F800B046E09DF8C3
:102700004200622808D068280ED06A2814D06C28AD
:102710001FD0712810D01CE0D9F8001051F8040B1C
:10272000C9F8001040B21AE0D9F8001051F8040BB3
:10273000C9F8001000B212E0D9F80000C21D22F062
:102740000702C9F80020D2E900010832C9F80020C8
:1027500006E0D9F8001051F8040BC9F80010C117B1
:10276000CDE90201002902D507982D210AE0BDF824
:102770004000810702D507982B2103E0C00705D54B
:102780000798202112AA1154401C079012A80799FB
:1027900001440591594602A800F04EF816E00120C8
:1027A0000790D9F8000050F8041BC9F800008DF814
:1027B00048100BE001212522BBF1000F07918DF895
:1027C000482003D0022207928DF849B00F9D079947
:1027D0000A986D1A08992D1A0B986D1A09992D1AD5
:1027E0000C986D1A9DF840102D1A48073FF5D2AA93
:1027F0002021002D8DF800107FF7CCAA309E2C46AA
:10280000FFF7BCBA4FF0FF3031B0BDE8F08F0000E9
:10281000CBCCCC0C686A6C747A4C00007072696E18
:1028200074665F733A206261642025732061726769
:10283000756D656E740000002DE9FC4707468A46F9
:102840003C6950466F2808BF082505D0FFF780F97E
:10285000782814BF0A251025D7E900013C268046B8
:102860008946BAF1640F18BFBAF1690F05D1002982
:1028700003D5D8F1000869EB4909B9F1000F08BF89
:10288000B8F1000F0CD1386B50B9082D3AD197F838
:102890003800010736D530223B2684F83B2031E052
:1028A0008DF800A0404649462A46EB1700F06EFA24
:1028B0003032D0B2761E3A2801960EDAA255404642
:1028C00049462A46EB1700F061FA80465FEA0109A3
:1028D00008BFB8F1000F05D108E09DF800001218FC
:1028E000513AEBE7F868A1198842DBD3082D09D1EA
:1028F00097F83800010705D5A05D302802D0761E74
:102900003020A055C6F13C03BB61A119F960386BBA
:10291000834208DAC31A3B624FF6EF70398F0140E9
:102920003987BDE8F38700280ED597F8380000F006
:102930001400102808D17A6B7969386A521A121A71
:10294000D21A002AC8BF3A62BDE8F3872DE9D04306
:1029500006460F4614464FF00008DFF8449012E098
:10296000E00707D542464B463046394600F000FAAC
:1029700006460F464046494642464B4600F0F8F9A7
:10298000641080468946002CEAD130463946BDE8BD
:10299000D0830000A08601000000F03F84D797415B
:1029A00000002440F8B505460E4617461C46002098
:1029B0005CB117F8011BB068A847B06030B1F06A8D
:1029C000401CF0620020641EF3D1F2BD4FF0FF30D6
:1029D000F2BD00007072696E74665F733A20256EF6
:1029E00020646973616C6C6F776564007072696EE6
:1029F00074663A2062616420256E20617267756D8D
:102A0000656E7400000000006E616E004E414E0065
:102A1000696E6600494E4600300030B50168846832
:102A20004218416802EB5103C90703D54C4401E049
:102A3000491C08D19A4218BF12F9011B01D10C3070
:102A400030BD12F8015B002904F8015BF0D4491E87
:102A5000F7D5EFE7C9B202788A421AB11CBF10F865
:102A6000012FF9E718BF002070470268531C03606C
:102A70001170704780B500B906A005490B681BB1FD
:102A800022220021984701E000F003FA222002BD33
:102A900058510020636F6E73747261696E742068A0
:102AA000616E646C65723A20626164206D65737357
:102AB0006167650000F1010310F8011B11B110F806
:102AC000011BFBE7C01A7047C9B2830706D0521E2C
:102AD00022D310F8013B9942F7D11FE0083A13D3F3
:102AE00002F1040241EA012141EA014150F8043BAC
:102AF000121F21BF4B40A3F1013C2CEA030C1CF038
:102B0000803FF3D0C9B2001F083210F8013B521EBB
:102B100028BF91EA030FF8D818BF0120401E704764
:102B20004AB1000011F8013B521E00F8013B1CBFE6
:102B300011F8013BF8E7704710B5144600F002F8B1
:102B4000226010BDC1F30A5343B14A0012F5001FC1
:102B500028D2A3F2FE32A1EB0251704750EA410C99
:102B600020D001F0004C31EA0C01B1FA81F204BF2F
:102B7000B0FA80F3D2180B3AB2F120032CBF00FA5E
:102B800003F1914041EA0C013EBFC2F1200C20FA52
:102B90000CF319439040524240F2FD33D21A01EB3C
:102BA000035170470022704741EA030C50EA4C0C75
:102BB00052EA0C0C4FF4001C09D307D01CEB410F58
:102BC0009CBF1CEB430F8B4208BF824270471CEB3B
:102BD000430FFBD8994208BF9042704741EA030C6B
:102BE00050EA4C0C52EA0C0C4FF4001C09D307D0ED
:102BF0001CEB410F9CBF1CEB430F994208BF904256
:102C000070471CEB410FFBD88B4208BF82427047D4
:102C100000B541EC100B104600F004F851EC100B1D
:102C200000BD00BF020030EE101B40F2FF7C37D425
:102C30001CEA115313D063456BD09B18634504D233
:102C400001EB025120EE101B704701F0004141EAF8
:102C50000C51002041EC100BAFF30080704710EED8
:102C6000100B50EA410054D0B2F57F7F08D202EB3E
:102C70005C010905002041EC110B20EE010B7047AF
:102C80004FF0FE41002341EC113B20EE010BB2F569
:102C90007E7230EE101B4FEA410342EB5353CDE7F7
:102CA00052421CEA115316D0634532D09A4204D2E4
:102CB000A1EB025120EE101B70475B1ED21AA1EB54
:102CC000035120EE101B372A0CD3002001F00041E5
:102CD00041EC100BC0E710EE100B50EA410018D089
:102CE000372AF2D2C2EB5C021105002041EC110B35
:102CF000F1EE100A20F01F0121F4F851E1EE101A54
:102D000020EE010BF1EE101AE1EE100A11F0080F9F
:102D1000A2D1704741EC100BBDEEC00B10EE100AB3
:102D2000704700EE100AB8EEC00B51EC100B704764
:102D300041EC100B43EC112B30EE410B51EC100B1E
:102D4000704741EC100B43EC112B80EE010B51EC62
:102D5000100B704741EC100BBCEEC00B10EE100ACC
:102D6000704700EE100AB8EE400B51EC100B7047A4
:102D700041EC100B43EC112B20EE010B51EC100B2E
:102D800070472E000048704744000020D3BBD9B1E3
:102D9000B2F5803F5BD2022A1ED98C46B1FBF2F11C
:102DA00002FB11C31B0443EA1043B3FBF2FC02FB1A
:102DB0001C3380B240EA0343B3FBF2F002FB103253
:102DC00040EA0C4000237047022A05D98446B0FB34
:102DD000F2F002FB10C270474AB105D100F00102C7
:102DE00049085FEA3000704700220023704700F076
:102DF00053B80B000200002100207047F7D30022D7
:102E000000237047904271EB030CF2D370B5B1FA16
:102E100081F4B3FA83F52C1BA340C4F1200532FAE8
:102E200005F63343A2405FF00046E64002E05B084F
:102E30005FEA3202841A71EB030524BF204629465B
:102E40007641F4D302000B003000002170BD70B554
:102E5000B1FA81F4B2FA82F5C4F120046419B4F134
:102E60002006DAD3B2405FF00044F440002502E0CF
:102E700052085FEA3303C61A71EB020E24BF3046D4
:102E8000714664416D41F3D302000B00200029001C
:102E900070BD012000F002B87047000080B5AFF3AC
:102EA0000080024A11001820ABBEFBE7260002009A
:102EB000F0B585B010260B9D25B986F3118800F07A
:102EC0004CFDFEE70C9C24B986F3118800F045FD0B
:102ED000FEE760270097DDF800E0BEF1600F04D048
:102EE00086F3118800F039FDFEE7009E2563022578
:102EF000002784F85D5004AD0397029401950A9E63
:102F0000009600F034F8204600F07AF8049805B0F6
:102F1000F0BD2DE9F8430646174684B08846994629
:102F2000B80000F007FF05001CD0602000F002FF91
:102F3000040014D00020256384F85D000D9A0390EE
:102F40000C9801924B4600903A4602944146304616
:102F500000F00DF8204600F053F8012004E0284668
:102F600000F071FF4FF0FF3005B0BDE8F0832DE9B0
:102F7000F0470A9F81460C4615469A46A522386BB3
:102F8000A90000F0AFFF3A6B02EB850107F13405B1
:102F9000081FC0084FEAC00808F0070054B100211C
:102FA000625C6A54605C10B1491C1029F8D300209F
:102FB000E87300E02870089E372E88BF3726099CEA
:102FC000FE62AE61C6F13806E861381D00F0B4FF5C
:102FD00007F1180000F0B0FF3F610020BE61002142
:102FE0007F620022286240466962494687F85C2079
:102FF000524600F0DFFF386004B12760BDE8F0877B
:103000002DE9F04100F087F8E86C1426DFF88C8A8F
:10301000401CE864A86A28BBAC62E96C012929D18C
:10302000002706FB07F07F1C404400F078FF382F94
:10303000F7D305F1780005F18C0700F070FF3846F2
:1030400000F06DFF284600F06AFF05F1140000F063
:1030500066FF05F1380000F062FF05F17801E962D2
:103060002F6307E0A86D28B9E16AA86AC26A914295
:1030700028BFAC62A86EE26A401C6064696D914230
:1030800038BF6A655643A866211D08EB060000F0AC
:1030900056FF01F01AF8A86D40B1A96AE26AC86A41
:1030A000904203D200F095F900F057FCBDE8F081A2
:1030B00038B500F030F800F04CF9A06A08B100F023
:1030C00044F9A86E401CA866A96A8C4208D1211D4B
:1030D00005F1140000F033FF686B401C686307E0E3
:1030E000E96C2046491EE96400F0A9FC00F0BCFC34
:1030F00000F0EBFFA86D68B1A96A8C420AD1286F75
:1031000020B100F0E1FA00F028FCFEE700F0DCF866
:1031100000F023FC31BD0446DFF8E45900F0BCBFE9
:1031200010B50A46102320B983F3118800F015FC6E
:10313000FEE722B983F3118800F00FFCFEE7DFF809
:10314000C049216F21B183F3118800F006FCFEE72E
:10315000216F491C2167236D016852188B4202D2EE
:103160008A4204D201E08A4203D3934201D302602F
:1031700004E002600021D01A00F097FD00F0A4F9ED
:1031800018B900F0A1F800F0E8FB10BD80B578B1E7
:10319000DFF86C29116F11B100F0DCFBFEE7116F55
:1031A000491C1167002100F080FD00F08DF918B96D
:1031B00000F08AF800F0D1FB01BD2DE9F0410500D7
:1031C00002D100F0C7FBFEE7DFF83469B06A854240
:1031D00008BF002020D000F05FFF6C69D6F82C807B
:1031E000376B00F072FF444518BFBC420BD006F1AC
:1031F00038018C4209D1A86A28B995F85C100129D8
:1032000018BF032008D1022006E006F11400844212
:1032100016BF002C04200120BDE8F08110B5044643
:1032200000F03AFF14B9DFF8D808846AE46A00F0C5
:1032300038BD2DE9F0410F460024382F054602D352
:1032400000F088FBFEE700F027FFDFF8B46805B95F
:10325000B56AE86CB84233D0B16A06D28D4207D065
:10326000B26AD36A9F4203D301E08D4200D10124A8
:10327000E96A884208BFEF62A869EF6400285CBF72
:10328000C7F13807AF614FF01408686908FB01F116
:10329000DFF80878394488420DD1281D00F075FE0A
:1032A000E86A716D814238BF706508FB00F2291D24
:1032B000B81800F044FE1CB100F006F800F04DFB19
:1032C000BDE8F04100F001BF4FF08050DFF8B019C9
:1032D0000860704738B5FFF71EFF00F03AF8A06AA3
:1032E00008B100F032F8211D05F1380000F027FE8A
:1032F00094F85C00012804BF002184F85C1000F001
:10330000E4FEA86D28B100F0C7FE00F0ADFB00F0B0
:10331000DCFEA86A844217D1A96D59B1286F20B18B
:1033200000F0D2F900F019FBFEE7FFF7CDFF00F047
:1033300014FB31BDA86BE96C884202D10020A86261
:1033400031BDBDE83140C3E131BD04F1180000F0EA
:103350001CBE04B9AC6A201D00F017BE0146002057
:1033600010B511B900F0F6FAFEE74B69DFF8002955
:1033700002F13804A34204D1896A914201D001B913
:10338000012010BD38B5040002D100F0E3FAFEE7D9
:10339000DFF8DC58A86A84421AD000F07DFE20468F
:1033A000FFF7DCFF80B100F07BFB00F067FA38BF6D
:1033B0006A6500F067FAE16AA86AC26A914203D3BB
:1033C00000F007F800F0C9FABDE8314000F07DBE1A
:1033D00031BD4FF08051DFF8A83819607047F8B55B
:1033E00004460025102724B987F3118800F0B5FAA8
:1033F000FEE700F08DFEEFF3118687F3118800F0F1
:10340000ACFA2046FFF7AAFFC0B1DFF86478386F46
:1034100078B9E16AB86AC26A914228BF012500F012
:103420003FFBE26A786D904238BF7A6500F033FC6A
:1034300002E004F11801384600F081FD86F311889E
:103440002846F2BD80B586B00020059003AA0490FE
:1034500004A905A800F094FE059A049802920021A0
:10346000039A01900091002312A10FF2A140FFF7EF
:103470001FFDA8B100F08EFE1021012812D181F3AA
:10348000118800F06AFADFF8E8074FF0FF31C166F3
:10349000012282650023036501F086F800F0ACFD8F
:1034A00007B000BD10F1010FFAD181F3118800F0CF
:1034B00054FAFEE749444C4500000000DFF8B0072D
:1034C000016F491C0167704770B5DFF8346600244E
:1034D000306F002520B900F0F7F800F03EFAFEE763
:1034E00000F0DAFD306F401E3067316F002937D1B0
:1034F000F06CD0B934E0F168CC68FFF726FF00F03B
:10350000CFFAE06A716D814238BF70651423DFF82D
:103510008C255843211D104400F011FDE06AB16A6A
:10352000CA6A904224BF0123336630680028E2D182
:103530000CB100F099FAF46D44B100F065F808B1EF
:1035400001203066641EF8D10021F165306E38B17B
:103550004FF08051DFF828270125116000F0FDF9B8
:1035600000F088BBDFF80807006D70472DE9F047D1
:103570008046DFF88C75386F002538241646401CCD
:103580003867FB6C99423AD3641E14206043DFF81D
:103590000C354FF024090122191809FB05F04044AD
:1035A00000F015FA4519002CEED109FB05F0F96A77
:1035B0000222404400F00BFA00EB050A396B09FBCC
:1035C0000AF3022208EB030000F001FA824404220D
:1035D00009FB0AF007F11401404400F0F8F98244B5
:1035E000032209FB0AF307F1380108EB030000F09E
:1035F000EEF900EB0A0516B100F0DAFF3060FFF7D4
:1036000063FF2846BDE8F0872DE9F843DFF8F07442
:103610000026386F002852D13C6D641C3C6510D1E7
:10362000F86A006820B100F04FF800F096F9FEE764
:10363000F86A396BF9623863786E401C786600F07E
:1036400013FAF86E4FF01408DFF85094844227D331
:103650001FE0F96ACA68D568686884422DD3281DBE
:1036600000F093FCA86A18B105F1180000F08DFC79
:10367000E86A796D814238BF786508FB00F0291D42
:10368000484400F05CFCE86AB96ACA6A904228BF04
:103690000126F86A00680028DBD14FF0FF31F96697
:1036A000B86AC06A08FB00F859F80810022928BF58
:1036B0000126386E30B1012604E0F866F0E7F86DB7
:1036C000401CF86500F0DEBA102181F311887047C4
:1036D00010B5DFF82C44206F10B10121216610BD18
:1036E000206600F065FF616F814204D2A26A536DCB
:1036F000C318591A51656067A06A006BA16A0A680D
:10370000904205D3A06A00F13401A06A00F054FF92
:10371000616DDFF8E82500E0491E14234B43D058C3
:1037200030B90029F8D1FFF7CFFF00F016F9FEE716
:10373000D01800F108034268526842609A4204BF00
:10374000526842604068C268A262616510BD10B5EF
:103750000C4610B900F0FEF8FEE700F03AF800F071
:10376000FBFB20460121BDE8104000F09EBA38B5B1
:103770001446102320B983F3118800F0EEF8FEE719
:10378000DFF87C532A6F22B983F3118800F0E5F843
:10379000FEE7AA6A41F000419161AB6A03F11801AA
:1037A00000F0CDFB204601210FE038B50D46144650
:1037B00010B900F0CFF8FEE700F00BF800F0BFFB07
:1037C0000CB14FF0FF3521462846BDE8344000F0EB
:1037D0006CBADFF82425936A03F11801704738B5F5
:1037E000C068C46824B9FFF76FFF00F0B6F8FEE7C1
:1037F00004F11800DFF8005500F0C7FB296F41B94C
:1038000000F04EF900F03AF838BF6A6500F043FA6C
:1038100002E004F11801284600F091FB00F035FAAF
:1038200003D2012301202B6632BD002032BD38B502
:10383000DFF8C45410232A6F22B983F3118800F0F3
:103840008CF8FEE741F000410160C46824B983F3BD
:10385000118800F082F8FEE700F097FB00F020F9F5
:1038600000F00CF838BF6A6500F00CF8A96AE26A4B
:10387000C86A90423CBF0121296631BDE26A686D89
:10388000904270471420DFF874344243211D981889
:1038900000F055BBDFF860144A6E0260096D4160AC
:1038A0007047F8B504460D46102014B900F053F8DF
:1038B000FEE715B900F04FF8FEE700F0EDFBDFF88A
:1038C0003804016D62682E688B1A16F1010F0ED054
:1038D000476ED4F800C0674501D091420BD2B34285
:1038E00007D2F31A2B60416E2160006D60600024E6
:1038F00002E000212960012400F0E7FB2046F2BD30
:103900000120DFF8F41308667047000070B5634CBF
:103910007B4D11E000F0C0FB286AC668301D00F046
:1039200034FBE86C401EE864696B491E696300F073
:10393000CCFB304600F083F8686B0028EAD12168A0
:103940000229F9D34FF08050DFF8B423106000F063
:1039500004F8F1E7102080F31188BFF34F8FBFF315
:103960006F8F704770B505000E461446644808BF57
:10397000856A356005F134017160EA6A3261296B4C
:10398000F1616A6CB260E96C71616A6D052BB261BC
:1039900011D0816A8D4208BF00200FD0032B3373F2
:1039A0000DD1016F491C0167A86A08B1022131736A
:1039B000FFF78AFD03E02846FFF7FFFB30731CB1D9
:1039C000286B00F031F800E00020308470BD2DE954
:1039D000F84304460D4628689046002708B36968F6
:1039E00005F1080248686860904204BF406868605A
:1039F0006968CE68686805F10801406868608842B7
:103A000004BF40686860686843460122D0F80C90A3
:103A10002420784321184846FFF7A4FF7F1CB145B6
:103A2000E8D13846BDE8F2830146002000E0401CA2
:103A300011F8012BA52AFAD08003000C704710B5AD
:103A4000044694F85D0040B9206B00F0FCF9204674
:103A5000BDE8104000F0F7B910BD0128F7D00228EA
:103A6000FAD0FFF777FFFEE72549C86A006818B962
:103A70004FF0FF32CA667047C86AC268D368586898
:103A8000C8667047DFF87012886D08B9012070476A
:103A9000086F08B902207047002070474441002099
:103AA000201D00F072BA38B50446002134B3DFF8A7
:103AB00048521022A86A844204D082F31188FFF78A
:103AC0004CFFFEE7206D20B982F31188FFF745FF18
:103AD000FEE7E26A401EE36C20659A420ED068B9A8
:103AE000FFF7DEFFE26CE262C2F13800A061696DAF
:103AF000914238BF6A65FFF7C5FE0121084632BD15
:103B0000B04B002010B5044600F06CFD2046FEF7D7
:103B1000D1FF202101E02154401C0F28FBD30022BB
:103B20002254204410BD00002DE9FE4F0446002021
:103B30002070DFF8C401D0F84C90C06C2425684395
:103B400000F0F8F85FEA00083CD000224946FFF791
:103B50000DFD824620460FF2B419002415E000271F
:103B600000E044277168641CFFF7CCFF8346B0680F
:103B70000190318C3A46584600913369494600F02D
:103B80003DFD5846FEF796FF5844544515D205FBB7
:103B900004F108EB0106317B0429E0D8DFE801F0ED
:103BA0000507090B0400DAE7DBE75827DAE75227B5
:103BB000D8E74227D6E75327D4E74046BDE8FE4F73
:103BC00000F041B9BDE8F78F2DE9F84F0546002018
:103BD0002870DFF82401D0F84CA0C06C2426704374
:103BE00000F0A8F85FEA000834D06A465146FFF7B3
:103BF000BDFC009981466422B1FBF2F210000092F4
:103C000025D0284600270FF2141A45461CE00FF273
:103C1000181100F0F3FC12E006FB07F1009A6C1893
:103C2000A169B1FBF2F86168FFF76CFFB8F1000F12
:103C30008346A269EBD04346514600F0DFFC58466C
:103C40007F1CFEF737FF58444F45E5D3A846404652
:103C500000F0F9F8BDE8F18FDFF89C10886A806900
:103C60008A6A896ACB6AC3F138039361704700009E
:103C7000B04B002000F029FA284670BD000000007B
:103C800004ED00E03046BDE8F283A86AE26AC16A4A
:103C90009142704700001420184B4243211D981890
:103CA000704700F012FA204610BDF8B5124D0C46D0
:103CB0002F6DA96A0646081D00F067F916F1010F7D
:103CC00005D124B1A86A011D05F138001AE0A86ADF
:103CD000F619BE424660A86A05D2011D286BBDE8F0
:103CE000F44000F039B9011DE86A00F035F9E86EDA
:103CF000864238BFEE66F1BDB04B00204441002043
:103D000004ED00E0BDE8F44000F019B909256309AD
:103D100025750925750925750D0A00000925750900
:103D200009257525250D0A0009257509093C312548
:103D3000250D0A002DE9F8430446694FFFF7BEFB45
:103D4000B8684FF00009002508BB07F1200313F005
:103D5000070F07F120014FF470500A4605D0CA1D25
:103D6000D208D200C2F57053C81880180838C008AD
:103D7000C0003A60811A7D60B8604560056051609E
:103D8000106050683861F8604FF00040F861F969E0
:103D90004FF010080C4246D1002C44D0083414F0E7
:103DA000070F04D004F1080104F007000C1A002CDE
:103DB00039D0F868A04236D339463E6801E0314632
:103DC00006467268A24202D230680028F7D1B8686D
:103DD000864228D00A6833680B6002F108097268CD
:103DE000121B102A0CD9311911F0070002D000F073
:103DF00023F8FEE7301D02510846746000F04DF8CC
:103E00007168F8683C69401AF860FA68A24288BF95
:103E10002246F8693A610143716035607A6909F0B8
:103E20000705521C7A61FFF74FFB15B100F004F84B
:103E3000FEE74846BDE8F28388F31188BFF34F8F51
:103E4000BFF36F8F7047002800D1704738B5A0F1DD
:103E50000805234C6968E2691023114204D183F3F9
:103E60001188FFF7EBFFFEE7286820B183F3118884
:103E7000FFF7E4FFFEE791436960FFF71FFBE1688E
:103E8000686841182846E16000F007F8A169491CFC
:103E9000A161BDE83140FFF717BB114930B50A46B3
:103EA00000E01A4613688342FBD35368D418844257
:103EB00003D14068C3181046536043681468C5189E
:103EC000A54208D189688C4204D06168CB18436050
:103ED000246800E00C460460824218BF106030BDC8
:103EE000C400002062F30F2262F31F4200B500BF3E
:103EF000130096469446103928BFA0E80C50FAD813
:103F00005FEA417C28BF0CC048BF40F8042BC907BA
:103F100028BF20F8022B48BF00F8012B00BD4FF04E
:103F2000FF3200F10801826000F1080341600022C5
:103F3000C36001610260704700210161704710B5E4
:103F400042684A6093688B60946861609160086120
:103F50000168491C016010BD30B50A6812F1010FFB
:103F600008BF036907D000F1080300E023465C683E
:103F70002568AA42FAD25A684A6091608B605960FB
:103F800008610168491C016030BD10B543680169D2
:103F900082689A608268446854604B68834204BFB8
:103FA00082684A60002303610868401E0860086850
:103FB00010BD00004908490010B5A0F120034FF0E2
:103FC000807499610FF215011A606FF00202DC61D2
:103FD000596140F8242D203810BD00005B491020A5
:103FE0004A6812F1010F80F31188BFF34F8FBFF3BE
:103FF0006F8F00D0FEE7FEE77CB5554A10211068B0
:10400000544B984202D100F0B3F8FEE71068524BCF
:10401000984202D100F0ACF8FEE7504BFF251C7827
:1040200001944A4C1D701E788DF800609DF80000C8
:1040300000F010002070072005E09DF80050401EA1
:104040006D008DF800509DF800603506F5D44542AE
:1040500015F1030F03D0A06000F08AF8FEE700021C
:1040600000F4E060A06001981870116A41F47001DA
:104070001162106A40F07040106200F0DFFA002117
:10408000616000F03BFB3648026842F0404202604B
:1040900000F024FB002076BD102080F31188BFF3D0
:1040A0004F8FBFF36F8F29494A68521C012A4A601B
:1040B0000AD12C490A68130606D080F31188BFF391
:1040C0004F8FBFF36F8FFEE770472049486838B9BC
:1040D000102080F31188BFF34F8FBFF36F8FFEE77F
:1040E000401E486008BF80F31188704780B51020DB
:1040F00080F3118800F03EF8FFF786FA18B14FF010
:10410000805018490860002282F3118801BD000028
:1041100010B5EFF30580102210280C4909D3124B7B
:10412000185C0C78A04204D282F3118800F022F8C7
:10413000FEE788680D490B6803F4E063984204D2F7
:1041400082F3118800F016F8FEE710BD0000002091
:1041500000ED00E071C20F4170C20F4100E400E0C9
:1041600034EF00E004ED00E0F0E300E00CED00E0EF
:1041700081F31188BFF34F8FBFF36F8F704700003B
:10418000034B036003F160000860802111607047F9
:10419000A445002010B586B0DFF8F44300F0B6F96E
:1041A000A068C0B1002204A9059205A8049203AA40
:1041B00000F0B2FA0522059800920499039A029041
:1041C000019100230FF2D0310FF20910FEF770FEBB
:1041D0000028E06005D1102181F3118800F042F839
:1041E000FEE7012006B010BD2DE9FC4105460E4654
:1041F000174698462C20FFF79DFD04000BD00021A8
:10420000434684F82810089800903A4601943146B5
:10421000284600F003F82046BDE8F6812DE9F84372
:104220000E0081461546984602D100F018F8FEE7C8
:10423000099C94B1089F00F069F9C4F80090201D12
:10424000A661C4F81C802762FFF776FE2DB194F8B2
:10425000280040F0040084F82800BDE8F183102015
:1042600080F31188BFF34F8FBFF36F8F7047F8B59E
:10427000044684B01E46002014B9FFF7F0FFFEE7A5
:10428000DFF80C73BD68BDB106290091019202945C
:104290000CDAFFF7F7FB022807BF0A9A0023002376
:1042A0000022B868694600F0C5FA05E000233246EE
:1042B0006946284600F052FB05B0F0BD040007D166
:1042C000102080F31188BFF34F8FBFF36F8FFEE78D
:1042D000FFF7E2BEF8B586B0AD4D2968086810B9A1
:1042E0000124002602E0C86800240668FFF7E6F80B
:1042F00001A800F0B3F80746019800283FD154BB4D
:10430000B7422DD3FFF7E0F82868C168CC68201DBC
:10431000FFF73BFE94F82800410717D5A169334603
:104320003A462046891900F0D6F840B10020002313
:104330000090324600212046FFF799FF18B1216A0C
:104340002046884725E0FFF78AFFFEE700F0FE00E1
:1043500084F82800F3E7686801684C1EA441E40F64
:10436000A8682246F11B00F083FCFFF7ADF880B986
:104370004FF0805087490860FFF774FF09E0FFF7AE
:10438000A3F806E094F8280081073BD42046FFF705
:104390005AFDA868002202A900F030FB00289CD03A
:1043A0000298002803D505990498039A904702982B
:1043B0000028EED4049C606910B1201DFFF7E5FDD4
:1043C00001A800F04BF802990929E2D8DFE801F0D2
:1043D0002121211A070621211A07DAE7D2E794F8EA
:1043E000282042F0010284F828200399A16131B10C
:1043F000034602460918204600F06DF8C9E7FFF7AA
:104400002EFFFEE794F8280000F0FE0084F8280054
:10441000BFE794F828100246A06941F0010184F832
:10442000281003990B464118204600F054F8002844
:10443000AFD0216A2046884794F828004207A8D5C3
:104440000021039A0091A069002382182046FFF7FB
:104450000EFF00289DD1FFF702FFFEE72DE9FC418A
:1044600006464B4DFFF77EF80446286984420BD37D
:104470000021316020462C61BDE8F6817860391D4D
:104480003F612868FFF768FD29680868F0B1C868CF
:10449000C768D0F80080381DFFF777FD396A3846C5
:1044A000884797F828004207EED5B8694044804510
:1044B000E4D3002000230090424600213846FFF755
:1044C000D6FE0028E0D1FFF7CAFEFEE76868696003
:1044D00028600121CDE738B500248A4241602C4D87
:1044E000006106D3D21A83699A4206D2011D686818
:1044F00007E09A4203D2994201D3012403E0011D4F
:104500002868FFF729FD204632BD00001CB5FFF7E3
:10451000C3FD1F4CA068E0B904F11400FFF7FFFCD5
:1045200004F12800FFF7FBFC04F1140004F128015A
:1045300000222060616004F13C03009204F18C02CF
:104540001021142000F02DF9A06010B114A100F08A
:104550007BFBBDE81340FFF7B8BD10B5FFF7AEFE1B
:10456000E469FFF7B2FD204610BD38B584B01C46A3
:10457000039222460190064CA0686FF0010502915B
:1045800000230095694600F0E9F905B030BD000050
:10459000E449002004ED00E0546D7220537663007E
:1045A000546D7251000000000020054908607047FA
:1045B000034800687047000002A000F07DBB0000C7
:1045C0004C4F0020646973636F7665722073746169
:1045D000636B4F766572466C6F77202121210D0A3F
:1045E000000000005FEA000C11F8012B00F8012B1D
:1045F00012B111F8012BF9E7604670470CB430B5E1
:1046000083B00A4606A9029104460025019400954C
:1046100002AB01A9084878441E30FDF79CFA019AC4
:10462000157000284EBF04460198041B204603B0B5
:1046300030BC5DF80CFB00BF33E4FFFF30B5084829
:104640000021016000228260064B1C684FF47A75DD
:104650000721B4FBF5F56D1E4560016030BD00BF5C
:1046600010E000E03C000020EFF30980BFF36F8F03
:10467000264B1A681EF0100F08BF20ED108A20E9A3
:10468000F04F106009B44FF0100080F31188BFF3B1
:104690004F8FBFF36F8FFFF71BF84FF0000080F3D1
:1046A000118809BC19680868B0E8F04F1EF0100FB7
:1046B00008BFB0EC108A80F30988BFF36F8F704792
:1046C000124B19680868B0E8F04F80F30988BFF30F
:1046D0006F8F4FF0000080F3118870470C4800681E
:1046E000006880F308884FF0000080F3148862B6F9
:1046F00061B6BFF34F8FBFF36F8F00DFDFF8140099
:10470000016841F47001016070470000D84B00203F
:1047100008ED00E088ED00E0044B036003F1600069
:1047200008604FF480711160704700BFE43C0020C6
:1047300070B504000D4602D100F074F8FEE7FFF7F3
:10474000ABFC206CE16B2268002600FB01F3491EE4
:1047500048434FF0FF311344A3601044A663E06068
:1047600004F1440062600170417075B92069A0B124
:1047700004F11000FFF733F878B14FF08050DFF804
:10478000E814086000F0D5F907E004F11000FFF725
:10479000C6FB04F12400FFF7C2FBFFF796FC0120E3
:1047A00070BD7CB51C46102320B983F3118800F03E
:1047B000C0F9FEE724B983F3118800F0BAF9FEE7E7
:1047C0002AB129B983F3118800F0B3F9FEE779B96A
:1047D00050250095009E502E0FD1009B34B1069BB2
:1047E000012584F84650009400F00CF8204676BD70
:1047F00083F3118800F09DF9FEE783F3118800F040
:1048000098F9FEE738B51C46049D00290CBF2D60C1
:104810002A60E863284629640121FFF789FF85F8AB
:104820004C4031BD102080F31188BFF34F8FBFF390
:104830006F8F70472DE9F64782B004461E46102759
:1048400014B900F074F9FEE75FEA010A01D1206CA7
:1048500060B9022E02D1E06B01280AD1FFF712F9EC
:1048600050B9039840B100F062F9FEE700F05FF93B
:10487000FEE700F05CF9FEE72746002400F03DF972
:104880002DE0039800284AD00CB900F04CF9FFF74E
:104890001CFCFEF713FEFFF7FFFB07F1440000F0DE
:1048A00038F904BF0022027000F038F904BF00227A
:1048B0004270FFF70AFC00F04DF8002844D1FFF7E2
:1048C000EBFBB86BF96B884214BF00250125FFF79D
:1048D000FCFB45BB384600F078F9FEF7F5FDFFF725
:1048E000DBFBB86BF96B884201D3022EC9D132468B
:1048F0005146384600F022F9796A29B107F12400BF
:10490000FEF76DFF08B904E018B1C8F8009000F098
:1049100010F9FFF7DAFB012004B0BDE8F087FFF7DC
:10492000D4FB0020F8E7039907F11000FEF70FFF12
:10493000384600F04AF9FEF7C7FD0028CFD1C8F885
:10494000009000F0F6F8CAE7384600F03EF9FEF7AE
:10495000BBFDE6E703A96846FEF7A3BF2DE9F843D0
:104960000446884615461E46102714B900F0DFF8A5
:10497000FEE7B8F1000F01D1206C28BB022E02D156
:10498000E06B012823D1FFF7C3FBEFF3118900F09F
:104990002BF801D3022E22D194F94570A06B324638
:1049A0004146204600F0CAF817F1010F12D1606AA3
:1049B00098B104F12400FEF712FF002818BF002D63
:1049C0000BD00120286008E000F0B1F8FEE700F00D
:1049D000AEF8FEE77F1C84F84570012000E000205F
:1049E00089F31188BDE8F28387F31188BFF34F8FF5
:1049F000BFF36F8FA06BE16B884270472DE9F743DF
:104A000006460F460024102526B985F3118800F0CC
:104A100090F8FEE70FB9306C48B9FFF733F878B972
:104A2000029868B185F3118800F083F8FEE785F3FA
:104A3000118800F07EF8FEE700F069F8FEF744FD0B
:104A4000FFF72AFBB56B00F058F8002D31D1029822
:104A5000002844D00CB900F066F8FFF736FBFEF7EB
:104A60002DFDFFF719FB06F14400415711F1010F2D
:104A700004BF0022027000F051F804BF002242700F
:104A8000FFF723FB02A9FFF766FF002830462AD173
:104A900000F0CFF80028CFD000F034F800F037F85D
:104AA000FEF712FD0028CBD1C8F8009000F041F8C5
:104AB000C6E73946304600F075F86D1EB5633069BB
:104AC00040B106F11000FEF78AFE18B1C8F8009058
:104AD00000F02FF8FFF7F9FA0120BDE8FE83FFF799
:104AE000F4FA0020F9E700F070F8FEF7EDFC30462C
:104AF00000F09FF80028A3D0F3E7DFF86C814FF0B7
:104B000080597047029906F12400FEF720BE304616
:104B10005BE090F9001011F1010F704790F901105E
:104B200011F1010F704768460124FEF7B3BE87F309
:104B30001188BFF34F8FBFF36F8F7047F8B50646EC
:104B40001546B46B326C002742B9316831BBB0688E
:104B5000FEF7A9FF00210746B1601FE065B9706844
:104B6000FDF7DEFFB2687068316C084490427060F7
:104B700014D33068706011E0F068FDF7D1FF306C3D
:104B8000F16840420144F1603268914202D2B36858
:104B90001844F060022D01D104B1641E641C384633
:104BA000B463F2BD38B5026C0B466AB1C168846863
:104BB0001144C160A14224BF0568C560C1681846A0
:104BC000BDE83840FDF7ACBF31BDF8B5054605F18D
:104BD0004404FFF761FA94F9016007E005F124004D
:104BE000FEF7FDFD08B1FEF78BFE761E70B20128C0
:104BF00002DB686A0028F1D14FF0FF366670FFF7DC
:104C000064FAFFF749FA94F9007007E005F1100023
:104C1000FEF7E5FD08B1FEF773FE7F1E78B20128AE
:104C200002DB28690028F1D12670BDE8F140FFF7CA
:104C30004CBA10B50446FFF72FFAA06B441EA441EE
:104C4000FFF743FAE00F10BD10B50023074C54F8EE
:104C500033201AB15B1C082BF9D310BD44F8331074
:104C600004EBC301486010BD04ED00E0D05000200B
:104C7000F8B504460D46164604F13807FFF70CFA5E
:104C800097F90C0010F1010F04BF0021397397F957
:104C90000D0010F1010F04BF00217973FFF715FA21
:104CA000386828B93246294604F12400FEF77DFD14
:104CB0002046BDE8F24088E70EB4C0B5024603A81E
:104CC00000210190009101AB0121044878440C308F
:104CD000FCF741FF06BC5DF810FB00BF315F000030
:104CE00038B5040001D1012032BD04F184056868A3
:104CF00008B900F01BF800F01EF808B100F02EF81B
:104D000000F029F8012806D0206800F005F800F02E
:104D10001BF800F085BA32BD416821F49041416032
:104D20002068826822F02A028260704700212046B3
:104D3000297000F0C4BE242068602068016849081A
:104D400049000160A06A70472068016841F00101D4
:104D5000016020467047204600F066BA204600F009
:104D60006FBC2DE9F843054605F15406706B0C46FF
:104D70001746994620283ED10CB1380001D10120B8
:104D80003AE000202121F0637163FCF7DBFE3780FD
:104D900080467780A968B1F5805F04BF2869002844
:104DA0001ABF204600272746044611E00022802132
:104DB00000F024F8D8B92868002C12BF14F8011BA1
:104DC00037F8021BC1F3080181627288511E71809D
:104DD0007088CDF8009043460028E7D1002240219A
:104DE00000F00CF818B920207063002004E02021A6
:104DF0000320716300E00220BDE8F283284600F042
:104E0000DABCF8B5044604F15405686B1346202853
:104E100038D121B3180022D0216500202B80212118
:104E20006B80E8636963A86AD8B1DFF8E0130026F5
:104E3000C163AA6ADFF8D803DFF8D8131064A86A40
:104E4000C164AF6A3E652068216D00F12802A86A3E
:104E5000FBF70CFC28B110202021E86369630120D6
:104E6000F2BD226840201062216801F1080353E876
:104E7000001F206841F0800100F1080200F0E3FC0F
:104E8000F2D1F2BD0220F2BD134643E80010002823
:104E90007047286881684A0670472DE9F84305463F
:104EA00040F60F0C2A6805F15C04D36910460768C8
:104EB000966813EA0C0F03F0200107F020000DD1D3
:104EC000002914D010B9F00040F19080A1690029A8
:104ED00000F078812846BDE8F4430847DFF8ECC6C7
:104EE00016EA0C0F04BFDFF8E8E617EA0E0F00F031
:104EF0007D805FEAC37848BF5FEAC75E07D54FF0A1
:104F00000109C2F82090626B42F0010262639A07C5
:104F10000BD5F20709D5D5F800E04FF00208CEF81E
:104F20002080626B42F0040262635A070BD5F207DD
:104F300009D5D5F800E04FF00408CEF82080626B68
:104F400042F0020262631A070FD5002808BF16EA72
:104F50000C0F0AD0D5F800C00822CCF82020D4F8D5
:104F600034E04EF0080EC4F834E01A0509D57B0190
:104F700007D52A684FF400671762636B43F020037C
:104F80006363626B002A30D031B108B9F00003D5F9
:104F9000A16909B128468847606B29688A68530669
:104FA00002D410F0280F1BD000F012F9FFF771FFA8
:104FB00011D500F010F9FCD1606A60B1DFF8141669
:104FC0000165606AFBF7AEFE00280ED0606A016DD5
:104FD000BDE8F44308472846BDE8F24300F0ACBE04
:104FE000284600F0A9FE00206063EBE0216901295A
:104FF00040F0A980D80600D5F90640F1A48010231E
:105000001362FFF746FF6AD5606ADFF8CC350168A6
:1050100099421CBFDFF8C42591422ED0DFF8C0654D
:10502000B1421CBFDFF8BC35994226D0DFF8B82565
:1050300091421CBFDFF8B465B1421ED0DFF8B03535
:1050400099421CBFDFF8AC25914216D0DFF8A86565
:10505000B1421CBFDFF8A43599420ED0DFF8A0257D
:1050600091421CBFDFF89C65B14206D0DFF898354D
:1050700099421CBFDFF89425914249688AB2002A00
:1050800035D023889A42B0D26180C069B0F5807F64
:105090001DD0296851E8001F2A6821F4807100F0B2
:1050A000D2FBF6D100F07AFBFCD100F0A1F8FCD1E4
:1050B00020200021206321612A6852E8001F21F08E
:1050C0001001FFF7E1FEF7D1606AFBF755FC022102
:1050D000616121886088091A89B228462FE02188F9
:1050E00062886088891A00281CBF88B2002869D0AD
:1050F0002A46136853E8003F156823F4907300F0C4
:1051000063F8F6D11068444F00F1080353E8003FFC
:1051100000F108063B4046E800300028F2D120208C
:10512000002320632361A36100F022FC064646E8C9
:1051300000300028F8D1022089B260611046BDE835
:10514000F44300F0FABDD90209D5700207D54FF437
:10515000801328461362BDE8F24300F0EFBD180645
:1051600009D5390601D4300205D5E16951B3284685
:10517000BDE8F4430847580612D5790610D52A68C9
:1051800052E8001F21F04001FFF77EFEF7D12020FA
:105190000021E0622846E161BDE8F24300F0CFBDA6
:1051A000180206D5790004D52846BDE8F24300F080
:1051B000C7BDD80148BF002F04D52846BDE8F2433B
:1051C00000F0BFBDBDE8F18345E80030002870471E
:1051D000284600F05EBB286800F1080353E8001F72
:1051E00000F1080221F0400142E800100028704759
:1051F000286800F1080151E8001F00F1080321F0C0
:10520000400143E800100028704700002B590008B7
:10521000695900087D590008FEFFFFEF2021516009
:10522000BDE8324070E200002DE9F04186B004464E
:105230002168DFF8B80600250E68A26823690640D9
:1052400060691643E2691E4306431643DFF8982659
:105250000E604B68E06823F44053034391424B6077
:10526000A6691CBF236A1E438F68DFF884060740C7
:105270003E438E60CB6A606ADFF878760FF2903634
:105280001B09B94240EA0313CB62DFF86C3648D100
:10529000586D10F0380000F09D80082800F0D38091
:1052A00010284BD018285AD0202800F06A802828CF
:1052B00000F07A804FF0800C9142DFF84006DFF872
:1052C00040E64FF4004840F0E980BCF1020F14D0F2
:1052D000BCF1040F00F0BA80BCF1080F00F0BB80F5
:1052E000BCF1100F00F0BC80BCF1200F00F0C080BA
:1052F000BCF1400F00F0BE805BE101F019F900281D
:1053000000F05881616A36F81120B0FBF2F662684D
:1053100002EB42039E4203D31103B14280F0AC8002
:1053200047E1DFF8E00581420BD100F084F9C1D8F4
:10533000DFE807F075890415273ABBE74FF0080C42
:10534000BAE7DFF8C40581420CD100F074F9B1D896
:10535000DFE807F065790405172AABE7EEE74FF0C1
:10536000100CA9E7DFF8A40581420DD100F063F924
:10537000A0D8DFE807F05468050406199AE7EEE7BD
:10538000DCE74FF0200C97E7DFF8640681420ED18E
:1053900000F051F9F2D8DFE807F04256060504079D
:1053A00088E7EEE7DBE7C9E74FF0400C84E7DFF87A
:1053B0004406814211D15F6D17F038070AD0082FDB
:1053C00041D0102FBAD0182FC9D0202FD9D0282FD4
:1053D000EAD06FE74FF0010C6EE7DFF81C06814260
:1053E0000CD100F028F9F4D8DFE807F0192D0706F2
:1053F00005045FE7D8E7C4E7B1E79FE7DFF8FC05FE
:1054000081420ED100F017F9F3D8DFE807F0081C4D
:10541000070605044EE7C7E7B3E7A0E78EE7AC460B
:105420004AE79142F6D1986D00F00700052804D8AC
:10543000DFE800F00809070605043BE7B4E7A0E74A
:105440008DE77BE759E74FF0040C35E703A801F03F
:105450007FF8049853E7684601F0A6F801984EE7F4
:1054600019688A0605D51F68C7F3C101C84046E719
:10547000704647E7404645E75008002110EB0620FC
:1054800051EB16610023FDF781FCA0F54076DFF8B3
:1054900070158E421DD22768F8608BE0E1694FF6E7
:1054A000F077B1F5004F44D1BCF1000F12D0BCF140
:1054B000010F25D0BCF1040F25D0BCF1080F27D077
:1054C000BCF1100F29D0BCF1200F2ED0BCF1400F41
:1054D0002DD06EE001F065FC00286BD000F0A4F840
:1054E0004E0806EB4006B6FBF1F0A0F11001B94200
:1054F0005FD20740C0F3420007432068C76059E00D
:1055000001F057FCE8E703A801F022F80498E3E76C
:10551000684601F049F80198DEE719688A06DDD58A
:105520001968C1F3C101C840D6E77046D6E74046C6
:10553000D4E7BCF1000F12D0BCF1010F20D0BCF1B8
:10554000040F20D0BCF1080F22D0BCF1100F24D0E2
:10555000BCF1200F29D0BCF1400F28D029E001F088
:1055600020FC38B300F060F800EB5100B0FBF1F024
:10557000A0F11001B9421CD2226880B2D06019E0BB
:1055800001F017FCEDE703A800F0E2FF0498E8E75C
:10559000684601F009F80198E3E719688A06E1D541
:1055A0001968C1F3C101C840DBE77046DAE740463D
:1055B000D8E7012504F16800012100234180018022
:1055C000C3600361284606B0BDE8F0810100001009
:1055D00020010004CB5900081000024028000240BE
:1055E0004000024058000240700002408800024023
:1055F000A0000240B800024010040240280402400B
:1056000040040240580402407004024088040240F2
:10561000010002000400060008000A000C0010004F
:105620002000400080000001626A616836F8123094
:10563000B0FBF3F070475F6D07F00707052F704769
:1056400010B590F828100A0706D502685368816BD8
:1056500023F400430B43536090F82820D10706D56C
:1056600002685368C16A23F400330B43536090F817
:105670002820910706D502685368016B23F4803314
:105680000B43536090F82820510706D502685368F1
:10569000416B23F480230B43536090F82820D106FC
:1056A00006D502689368C16B23F480530B43936063
:1056B00090F82820910606D502689368016C23F4BF
:1056C00000530B43936090F82820510610D50268D0
:1056D0005368416C23F480130B435360436CB3F560
:1056E000801F05D15468816C24F4C0040C435460BD
:1056F00090F82820110606D501684A68C06C22F48B
:10570000002202434A6010BDF8B5054605F1840445
:1057100000206FF07E47E060FCF714FA2968064627
:105720000868020712D50097334600224FF4001193
:10573000FFF764FB50B1286850E8001F21F080019A
:1057400000F080F8F7D12020606018E02A68106827
:10575000410718D50097334600224FF48001FFF728
:105760004DFB80B1286850E8001F21F4907100F0D3
:1057700069F8F7D100F012F8FCD12020A0600021D8
:1057800003202170F2BD2022202062600021A06051
:105790000022E96600202A672070F2BD286800F127
:1057A000080151E8001F490800F10803490043E8D7
:1057B0000010002870472DE9F04105460E4690463E
:1057C0001F46069C2868C1693140B1420CBF0120C8
:1057D0000020404534D114F1010FF3D0FCF7B2F9A9
:1057E000C01B844200D314B90320BDE8F0812868AF
:1057F00001684A07E6D5802E18BF402EE2D0C16965
:105800000A0703D4C1690A05DCD50CE02B6808201F
:105810001862FFF7DDFC05F184000821C160002259
:1058200002700120E1E729684FF400600862FFF789
:10583000CFFC05F184002022C26000210170D3E773
:105840000020D2E7024642E800100028704710B559
:1058500000F008F8FCD100F00FF8FCD12021C0F8CE
:10586000881010BD016851E8002F22F0C0020B46DD
:1058700043E8002100297047016801F1080252E85D
:10588000002F01F1080422F4000244E8002100295D
:10589000704730B500F00EF8FCD100F015F8FCD1DF
:1058A000C16E00F035F820210022C0F88C10C266CD
:1058B000426730BD016851E8002F22F490720B4618
:1058C00043E80021002970470168DFF8385101F1F1
:1058D000080252E8002F01F108042A4044E80021A0
:1058E0000029704700000000000C0058F369FFCF4A
:1058F000FFF4FF1100100140004402580090D00353
:1059000000093D000044004000480040004C0040B9
:10591000012909D1026852E8002F036822F0100221
:1059200043E800210029F5D1704720B50146886B76
:10593000C969B1F5807F13D00022A0F85620016814
:1059400001F1080353E8002F01F1080522F080025D
:1059500045E800210029F2D100F040F8FCD120BD3B
:10596000BDE8204000F0EBB9806B01F083BA000085
:10597000106850E8003F23F010037047F8B5846BBF
:1059800004F1880528686E68216804F156078A6862
:10599000130606D5212804D1002038802046FFF7C1
:1059A00056FF21688A68500606D5222E04D10021B0
:1059B00020463981FFF76DFFA86840F01000A8600D
:1059C0002046BDE8F24000F0B7B9806B002200230A
:1059D00000F156010A810B8000F0AEB9016851E870
:1059E000002F42F040020B4643E800210029704797
:1059F000005000400014014000780040007C00404E
:105A000000FD0F00FEFFFFEF10B5DFF80413DFF815
:105A10000443DFF80403002261604FF40053206068
:105A20000C21A2602046E36000F03CF808B101F0D0
:105A3000D9FE0021204601F0CCFF08B101F0D2FED2
:105A40000021204601F0D0FF08B101F0CBFE204636
:105A500001F0A2FF00B12EE010BD10B54FF4E1310E
:105A6000AE4CAF486160206000220C21A260E26071
:105A7000204600F017F808B101F0B4FE00212046DE
:105A800001F0A7FF08B101F0ADFE0021204601F0B2
:105A9000ABFF08B101F0A6FE204601F07DFF00B18A
:105AA00009E010BD22616161A261E261226262626D
:105AB000A262FFF715B9BDE8104001F093BE2DE9D1
:105AC000F84FB6B00446142200216846954D01F007
:105AD000DDFFC022002106A805F1840601F0D6FFF3
