:020000040800F2
:10000000E05000200D71000885700008877000081E
:10001000897000088B7000088D70000800000000D7
:10002000000000000000000000000000156800084B
:100030008F70000800000000BD67000865700008B0
:100040001D71000821710008257100082971000840
:100050002D710008317100083571000839710008F0
:100060003D710008417100084571000849710008A0
:100070004D71000851710008557100085971000850
:100080005D71000861710008657100086971000800
:100090006D710008717100087571000879710008B0
:1000A0007D71000881710008857100088971000860
:1000B0008D7100081F5600089171000895710008A5
:1000C000997100089D710008A1710008A5710008D0
:1000D000A9710008AD710008B1710008B571000880
:1000E0009D700008B971000800000000BD71000893
:1000F000C1710008C5710008C9710008CD71000800
:10010000D1710008D5710008D9710008DD710008AF
:10011000E1710008E571000891700008E9710008BC
:10012000ED710008093A0008F1710008F571000846
:10013000F9710008FD7100080172000805720008DD
:1001400000000000000000000000000000000000AF
:10015000097200080D720008193A0008F939000800
:100160001172000815720008197200081D7200084B
:100170002172000825720008297200082D720008FB
:100180003172000835720008397200083D720008AB
:100190004172000845720008497200084D7200085B
:1001A0005172000855720008597200085D7200080B
:1001B0006172000865720008697200086D720008BB
:1001C0007172000875720008797200087D7200086B
:1001D0008172000885720008897200088D7200081B
:1001E0009172000895720008997200089D720008CB
:1001F000A1720008A5720008A9720008AD7200087B
:10020000B1720008B5720008B9720008BD7200082A
:10021000C1720008C5720008C9720008CD720008DA
:10022000D1720008D5720008D972000800000000E1
:10023000DD720008E172000800000000E5720008AD
:10024000E9720008ED720008F1720008F57200080A
:10025000F9720008FD7200080173000805730008B8
:10026000097300080D730008117300081573000866
:10027000197300081D7300082173000800000000B6
:1002800025730008297300082D7300080000000082
:1002900000000000317300082DE9F84F044601F01A
:1002A00017FB002C00F030812168DFF890B504F1D5
:1002B0003405DFF88C65DFF88C75DFF88C85DFF8A6
:1002C0008C95DFF88CA5594518BF51452AD0494572
:1002D00018BF414526D0B94218BFB14222D001F023
:1002E000D9F91CBFDFF86C3599421BD001F0CEF96B
:1002F0001CBFDFF86425914214D000F0D9FD1CBF6B
:10030000DFF8582591420DD001F0B8F91CBFDFF895
:100310005035994206D001F0ADF91CBFDFF84425F5
:10032000914245D1022300226B7059452A7018BFB3
:1003300051452AD0494518BF414526D0B94218BF7A
:10034000B14222D001F0A6F91CBFDFF8083599426E
:100350001BD001F09BF91CBFDFF8FC24914214D0A4
:1003600000F0A6FD1CBFDFF8F42491420DD001F08F
:1003700085F91CBFDFF8E834994206D001F07AF91C
:100380001CBFDFF8E024914242D10B688E465B0827
:100390005B00CEF80030009023681868C1073DD597
:1003A00001F096FA009A801A0628F5D32020A8E0DA
:1003B000DFF8B40481421CBFDFF8B024914218D0AA
:1003C000DFF8AC3499421CBFDFF8A804814210D09A
:1003D000DFF8A42491421CBFDFF8A034994208D072
:1003E000DFF89C0481421CBFDFF83028914240F0C6
:1003F0008780022100206970287023681B68A0682C
:1004000040286FF3101340F0818043F0100381E027
:100410000A680B46520852001A60BCE7D3F800C0C5
:10042000A268DFF86004E16800EA0C00104362692A
:10043000014320690843A1691043626A0143E069EE
:100440000843216A0143042A03D1E06A0843216B6F
:100450000143DFF83424D2F800C04FEA1C40000406
:10046000B0F1005F11D36068A0F12902062A24BF11
:10047000A0F13F02042A06D3A0F14702022A24BFBA
:100480004F38042801D241F4801119602268536961
:10049000606ADB0840EAC30304280ED1D4F828E0E0
:1004A000E06A4EEA030340B1A16969B9BEF1000FE9
:1004B00018BFBEF1020F1CD011D35361204601F0CA
:1004C000F9F800F0A2F945E0B1F5005F0BD1BEF1FB
:1004D000030FF2D8DFE80EF00F0D0F03EDE7B0F1D8
:1004E000C07FEAD107E0BEF1020F04D9BEF10301DB
:1004F000E3D1C001E1D540210122296201209BE026
:100500004020286203216970012096E0802808BFFE
:1005100043F48043E168206962694FF0140C08439A
:10052000A1691043226A0143E0690843216843EA54
:10053000D003DFF8580343EA12130B602368C31893
:10054000B3FBFCFC4FEA8C00A862204601F0B2F835
:1005500000F053F92068584518BF50454CD0484525
:1005600018BF404548D0B84218BFB04244D0DFF869
:10057000201388421CBFDFF8DC2290423CD0DFF819
:10058000143398421CBFDFF8D012884234D000F0F8
:1005900047FB1CBFDFF8C43298422DD000F048F969
:1005A0001CBFDFF8BC22904226D000F03DF91CBFF2
:1005B000DFF8B01288421FD0DFF8AC2290421CBF97
:1005C000DFF8A832984217D0DFF8A41288421CBF87
:1005D000DFF8A02290420FD0DFF89C3298421CBF77
:1005E000DFF89812884207D0DFF8942290421CBFAF
:1005F000DFF8283698421BD1204601F0B1F8A068F8
:10060000802804BF00216160E96A20790860286BB6
:100610006A6B4260606838B1092805D2204601F053
:10062000EDF800F0FAF803E00021A963E96329641A
:1006300000210122296200206A70BDE8F28F2DE9B5
:10064000F84F040000F0D7802568DFF8F0A1DFF84C
:10065000E805DFF80412DFF83C22DFF8F831DFF8B4
:100660003062DFF8DCB1DFF8DCC1DFF8DCE1DFF8B5
:10067000DC81DFF8DC91554518BF4D451CD0454560
:1006800018BF754518D0654518BF5D4514D0B542F3
:1006900018BF9D4210D0954218BF8D420CD08542A4
:1006A0001CBFDFF8B871BD4206D0DFF89075BD42BF
:1006B0001CBFDFF8AC71BD422D6827686D086D0066
:1006C0003D60276804F13405574518BF4F4525D0D4
:1006D000474518BF774521D0674518BF5F451DD0F6
:1006E000B74218BF9F4219D0974218BF8F4215D00A
:1006F00087421CBFDFF8640187420FD0DFF83C154A
:100700008F421CBFDFF85821974207D0DFF8300531
:1007100087421CBFDFF84C118F4239D100223B4683
:100720001A602668002000217060226821269160EE
:100730002368D86022682046116123685E6100F05A
:10074000B9FF00F062F8204601F00AF8E86A28B123
:10075000002102461160296B686B4860606830B107
:10076000092804D2204601F049F800F056F800218B
:1007700000220020A963EA632864A960EA60286176
:100780006961AA61E86129626A702870BDE8F28F28
:10079000DFF8D4108F421CBFDFF8D020974217D06B
:1007A000DFF8CC0087421CBFDFF8C8108F420FD0A3
:1007B000DFF8C42097421CBFDFF8C000874207D093
:1007C000DFF8BC108F421CBFDFF8E026974212D141
:1007D00000203B46186026680021002271602068D6
:1007E00082602368D96020680261204600F062FFC1
:1007F00000F003F8A7E70120C8E795F828200121B9
:1008000002F01F0291404160704795F828203F2177
:1008100002F01F02914081607047A96B00200860C0
:10082000E86B2A6C42607047DFF8143498427047D6
:10083000DFF80814884270470000000010000240F2
:100840008800024070000240580002404000024010
:1008500028000240B8000240280402405804024028
:1008600088040240B8040240085402581C5402583C
:100870003054025844540258585402586C54025888
:10088000805402583F8010FE0010005CF8ABFDA7BA
:10089000A0000240100402402DE9F84F054601F087
:1008A00017F8002D044600F0F38005F13406707847
:1008B000022802D080213162E8E02868DFF8F8A53C
:1008C000DFF8F8B500F0A3F918BF48452FD0404530
:1008D00018BF58452BD0DFF8E81588421CBFDFF859
:1008E000E425904223D000F08EF91CBFDFF8D81524
:1008F00088421CD000F09BF91CBFDFF8D03598422D
:1009000015D0DFF8341388421CBFDFF8C4259042AD
:100910000DD000F074F91CBFDFF8B815884206D07E
:1009200000F081F91CBFDFF8B03598420AD10168A8
:10093000024621F01E0111602868436923F08003FC
:10094000436104E00168024621F00E01116028684D
:100950002F68504518BF48454ED0404518BF5845F0
:100960004AD0DFF85C1588421CBFDFF8582590425A
:1009700042D000F048F91CBFDFF84C1588423BD04C
:1009800000F055F91CBFDFF84435984234D0AA492D
:1009900088421CBFDFF8382590422DD000F02FF997
:1009A0001CBFDFF83015884226D000F03CF91CBF90
:1009B000DFF8243598421FD0DFF8201588421CBF8D
:1009C000DFF81C25904217D0DFF8183598421CBF7D
:1009D000DFF8141588420FD0DFF8102590421CBFB5
:1009E000DFF80C35984207D0DFF8081588421CBFA5
:1009F000DFF8B824904204D1F06A016821F48071D4
:100A000001602868504518BF48452ED0404518BFA2
:100A100058452AD0DFF8A82490421CBFDFF8A41460
:100A2000884222D000F0EFF81CBFDFF89C249042EF
:100A30001BD000F01BFE1CBFDFF89034984214D08E
:100A400000F0EEF81CBFDFF8881488420DD000F0EB
:100A5000D6F81CBFDFF87C24904206D000F002FEDE
:100A60001CBFDFF87434984214D102680146520862
:100A700052000A603B68D80712D500F029FF001B1E
:100A80000628F7D3202003213062717000223270D3
:100A90000120B2E001680246490849001160E9E717
:100AA000D5F800E0DFF82404DFF84C14DFF8182450
:100AB000DFF84834DFF80C44DFF804C4D64518BF2B
:100AC000CE4526D0C64518BFDE4522D0E64518BF24
:100AD000A6451ED09E4518BF96451AD08E4518BF14
:100AE000864516D0544FBE451CBFDFF8E473BE45A3
:100AF0000FD0DFF80C74BE451CBFDFF8D873BE45BD
:100B000007D0DFF80074BE451CBFDFF8CC73BE45CC
:100B10000BD196F828704FF03F0E07F01F070EFA22
:100B200007FE776AC7F808E00AE096F828704FF0E9
:100B3000010E07F01F070EFA07FE776AC7F804E0F8
:100B40002D68554518BF4D4545D0454518BF5D45F5
:100B500041D0654518BFA5423DD09D4218BF954282
:100B600039D08D4218BF854235D0334885421CBFED
:100B7000DFF85C138D422ED0DFF8842395421CBF32
:100B8000DFF85003854226D0DFF878138D421CBF72
:100B9000DFF8442395421ED0DFF8400385421CBF96
:100BA000DFF83C138D4216D0DFF8382395421CBF86
:100BB000DFF8340385420ED0DFF830138D421CBFBE
:100BC000DFF82C23954206D0DFF8280385421CBFAE
:100BD000B6498D420CD1336B726B5A60B06B38B131
:100BE00001460A6822F480720260F26B316C516037
:100BF00001200021707000203170BDE8F28FDFF815
:100C0000003398427047DFF8F43298427047DFF8BB
:100C1000F882DFF8F892504570470000945402586B
:100C2000054A90427047DFF8DC2290427047DFF8B7
:100C3000C822904270470000400402407004024005
:100C4000A00402402DE9F84F30B100F13402517890
:100C5000022903D080201062012025E10668DFF818
:100C60005892DFF86812DFF89032DFF85C42DFF864
:100C70008C52DFF850A2DFF848B2DFF840C2DFF84C
:100C800088E2DFF888824E4518BF464527D0764572
:100C900018BF664523D05E4518BF56451FD0AE42EB
:100CA00018BFA6421BD09E4218BF8E4217D0DFF855
:100CB0006072BE421CBFDFF81872BE420FD0DFF870
:100CC0004072BE421CBFDFF80C72BE4207D0DFF894
:100CD0003472BE421CBFDFF80072BE4234D104271A
:100CE0004E45577018BF464527D0764518BF664514
:100CF00023D05E4518BF56451FD0AE4218BFA6424E
:100D00001BD09E4218BF8E4217D0DFF804128E42CD
:100D10001CBFDFF8BC2196420FD0DFF8E4319E42C1
:100D20001CBFDFF8B0118E4207D0DFF8D821964201
:100D30001CBFDFF8A4319E423DD1314608460C6805
:100D4000640864000460AEE0376827F00E0737607F
:100D500006684E4518BF464527D0764518BF6645FC
:100D600023D05E4518BF56451FD0AE4218BFA642DD
:100D70001BD09E4218BF8E4217D0DFF89471BE423E
:100D80001CBFDFF84C71BE420FD0DFF87471BE4259
:100D90001CBFDFF84071BE4207D0DFF86871BE4269
:100DA0001CBFDFF83471BE420CD136680768760884
:100DB00076003E600AE0314608460A685208520052
:100DC000026070E037687F087F00376006684E4534
:100DD00018BF464546D0764518BF664542D05E45A9
:100DE00018BF56453ED0AE4218BFA6423AD09E42EA
:100DF00018BF8E4236D0DFF818118E421CBFDFF8C4
:100E0000D0309E422ED0DFF8F840A6421CBFDFF85B
:100E1000C4108E4226D0DFF8EC309E421CBFDFF8B3
:100E2000B840A6421ED0DFF8B4108E421CBFDFF8D7
:100E3000B0309E4216D0DFF8AC40A6421CBFDFF8AF
:100E4000A8108E420ED0DFF8A4309E421CBFDFF8FF
:100E5000A040A64206D0DFF89C108E421CBF134B68
:100E60009E4219D1D16A0C6824F480740C6092F807
:100E70002830546A012103F01F0399406160156B0B
:100E8000536B6B60916B39B10B461C6824F4807412
:100E90000C60D46B136C6360012100235170D16925
:100EA000137001B188470020BDE8F28F94540258B6
:100EB000174B994270470000100002405800024052
:100EC0007000024088000240B8000240280402403E
:100ED0005804024088040240B804024008540258F2
:100EE0001C54025830540258445402585854025862
:100EF0006C5402588054025810040240A000024072
:100F000070040240A0040240400002402800024059
:100F1000400402402DE9FE4F0021DFF884270191B3
:100F200013684FF4165504460822DFF878B7B3FB70
:100F3000F5F5029504F13405686A01230090DFF8A5
:100F40006877DFF86887DFF868970146DFF8F8A769
:100F50000E680168D4F800C0DC4518BFD44531D014
:100F6000CC4518BFC4452DD0BC451CBFDFF8DCE71D
:100F7000F44527D0DFF8E4E8F4451CBFDFF8D0E7FC
:100F8000F4451FD0DFF8D8E8F4451CBFDFF8C4E70C
:100F9000F44517D0DFF8CCE8F4451CBFDFF8B8E71C
:100FA000F4450FD0DFF8C0E8F4451CBFDFF8ACE72C
:100FB000F44507D0DFF8B4E8F4451CBFDFF8B0E82B
:100FC000F44541D100F044FB02FA00F0064200F083
:100FD0009580DC4518BFD44531D0CC4518BFC445F9
:100FE0002DD0BC451CBFDFF864178C4527D0DFF837
:100FF0006C0884451CBFDFF8580784451FD0DFF814
:1010000060188C451CBFDFF84C07844517D0DFF80B
:10101000540884451CBFDFF840178C450FD0DFF81B
:10102000480884451CBFDFF83407844507D0DFF843
:101030003C188C451CBFDFF8380884454AD1DCF8E1
:10104000000000F0040049E0DFF89467B4451CBFDD
:10105000DFF89067B44518D0DFF88C67B4451CBF43
:10106000DFF88867B44510D0DFF88467B4451CBF4B
:10107000DFF88067B44508D0DFF87C67B4451CBF53
:10108000DFF81866B44540F0E182DCF8006095F8BE
:1010900028C04FF0040E0CF01F0C0EFA0CFE11EAE3
:1010A0000E0FCDF800E000F04B825FEA467E40F183
:1010B000478200994160300440F1F881F10300F16A
:1010C00037826969002900F0C182204603B0BDE87B
:1010D000F04F08476046006800F0080070B16046B5
:1010E000016821F00401CCF8001000F0B1FA824050
:1010F00000988260296A41F00101296200F0A8FA93
:1011000026FA00F1CA073DD52168594518BF514557
:101110002ED0494518BF41452AD0B9421CBFDFF83F
:101120002C26914224D000F0B5FA1CBFDFF820260F
:1011300091421DD000F0AAFA1CBFDFF81826914298
:1011400016D0DFF8202791421CBFDFF80C26914211
:101150000ED000F093FA1CBFDFF80026914207D0B2
:1011600000F088FA1CBFDFF80827914240F08E801B
:101170004969090606D5834000988360296A41F0D1
:101180000201296295F8281000F067FA06423FD064
:101190002168594518BF51452FD0494518BF4145D1
:1011A0002BD0B9421CBFDFF8A425914225D0DFF82F
:1011B000AC3699421CBFDFF8982591421DD000F053
:1011C00065FA1CBFDFF88C35994216D0DFF89426FB
:1011D00091421CBFDFF8802591420ED0DFF888369F
:1011E00099421CBFDFF87425914206D000F042FA04
:1011F0001CBFDFF87C3699424AD1D1F800C05FEAC3
:101200008C7205D500998860286A40F00400286235
:1012100095F82800102100F01F0081400E4259D09F
:101220002068584518BF50452CD0484518BF404548
:1012300028D0B8421CBFDFF81425904222D0FFF717
:10124000E2FC1CBFDFF8082590421BD0FFF7EFFC43
:101250001CBFDFF80035984214D0FFF7E1FC1CBF3B
:10126000DFF8F42490420DD0FFF7C9FC1CBFDFF873
:10127000EC24904206D0FFF7D6FC1CBFDFF8F03517
:10128000984208D1006800F0080009E00A6879E790
:1012900008460368BCE78446DCF8000000F0040060
:1012A000C0B100988160206801684A0307D50068D2
:1012B00001030BD5696969B1204688470AE00168D6
:1012C000CA0503D4036823F008030360E96809B181
:1012D0002046884795F82800202100F01F00814013
:1012E0000E423BD02068584518BF50452DD0484588
:1012F00018BF404529D0B8421CBFDFF850249042A7
:1013000023D0FFF780FC1CBFDFF84464B0421CD040
:10131000FFF78DFC1CBFDFF83C34984215D0DFF896
:101320004465B0421CBFDFF8302490420DD0FFF777
:1013300066FC1CBFDFF82464B04206D0FFF773FCE4
:101340001CBFDFF82C35984203D1006800F0100074
:1013500003E00246106800F00200002847D0009821
:10136000816020686978042927D1026822F016027A
:1013700002602068436923F080034361E968002923
:1013800004BF6869002804D02068016821F00801C2
:10139000016095F8282000993F2002F01F0290403C
:1013A0008860012068700022E9692A70002920D035
:1013B000204603B0BDE8F04F084701684A0307D54F
:1013C000006801030FD4296989B1204688470EE0DF
:1013D0000168CA0507D40368002123F010030360E5
:1013E000012068702970A96809B120468847286AD9
:1013F000002800F02B81296AC80756D504226A709C
:101400002068584518BF50452ED0484518BF404564
:101410002AD0B8421CBFDFF83413884224D0DFF84A
:101420003C2490421CBFDFF8283398421CD000F0C7
:101430001DF91CBFDFF81C23904215D000F022F9E3
:101440001CBFDFF8141388420ED0DFF81C24904232
:101450001CBFDFF80833984206D000F003F91CBF28
:10146000DFF80C24904217D1206803685B085B000A
:1014700001460B600298019A521C90420192216829
:1014800002D30A68D307F6D40868C10747BF03220E
:101490006A7001236B7006E0206801684908490002
:1014A00002461160E6E700202870C8E0B0063FD48D
:1014B0002068584518BF50452ED0484518BF4045B4
:1014C0002AD0B8421CBFDFF88412884224D0DFF84B
:1014D0008C2390421CBFDFF8783298421CD000F079
:1014E000C5F81CBFDFF86C22904215D000F0CAF896
:1014F0001CBFDFF8641288420ED0DFF86C239042E4
:101500001CBFDFF85832984206D000F0ABF81CBF81
:10151000DFF85C23904205D10368014623F00803FD
:101520000B6005E002461346106820F004001860C6
:10153000E968002918D0204603B0BDE8F04F0847FD
:101540004FF0020E0EFA0CFE11EA0E0FCDF800E07D
:101550005DD05FEA867E5AD500994160300409D596
:10156000F1034DD42969002970D0204603B0BDE8AD
:10157000F04F0847B00643D42068584518BF50457F
:101580002ED0484518BF40452AD0B8421CBFDFF8CE
:10159000BC11884224D0DFF8C42290421CBFDFF87F
:1015A000B03198421CD000F061F81CBFDFF8A421D4
:1015B000904215D000F066F81CBFDFF89C118842FD
:1015C0000ED0DFF8A42290421CBFDFF89031984281
:1015D00006D000F047F81CBFDFF89422904205D1F6
:1015E0000368014623F014030B6005E0024613462E
:1015F000106820F00A00186001210020697028702E
:10160000A96819B3204603B0BDE8F04F084702FAB5
:101610000CF211421AD0310718D52268166826F04C
:101620000E06174601223E6095F8281001F01F01B2
:101630008B4043600120286200216A702970A969EB
:1016400021B1204603B0BDE8F04F0847BDE8F78F51
:1016500095F8280000F01F007047042001F01F01DA
:1016600088407047DFF8041288427047DFF8F011B5
:1016700088427047DFF8F42191427047DFF8E82193
:1016800091427047DFF8DC3198427047DFF8D02193
:1016900091427047DFF8C421914270479454025838
:1016A0003800002010000240700002405800024044
:1016B00040000240F0B501686F4A91421CBF224BC6
:1016C000994229D06D4CA1421CBF6D4A914223D052
:1016D0006C4B99421CBF1D4CA1421DD0FFF7DAFF95
:1016E0001CBF1B4B994217D05D4CA1421CBF194A2D
:1016F000914211D0FFF7DCFB1CBF174CA1420BD06D
:10170000FFF7BCFF1CBF154B994205D0574CA142B7
:101710001CBF574A914211D101F0FF03890A103BC7
:101720001824B3FBF4F20FF2A01502F007068902A9
:10173000AF5D042AC76503D3091D01E0090A090248
:1017400081650846F0BD0000280002408800024084
:10175000B8000240280402405804024088040240B5
:10176000F0B5046801221E4D2346AC421CBF1D4E3D
:10177000B44211D01C4FBC421CBF1C4DAC420BD01C
:101780001B4EB4421CBF1B4FBC4205D01A4DAC428D
:101790001CBF384EB4420DD104F0FF0108391423A8
:1017A000394DB1FBF3F1394B03EB810301F01F011C
:1017B0008A4011E004F0FF0110391824B1FBF4F461
:1017C0003349CB18A92B38BF0834324B324D03EBC9
:1017D000840304F01F04A240036645668266F0BDE0
:1017E000085402581C5402583054025844540258A9
:1017F000585402586C5402588054025801790029F8
:1018000000D170470929F0B527D20268234B9A42CC
:101810001CBF234DAA4211D0224EB2421CBF224B04
:101820009A420BD0214DAA421CBF214EB24205D094
:10183000204FBA421CBF0F4DAA4204D11E4B1F4A73
:1018400003EB810403E01E4A02EB81041D4A0123DD
:10185000491E8B40C46602674367F0BDA00002408A
:10186000100402404004024070040240A004024000
:10187000B804024094540258100002404000024054
:101880005800024070000240805802580058025828
:10189000F0FBFDBF000802408008024008540258D7
:1018A0001C54025830540258445402585854025898
:1018B0006C54025880540258FC580258405902583F
:1018C000FC080240400902400006101600061016EF
:1018D00001484068704700BF0C00002040F0200025
:1018E00070472DE9F14FB0B0924604910DF14201DD
:1018F0003A9A2B9199464A7000200AE01AF8011B87
:101900000498309A90470028049000F041860D9882
:10191000401C0D909AF8000050B12528EED100210E
:1019200000220791089209910A920B910C9204E00F
:101930000D9800F02FBE41F001011AF8010F202888
:10194000F9D023280CD02B2804D02D2805D03028FE
:1019500009D00BE041F00201EFE741F00401ECE7B0
:1019600041F00801E9E741F01001E6E72A280FD12C
:10197000D9F8002052F8040BC9F8002000280F9075
:1019800003D540420F9041F004010AF1010A14E02E
:101990000F92DFF8083C0AE00F98984205DA00EB56
:1019A000800402EB4402303A0F920AF1010A9AF8DD
:1019B0000020A2F130000A28EED39AF800002E2869
:1019C00003D04FF0FF320E9229E01AF8010F2A28B7
:1019D00009D1D9F8000050F8042BC9F800000E9284
:1019E0000AF1010A1BE02D280CBF0AF1010A0020B0
:1019F00000220E92DFF8A44B0BE040B90E9AA242EF
:101A000005DA02EB820503EB4503303B0E930AF146
:101A1000010A9AF80030A3F130020A2AEDD3ADF89A
:101A200040100FF67C309AF8001000F0D9FE08B193
:101A30001AF8010B8DF842009DF84200682805D184
:101A40009AF8000068280CD1622106E06C2804BFD7
:101A50009AF800006C2804D171218DF842100AF127
:101A6000010A12A806901AF801BBBBF125012CD07F
:101A70001C3900F09481091F022940F2908113392A
:101A800000F0B884093900F08A81891E00F04D8584
:101A9000491E00F0FA84491E022940F28081091F84
:101AA00000F0F384491F00F0EF80491E00F0A2848B
:101AB000491E00F0D780C91E0CD0891E00F09A8400
:101AC000C91E00F0978400F03BBD01230793252138
:101AD00000F033BDD9F8000050F8044BC9F80000FD
:101AE000002C059440F0AB802B994878002800F03A
:101AF000A1804FF0FF340FF6B02000F081FE241AD1
:101B000040F0468500F028BD01236A4602A9304610
:101B100000F00EFE002840F03B85641EF4D13096A4
:101B2000079C12AF74B1309E17F8011B0498B047A0
:101B30000028049000F02C850D98401C641E0D9028
:101B4000F2D130960A9C3021002C8DF800100CDD6B
:101B5000309E01236A4602A9304600F0E9FD0028C4
:101B600040F01685641EF4D13096059F089C74B130
:101B7000309E17F8011B0498B0470028049000F02D
:101B800007850D98401C641E0D90F2D130960B9C79
:101B90003021002C8DF800100CDD309E01236A46A8
:101BA00002A9304600F0C4FD002840F0F184641E14
:101BB000F4D1309605980899099C471874B1309E65
:101BC00017F8011B0498B0470028049000F0E08447
:101BD0000D98401C641E0D90F2D130960C9C302163
:101BE000002C8DF800100CDD309E01236A4602A9FE
:101BF000304600F09DFD002840F0CA84641EF4D1F8
:101C000030969DF8400041077FF584AE2020002DDE
:101C10008DF800007FF77EAE309C01236A4602A952
:101C2000204600F085FD002840F0B2846D1EF4D1FE
:101C300030946FE60FF65830059000F08DBC0E9D85
:101C4000002D04D5204600F0FBFD044607E02A469F
:101C5000204600F0FFFD002814BF041B2C4608940A
:101C600000F07ABCD9F8001051F8040BC9F8001044
:101C700020F00004002121F0FF35CDE9024512AB30
:101C80000593782100F04DBC2B99487820B14FF096
:101C9000FF340FF6CC2030E79DF84200622860D078
:101CA000682817D06A283FD06C2806D0712847D002
:101CB00074282CD07A281DD062E0D9F8001051F891
:101CC000040BC9F80010002866D14FF0FF340FF65E
:101CD000A82012E7D9F8001051F8040BC9F8001039
:101CE00020B94FF0FF340FF6902006E70D990180E0
:101CF00000F032BCD9F8001051F8040BC9F80010FC
:101D0000002849D14FF0FF340FF66C20F5E6D9F8E2
:101D1000001051F8040BC9F8001000283CD14FF016
:101D2000FF340FF65420E8E6D9F8001051F8040B00
:101D3000C9F8001080B94FF0FF340FF63C20DCE604
:101D4000D9F8001051F8040BC9F8001020B94FF071
:101D5000FF340FF62420D0E60D9AD317C0E90023F4
:101D6000FAE3D9F8001051F8040BC9F8001020B9B3
:101D70004FF0FF340FF60020BFE60D990170EBE342
:101D8000D9F8001051F8040BC9F8001020B94FF031
:101D9000FF340FF6E410B0E60D990160DCE39DF826
:101DA00042004C2807BFD9F80010CA1DD9F800001E
:101DB000C21D22F00702C9F80020D2E90001083252
:101DC000C9F80020CDE90201C80F02D007982D21E3
:101DD0000AE0BDF84000810702D507982B2103E0F7
:101DE000C00705D50798202112AA1154401C07905E
:101DF00012A807994BF0200300EB010CDDE902016A
:101E0000CDE92C01612BCDF814C021AC0BD00E987C
:101E1000002848BF062105D404BF4BF020006728E6
:101E200001D101210E91DDE902014F0047EAD0778F
:101E30007E15FF174FF0FF32974208BF964210D130
:101E4000090341EA10510003002908BF002808D007
:101E5000ABF1610503211A2D089118D30FF6381143
:101E600010E0DDE902014A00521512F1010F11D113
:101E700008030FD1ABF1610503211A2D08911FD37F
:101E80000FF61C110322604600F010FD64E30FF60C
:101E90000411F7E7DDE902016A4600F013FDCDE920
:101EA00002014BF02000612811D10598302101700A
:101EB000821C0592BBF1610F0CBF7821582102E012
:101EC0000FF6D801DEE741700798801C0790DDE926
:101ED000020120F0000231F0004308BF002A02D1C5
:101EE0000026002542E14BF02008B8F1610F40F0D8
:101EF00092800E98002847BF21210191401C01903B
:101F0000019FDDE92C017F1C00220023DDE9024551
:101F100000F010FD38BF85F0004500998DF8842051
:101F2000091F002F00910DF1850632DD204629465C
:101F30000022002300F018FD2BD21C2200F02EFD01
:101F400004460D4600F0ACFDFF1F002F804609DD62
:101F500000F0ADFD02460B462046294600F0AEFDDE
:101F600004460D46F01D0721B8F1000F0CDD491E97
:101F70005EBF08F00F0200F8012D4FEA2818F3D5D4
:101F800002E0002200F8012D491EFAD5C61D002FDF
:101F9000CCDC0DF18500361A01980DF185048642DE
:101FA000D8BF304600282FD4B04206DA0DF18501A3
:101FB0000A5C082AA8BF0F2100DA0021024621ABE3
:101FC000134400E0401E13F80159521E8D42F9D00F
:101FD0000F2904D10DF185018B5C5B1C8B54002A09
:101FE00004D50099091D21AC401C0091411E0BD461
:101FF000621813783033DDB23A2DA4BF5B443A3B0C
:10200000491E02F80139F4D50E99002940F1AC803F
:10201000421E0E92A8E00099DFF8042747F297507D
:10202000414391FBF2F20092DDE92C45C2F1070237
:10203000002A25F0004504DD2046294600F04CFB2F
:102040000BE052420020DFF8DC1600F045FB0246B0
:102050000B462046294600F03AFD04460D46B8F1ED
:10206000660F06BF009F0A3706270E983F18142FE9
:10207000C8BF142730208DF884000DF18506002F8D
:1020800034DD2046294600F02BFD01460A4606F1C4
:10209000080304200A26B2FBF6F606EB860EA2EB36
:1020A0004E02303203F8012C0A22B6FBF2F202EBA8
:1020B000820EA6EB4E063036401E03F8026DE9D1C3
:1020C000083F002F03F10806D9DD084600F00FFD98
:1020D00002460B462046294600F0F0FC0022DFF8BD
:1020E000483600F00BFD04460D46CAE70DF18500A9
:1020F000361A0DF1850404E00098401E761E00900B
:10210000641C20783028F7D0B8F1660F02D100980F
:10211000401C04E0B8F1650F0CBF012000200E99AF
:1021200040188642B8BF701E00281DD4B04204DAA1
:10213000215C3429C8BF392100DC30210246631EEE
:102140009D1800E0401E15F80169521E8E42F9D01C
:10215000392902D1A15C491CA154002A04D5009957
:10216000491C1C46401C00910646009D00F0D0FC16
:10217000406A0778DDF8388030B2002802DC01269A
:102180000FF220644BF02000662808BF6D1C16D0AB
:10219000672845D128B210F1040F47DB404545DAE6
:1021A0009DF840006D1C010703D430B24045D8BFF4
:1021B000804628B2B8EB000848BF4FF000080FFA7D
:1021C00085FBBBF1000F00F3B4800898411C089117
:1021D000302205990A54B8F1000F03DC9DF8400045
:1021E000010704D50898411C089105990F5418EB74
:1021F0000B0FB8BFC8F100052DB26842454432B29A
:102200000B909542B8BF2E46059B089836B20996AA
:1022100032462146184400F049FBAD1B0C95D2E034
:10222000BBF1610F17D14FF0700B19E030B2404590
:1022300004DA9DF840100A0758BF8046B8F101083B
:1022400048BF4FF00008BBF1670F14BF4FF0450BBC
:102250004FF0650B04E0BBF1410F08BF4FF0500B8E
:102260000898411C0891B8F1000F059914F8012B4A
:102270000A5403DC9DF8400001071AD50898411C58
:102280000891B8F1000F05990F5412DD761E30B297
:102290008045B8BF46460598089B32B2214618448F
:1022A00000F004FB089936B271180891A8EB0600FB
:1022B0000B9005980899084429B2002980F800B0CD
:1022C00003D42B224270821C04E02D2242700D4662
:1022D000821C6D4200212CAB28460AE004460A20ED
:1022E00094FBF0F000EB8005A4EB450403F8014BF0
:1022F000491C00B20028F1DC012906DC4BF020006B
:10230000652804BF302002F8010B00292CAB08D14E
:10231000302002F8010B06E0491E585C303002F80C
:10232000010B0029F8DC059908980844121A099253
:1023300049E030B229B288421CDA0598089B32B2D3
:102340002146184400F0B2FA089936B27118089183
:10235000ABEB0600B8F1000F0B9003DC9DF84000DA
:10236000020704D5059847540999491C0991CDF8ED
:10237000308028E00598089B2AB22146184400F0D6
:1023800095FA0898761B5844B8F1000F089003DCC2
:102390009DF840100A0703D5411C089105990F5478
:1023A00030B28045B8BF46460598089B32B204EB70
:1023B0000B01184400F07AFA089836B230180890E9
:1023C000A8EB06000B909DF8400000F014001028C8
:1023D00040F0C280079A08980B99821809988A18C9
:1023E00082180C980F998018884280F2B580081ADC
:1023F0000A90B1E09DF84200622808D068280ED00B
:102400006A2814D06C281FD0712810D01CE0D9F88D
:10241000001051F8040BC9F80010C0B21AE0D9F846
:10242000001051F8040BC9F8001080B212E0D9F87E
:102430000000C21D22F00702C9F80020D2E9000105
:102440000832C9F8002006E0D9F8001051F8040B52
:10245000C9F800100021CDE902019DF840000107F4
:102460005AD5DDE90223002B08BF002A54D04BF0D7
:102470002000782850D1079812A930220A54401C15
:10248000431C079301F800B046E09DF84200622823
:1024900008D068280ED06A2814D06C281FD0712864
:1024A00010D01CE0D9F8001051F8040BC9F8001046
:1024B00040B21AE0D9F8001051F8040BC9F8001026
:1024C00000B212E0D9F80000C21D22F00702C9F8DC
:1024D0000020D2E900010832C9F8002006E0D9F84E
:1024E000001051F8040BC9F80010C117CDE9020122
:1024F000002902D507982D210AE0BDF84000810788
:1025000002D507982B2103E0C00705D507982021A5
:1025100012AA1154401C079012A807990144059172
:10252000594602A800F04EF816E001200790D9F8AD
:10253000000050F8041BC9F800008DF848100BE0AB
:1025400001212522BBF1000F07918DF8482003D00F
:10255000022207928DF849B00F9D07990A986D1ACB
:1025600008992D1A0B986D1A09992D1A0C986D1A45
:102570009DF840102D1A48073FF5D2AA2021002DC2
:102580008DF800107FF7CCAA309E2C46FFF7BCBA1E
:102590004FF0FF3031B0BDE8F08F0000CBCCCC0C59
:1025A000686A6C747A4C00007072696E74665F734E
:1025B0003A2062616420257320617267756D656ED3
:1025C000740000002DE9FC4707468A463C695046E6
:1025D0006F2808BF082505D0FFF780F9782814BFB9
:1025E0000A251025D7E900013C2680468946BAF124
:1025F000640F18BFBAF1690F05D1002903D5D8F1CE
:10260000000869EB4909B9F1000F08BFB8F1000FE4
:102610000CD1386B50B9082D3AD197F83800010722
:1026200036D530223B2684F83B2031E08DF800A0DF
:10263000404649462A46EB1700F06EFA3032D0B2D7
:10264000761E3A2801960EDAA255404649462A4699
:10265000EB1700F061FA80465FEA010908BFB8F1A4
:10266000000F05D108E09DF800001218513AEBE781
:10267000F868A1198842DBD3082D09D197F83800F2
:10268000010705D5A05D302802D0761E3020A05568
:10269000C6F13C03BB61A119F960386B834208DACB
:1026A000C31A3B624FF6EF70398F01403987BDE89E
:1026B000F38700280ED597F8380000F01400102892
:1026C00008D17A6B7969386A521A121AD21A002A1A
:1026D000C8BF3A62BDE8F3872DE9D04306460F46EE
:1026E00014464FF00008DFF8449012E0E00707D5E9
:1026F00042464B463046394600F000FA06460F4641
:102700004046494642464B4600F0F8F96410804680
:102710008946002CEAD130463946BDE8D083000016
:10272000A08601000000F03F84D7974100002440BC
:10273000F8B505460E4617461C4600205CB117F852
:10274000011BB068A847B06030B1F06A401CF0626D
:102750000020641EF3D1F2BD4FF0FF30F2BD000047
:102760007072696E74665F733A20256E20646973B7
:10277000616C6C6F776564007072696E74663A2084
:1027800062616420256E20617267756D656E7400EC
:10279000000000006E616E004E414E00696E6600E2
:1027A000494E4600300030B50168846842184168DF
:1027B00002EB5103C90703D54C4401E0491C08D181
:1027C0009A4218BF12F9011B01D10C3030BD12F82A
:1027D000015B002904F8015BF0D4491EF7D5EFE74F
:1027E000C9B202788A421AB11CBF10F8012FF9E76A
:1027F00018BF002070470268531C036011707047B7
:1028000080B500B906A005490B681BB12222002142
:10281000984701E000F003FA222002BDDC4C0020C2
:10282000636F6E73747261696E742068616E646C3C
:1028300065723A20626164206D657373616765003B
:1028400000F1010310F8011B11B110F8011BFBE7A7
:10285000C01A7047C9B2830706D0521E22D310F89F
:10286000013B9942F7D11FE0083A13D302F1040269
:1028700041EA012141EA014150F8043B121F21BF06
:102880004B40A3F1013C2CEA030C1CF0803FF3D039
:10289000C9B2001F083210F8013B521E28BF91EA4E
:1028A000030FF8D818BF0120401E70474AB100003E
:1028B00011F8013B521E00F8013B1CBF11F8013B0F
:1028C000F8E7704710B5144600F002F8226010BD1A
:1028D000C1F30A5343B14A0012F5001F28D2A3F2F4
:1028E000FE32A1EB0251704750EA410C20D001F0BA
:1028F000004C31EA0C01B1FA81F204BFB0FA80F366
:10290000D2180B3AB2F120032CBF00FA03F1914028
:1029100041EA0C013EBFC2F1200C20FA0CF319432E
:102920009040524240F2FD33D21A01EB03517047FE
:102930000022704741EA030C50EA4C0C52EA0C0C9E
:102940004FF4001C09D307D01CEB410F9CBF1CEBBC
:10295000430F8B4208BF824270471CEB430FFBD8EA
:10296000994208BF9042704741EA030C50EA4C0C70
:1029700052EA0C0C4FF4001C09D307D01CEB410F9A
:102980009CBF1CEB430F994208BF904270471CEB61
:10299000410FFBD88B4208BF8242704700B541EC23
:1029A000100B104600F004F851EC100B00BD00BFF6
:1029B000020030EE101B40F2FF7C37D41CEA1153AA
:1029C00013D063456BD09B18634504D201EB0251D1
:1029D00020EE101B704701F0004141EA0C5100202D
:1029E00041EC100BAFF30080704710EE100B50EA73
:1029F000410054D0B2F57F7F08D202EB5C0109059B
:102A0000002041EC110B20EE010B70474FF0FE410E
:102A1000002341EC113B20EE010BB2F57E7230EE4B
:102A2000101B4FEA410342EB5353CDE752421CEADD
:102A3000115316D0634532D09A4204D2A1EB025111
:102A400020EE101B70475B1ED21AA1EB035120EE43
:102A5000101B372A0CD3002001F0004141EC100B71
:102A6000C0E710EE100B50EA410018D0372AF2D21E
:102A7000C2EB5C021105002041EC110BF1EE100AD3
:102A800020F01F0121F4F851E1EE101A20EE010BA5
:102A9000F1EE101AE1EE100A11F0080FA2D1704702
:102AA00041EC100BBDEEC00B10EE100A704700EEAB
:102AB000100AB8EEC00B51EC100B704741EC100B34
:102AC00043EC112B30EE410B51EC100B704741ECF5
:102AD000100B43EC112B80EE010B51EC100B7047E7
:102AE00041EC100BBCEEC00B10EE100A704700EE6C
:102AF000100AB8EE400B51EC100B704741EC100B74
:102B000043EC112B20EE010B51EC100B70472E0003
:102B1000004870478C000020D3BBD9B1B2F5803F8C
:102B20005BD2022A1ED98C46B1FBF2F102FB11C323
:102B30001B0443EA1043B3FBF2FC02FB1C3380B2DC
:102B400040EA0343B3FBF2F002FB103240EA0C40D0
:102B500000237047022A05D98446B0FBF2F002FB3D
:102B600010C270474AB105D100F0010249085FEA7E
:102B70003000704700220023704700F053B80B006C
:102B80000200002100207047F7D300220023704785
:102B9000904271EB030CF2D370B5B1FA81F4B3FA41
:102BA00083F52C1BA340C4F1200532FA05F633430C
:102BB000A2405FF00046E64002E05B085FEA3202B6
:102BC000841A71EB030524BF204629467641F4D3CD
:102BD00002000B003000002170BD70B5B1FA81F425
:102BE000B2FA82F5C4F120046419B4F12006DAD3F4
:102BF000B2405FF00044F440002502E052085FEA72
:102C00003303C61A71EB020E24BF3046714664418D
:102C10006D41F3D302000B002000290070BD01209C
:102C200000F002B87047000080B5AFF30080024AA0
:102C300011001820ABBEFBE72600020038B50400E7
:102C400001D1012032BD04F18405686808B900F0A3
:102C50001BF800F01EF808B100F02EF800F029F87B
:102C6000012806D0206800F005F800F01BF800F0FD
:102C70005FBA32BD416821F49041416020688268AA
:102C800022F02A028260704700212046297000F05D
:102C9000F2BD24206860206801684908490001608D
:102CA000A06A70472068016841F001010160204678
:102CB0007047204600F040BA204600F049BC70B58D
:102CC000040001D1012070BD04F184052420686056
:102CD000206800220023016849084900016020683B
:102CE000002102602668204673602268916000F02F
:102CF0005EFE00200021E86000226960AA60E066B4
:102D000021672A7070BD2DE9F843054605F1540688
:102D1000706B0C461746994620283ED10CB13800FE
:102D200001D101203AE000202121F0637163FEF718
:102D3000CFFD378080467780A968B1F5805F04BFFA
:102D4000286900281ABF204600272746044611E0BC
:102D50000022802100F024F8D8B92868002C12BF86
:102D600014F8011B37F8021BC1F308018162728855
:102D7000511E71807088CDF8009043460028E7D13D
:102D80000022402100F00CF818B9202070630020C8
:102D900004E020210320716300E00220BDE8F283FB
:102DA000284600F090BC134643E800100028704706
:102DB000286881684A0670472DE9F843054640F6C1
:102DC0000F0C2A6805F15C04D36910460768966801
:102DD00013EA0C0F03F0200107F020000DD10029A9
:102DE00014D010B9F00040F19080A169002900F0E2
:102DF00078812846BDE8F4430847DFF8E0C616EAC4
:102E00000C0F04BFDFF8D8E617EA0E0F00F07D8044
:102E10005FEAC37848BF5FEAC75E07D54FF0010994
:102E2000C2F82090626B42F0010262639A070BD5F0
:102E3000F20709D5D5F800E04FF00208CEF820805F
:102E4000626B42F0040262635A070BD5F20709D5A0
:102E5000D5F800E04FF00408CEF82080626B42F015
:102E6000020262631A070FD5002808BF16EA0C0F8A
:102E70000AD0D5F800C00822CCF82020D4F834E0DD
:102E80004EF0080EC4F834E01A0509D57B0107D5C9
:102E90002A684FF400671762636B43F02003636393
:102EA000626B002A30D031B108B9F00003D5A169B6
:102EB00009B128468847606B29688A68530602D49E
:102EC00010F0280F1BD000F012F9FFF771FF11D599
:102ED00000F010F9FCD1606A60B1DFF808160165F6
:102EE000606AFDF7AFFE00280ED0606A016DBDE894
:102EF000F44308472846BDE8F24300F0C9BD284620
:102F000000F0C6FD00206063EBE02169012940F07C
:102F1000A980D80600D5F90640F1A48010231362D9
:102F2000FFF746FF6AD5606ADFF8BC350168994251
:102F30001CBFDFF8B82591422ED0DFF8B465B1424E
:102F40001CBFDFF8B035994226D0DFF8AC2591429E
:102F50001CBFDFF8A865B1421ED0DFF8A435994246
:102F60001CBFDFF8A025914216D0DFF89C65B14266
:102F70001CBFDFF8983599420ED0DFF894259142B6
:102F80001CBFDFF89065B14206D0DFF88C3599425E
:102F90001CBFDFF88825914249688AB2002A35D0E3
:102FA00023889A42B0D26180C069B0F5807F1DD07D
:102FB000296851E8001F2A6821F4807100F0CBFBDA
:102FC000F6D100F073FBFCD100F0A1F8FCD1202079
:102FD0000021206321612A6852E8001F21F01001BE
:102FE000FFF7E1FEF7D1606AFDF756FC022161614F
:102FF00021886088091A89B228462FE021886288D2
:103000006088891A00281CBF88B2002869D02A4627
:10301000136853E8003F156823F4907300F063F8D9
:10302000F6D11068404F00F1080353E8003F00F16B
:1030300008063B4046E800300028F2D1202000235B
:1030400020632361A36100F0D6FB064646E800300A
:103050000028F8D1022089B260611046BDE8F4432F
:1030600000F017BDD90209D5700207D54FF48013BF
:1030700028461362BDE8F24300F00CBD180609D5DE
:10308000390601D4300205D5E16951B32846BDE8BF
:10309000F4430847580612D5790610D52A6852E835
:1030A000001F21F04001FFF77EFEF7D12020002114
:1030B000E0622846E161BDE8F24300F0A0BC1802DE
:1030C00006D5790004D52846BDE8F24300F0E3BCFC
:1030D000D80148BF002F04D52846BDE8F24300F0D0
:1030E000DBBCBDE8F18345E8003000287047284686
:1030F00000F035BB286800F1080353E8001F00F119
:10310000080221F0400142E80010002870472868BA
:1031100000F1080151E8001F00F1080321F040010F
:1031200043E8001000287047FEFFFFEF20215160A8
:10313000BDE8324070E200002DE9F04186B004465F
:103140002168DFF8740600250E68A268236906402E
:1031500060691643E2691E4306431643DFF85426AE
:103160000E604B68E06823F44053034391424B6088
:10317000A6691CBF236A1E438F68DFF8400607401C
:103180003E438E60CB6A606ADFF834760FF2903689
:103190001B09B94240EA0313CB62DFF8283648D155
:1031A000586D10F0380000F09D80082800F0D380A2
:1031B00010284BD018285AD0202800F06A802828E0
:1031C00000F07A804FF0800C9142DFF8FC05DFF8C8
:1031D000FCE54FF4004840F0E980BCF1020F14D048
:1031E000BCF1040F00F0BA80BCF1080F00F0BB8006
:1031F000BCF1100F00F0BC80BCF1200F00F0C080CB
:10320000BCF1400F00F0BE805BE100F047FC0028FD
:1032100000F05881616A36F81120B0FBF2F662685E
:1032200002EB42039E4203D31103B14280F0AC8013
:1032300047E1DFF89C0581420BD100F084F9C1D849
:10324000DFE807F075890415273ABBE74FF0080C53
:10325000BAE7DFF8800581420CD100F074F9B1D8EB
:10326000DFE807F065790405172AABE7EEE74FF0D2
:10327000100CA9E7DFF8600581420DD100F063F979
:10328000A0D8DFE807F05468050406199AE7EEE7CE
:10329000DCE74FF0200C97E7DFF8780581420ED18C
:1032A00000F051F9F2D8DFE807F0425606050407AE
:1032B00088E7EEE7DBE7C9E74FF0400C84E7DFF88B
:1032C0005805814211D15F6D17F038070AD0082FD9
:1032D00041D0102FBAD0182FC9D0202FD9D0282FE5
:1032E000EAD06FE74FF0010C6EE7DFF8300581425E
:1032F0000CD100F028F9F4D8DFE807F0192D070603
:1033000005045FE7D8E7C4E7B1E79FE7DFF81005FA
:1033100081420ED100F017F9F3D8DFE807F0081C5E
:10332000070605044EE7C7E7B3E7A0E78EE7AC461C
:103330004AE79142F6D1986D00F00700052804D8BD
:10334000DFE800F00809070605043BE7B4E7A0E75B
:103350008DE77BE759E74FF0040C35E703A800F051
:10336000ADFB049853E7684600F0D4FB01984EE7A4
:1033700019688A0605D51F68C7F3C101C84046E72A
:10338000704647E7404645E75008002110EB06200D
:1033900051EB16610023FFF7BFFBA0F54076DFF885
:1033A00084148E421DD22768F8608BE0E1694FF6E5
:1033B000F077B1F5004F44D1BCF1000F12D0BCF151
:1033C000010F25D0BCF1040F25D0BCF1080F27D088
:1033D000BCF1100F29D0BCF1200F2ED0BCF1400F52
:1033E0002DD06EE000F0F9FD00286BD000F0A4F8BD
:1033F0004E0806EB4006B6FBF1F0A0F11001B94211
:103400005FD20740C0F3420007432068C76059E01D
:1034100000F0EBFDE8E703A800F050FB0498E3E7B9
:10342000684600F077FB0198DEE719688A06DDD56B
:103430001968C1F3C101C840D6E77046D6E74046D7
:10344000D4E7BCF1000F12D0BCF1010F20D0BCF1C9
:10345000040F20D0BCF1080F22D0BCF1100F24D0F3
:10346000BCF1200F29D0BCF1400F28D029E000F09A
:10347000B4FD38B300F060F800EB5100B0FBF1F0A0
:10348000A0F11001B9421CD2226880B2D06019E0CC
:1034900000F0ABFDEDE703A800F010FB0498E8E7AF
:1034A000684600F037FB0198E3E719688A06E1D522
:1034B0001968C1F3C101C840DBE77046DAE740464E
:1034C000D8E7012504F16800012100234180018033
:1034D000C3600361284606B0BDE8F081010000101A
:1034E00020010004033800081000024028000240B8
:1034F0004000024058000240700002408800024034
:10350000A0000240B800024010040240280402401B
:103510004004024058040240700402408804024003
:10352000010002000400060008000A000C00100060
:103530002000400080000001626A616836F81230A5
:10354000B0FBF3F070475F6D07F00707052F70477A
:1035500010B590F828100A0706D502685368816BE9
:1035600023F400430B43536090F82820D10706D57D
:1035700002685368C16A23F400330B43536090F828
:103580002820910706D502685368016B23F4803325
:103590000B43536090F82820510706D50268536802
:1035A000416B23F480230B43536090F82820D1060D
:1035B00006D502689368C16B23F480530B43936074
:1035C00090F82820910606D502689368016C23F4D0
:1035D00000530B43936090F82820510610D50268E1
:1035E0005368416C23F480130B435360436CB3F571
:1035F000801F05D15468816C24F4C0040C435460CE
:1036000090F82820110606D501684A68C06C22F49B
:10361000002202434A6010BDF8B5054605F1840456
:1036200000206FF07E47E060FEF752F929680646F9
:103630000868020712D50097334600224FF40011A4
:10364000FFF7AEFB50B1286850E8001F21F0800161
:1036500000F080F8F7D12020606018E02A68106838
:10366000410718D50097334600224FF48001FFF739
:1036700097FB80B1286850E8001F21F4907100F09A
:1036800069F8F7D100F012F8FCD12020A0600021E9
:1036900003202170F2BD2022202062600021A06062
:1036A0000022E96600202A672070F2BD286800F138
:1036B000080151E8001F490800F10803490043E8E8
:1036C0000010002870472DE9F04105460E4690464F
:1036D0001F46069C2868C1693140B1420CBF0120D9
:1036E0000020404534D114F1010FF3D0FEF7F0F87B
:1036F000C01B844200D314B90320BDE8F0812868C0
:1037000001684A07E6D5802E18BF402EE2D0C16975
:103710000A0703D4C1690A05DCD50CE02B68082030
:103720001862FFF7E4FC05F184000821C160002263
:1037300002700120E1E729684FF400600862FFF79A
:10374000D6FC05F184002022C26000210170D3E77D
:103750000020D2E7024642E800100028704730B54A
:1037600000F00EF8FCD100F015F8FCD1C16E00F0AD
:1037700035F820210022C0F88C10C266426730BDA7
:10378000016851E8002F22F490720B4643E80021B3
:10379000002970470168DFF8905001F1080252E8F3
:1037A000002F01F108042A4044E800210029704755
:1037B00000000000000C0058F369FFCFFFF4FF1178
:1037C00000100140004402580090D00300093D0061
:1037D0000044004000480040004C0040012909D14D
:1037E000026852E8002F036822F0100243E800212B
:1037F0000029F5D17047106850E8003F23F010030E
:103800007047806B0022002300F156010A810B8073
:1038100000F03EB900500040001401400078004024
:10382000007C004000FD0F00FEFFFFEF00224FF480
:10383000165110B58D4C8E48A26000232261A26102
:103840000C2261604FF4805162614FF4005220609D
:103850002046E360A362E1632264FFF730FA08B117
:1038600000F056FD2046FFF7E9F918B1BDE8104019
:1038700000F04EBD10BD2DE9F843044686B07D48EA
:103880007D4D81684FF480664FF400094FF40018B5
:1038900041F004018160826802F004020092009904
:1038A000826842F004028260816801F004010091A4
:1038B000009A816941F020018161826902F0200251
:1038C00000920099036843F00203036002684023FA
:1038D000284602F00202009200990222019302920D
:1038E00001210391032207230492059301A900F00B
:1038F0002DFD80220723019201A90593284600F09F
:1039000025FD5E4D00225E48EA60286048206A611D
:103910004021AA6105F18407EA612A626A620322F2
:1039200068602846A9602E61AA62C5F82C90C5F887
:103930003080FCF7B1FCE56752480021AC63A86712
:103940004FF40030C5F88010032239607E60B96002
:10395000F960396178614720B961FA61E86705F17A
:103960007800C7F82090C7F82480FCF795FC05F193
:1039700078010122C4F880100021FC62462000F08A
:10398000BBFE462000F0D6FE00220021392000F0C8
:10399000B3FE392000F0CEFE01220021472000F0C6
:1039A000ABFE472000F0C6FE07B0BDE8F08338B597
:1039B000044635480268304D402142F02002026042
:1039C000036823F020030360284600F0B4FD802143
:1039D000284600F0B0FDD4F8800008B1FCF72FFEB7
:1039E000E06F08B1FCF72BFE462000F0AEFE392058
:1039F000BDE8324000F0A9BE1C48FFF7DDB9FFE783
:103A00000120224908707047012020490870174A98
:103A1000D2F88000FDF77EBA1448C06FFDF77ABA7D
:103A200070B50D46144600260DB9002070BD012862
:103A300004D0022809D101E0761C641E44B115F8B7
:103A4000010B00F007F80028F6D54FF0FF3070BDED
:103A5000304670BD01B54FF0FF330122694603487F
:103A6000FFF751F9009802BD00000000084B00204C
:103A700000140140D8440258000802587849002038
:103A8000B804024028040240984402584000002034
:103A900070477047704770477047000080B500F06E
:103AA00084FADFF8F821DFF8F8111368C3F3021283
:103AB000895C01F01F01C84002BD000030B500F074
:103AC00082F8C2F30015DA6BC1F3053100F0B5F8E6
:103AD0001DD000F07EF802D0022C06D008E000F0E5
:103AE000B5F8996B00F04CF807E09FED652A01E00E
:103AF0009FED642A996B00F053F8996B00F08CF8F5
:103B0000996B00F07AF8996B00F06AF801E000F028
:103B100031F82BE030B500F056F8C2F300255A6CAE
:103B2000C1F3055100F089F81DD000F052F802D021
:103B3000022C06D008E000F089F8196C00F020F89B
:103B400007E09FED4F2A01E09FED4E2A196C00F02F
:103B500027F8196C00F060F8196C00F04EF8196C39
:103B600000F03EF801E000F005F800BF80ED020A29
:103B700030BD000000229FED440A026042607047A1
:103B8000F7EE001AC1F3080101EE101AB8EE411A5F
:103B900031EE000A70EE211A20EEA10A70470000F3
:103BA000DFED3A1AC2EE200AC1F3080101EE101A45
:103BB000B8EE411A00EE211AB7EE000A31EE000A03
:103BC00020EE800A7047DFF8D0309C6A996ADA6A82
:103BD000704714F0030400EE901AF8EE600A704784
:103BE000C1F3066100EE901AF8EE600A70EE810AE9
:103BF00080EE200ABCEEC00A7047C1F3064100EE19
:103C0000901AF8EE600A70EE810AC0EE200AFCEE0F
:103C1000E00AC0ED010A7047B7EE001AC1F3462171
:103C200000EE901AF8EE600A70EE810AC0EE200AEB
:103C3000FCEEE00AC0ED000A7047C2F3CC02554327
:103C4000002900EE105AB8EE400A704719689FED3F
:103C50000F1A20EE010A8A060CD51968DFF83440E5
:103C6000C1F3C101CC4001EE104AB8EE411AC1EED9
:103C7000200A70479FED062AC2EE200A7047000016
:103C80000024F44A0024744A0000000000000039B7
:103C90000024744C0090D003004402582044025881
:103CA000D06E00082DE9F0410400884656D0DFF8B8
:103CB000B863306800F00F00404502D200F0EBF826
:103CC0007AD12078DFF8A453410706D52069AA6984
:103CD00002F07002824200F0D7F82078010706D582
:103CE0006069EA6902F07002824200F0C6F820784A
:103CF000C10606D5A069EA6902F4E062824200F0DA
:103D0000B5F82078810606D5E0692A6A02F07002CB
:103D1000824200F0A4F82078810706D5E068AA69FD
:103D200002F00F02824200F093F82078C10731D5EB
:103D3000AA69A06822F470620243AA61606802283E
:103D400002D129688A0308E0032802D129688A0180
:103D500003E0012803D12968CA0503D42CE02B68AD
:103D6000590729D52A69D20840EAC2002861FDF71F
:103D7000AFFD07462869616800F03800B0EBC10F5D
:103D800008D0FDF7A5FDC01B41F289329042F1D366
:103D900003205BE02078810706D5E068AA6902F07D
:103DA0000F02904200F054F8306800F00F00804598
:103DB00004D200F070F801D0012047E020784107DC
:103DC00006D52069AA6902F07002904200F05CF802
:103DD0002078010706D56069EA6902F07002904216
:103DE00000F04BF82078C10606D5A069EA6902F414
:103DF000E062904200F03AF82078810606D5E0694A
:103E00002A6A02F07002904200F029F800F04EF8A1
:103E1000AA69DFF86C12C2F303228B5CAC69DFF88D
:103E2000505204F00F04095D03F01F03D840DFF87F
:103E3000443201F01F0120FA01F21A602860DFF815
:103E40003C020068BDE8F04100F0DABCBDE8F0815A
:103E500004D2A969090940EA0110A861704704D297
:103E6000296A21F0700108432862704704D2E96989
:103E700021F4E0610843E861704704D2E96921F068
:103E800070010843E861704704D2A96921F070010C
:103E90000843A86170473168090948EA0111316097
:103EA000326802F00F0242457047000030B56F4B98
:103EB0007148196911F0380104D010290AD0182965
:103EC0000AD069E01A68940667D51968C1F3C10180
:103ED000C84030BD6C4830BD9C6A996ADD6A5A6B37
:103EE00005F00105C1F30511C2F3CC0255430029C9
:103EF00000EE105AB8EE400A4CD014F0030400EE65
:103F0000901AF8EE600A02D0022C20D022E0196844
:103F10009FED511A20EE010A8A0608D51968C1F3EF
:103F2000C101C84000F03CF8C1EE200A03E09FED5B
:103F30004B2AC2EE200A186BF7EE001A00F02EF89A
:103F400031EE000A70EE211A20EEA10A13E09FED77
:103F5000442A01E09FED432A186BDFED3F1AC2EEC1
:103F6000200A00F01BF800EE211AB7EE000A31EE2D
:103F7000000A20EE800A186BC0F34620401C00EEB9
:103F8000900AF8EE600A80EE200ABCEEC00A10EE3D
:103F9000100A30BD002030BD3C4830BDC0F30800E1
:103FA00001EE100AB8EE411A704710B5FFF77EFF18
:103FB0003749334B0A6809682D4CC2F303229A5CD7
:103FC00001F00F0102F01F02D0402060595C294A25
:103FD00001F01F01C840106010BD80B5FFF7E5FF7C
:103FE00000F00FF8C3F3021206E080B5FFF7DDFF23
:103FF00000F007F8C3F30222895C01F01F01C840FA
:1040000002BD244A1E491368704710B53F22026062
:104010001C4A136803F007034360946804F4706457
:104020008460936803F00F03C360946804F0700425
:104030000461D36803F070034361D46804F4E0645E
:104040008461126902F07002C2610748036803F0DC
:104050000F030B6010BD0000000000390024744CF9
:104060000024F44A0024744A0020005200440258FC
:10407000380000203C0000200090D00314000020F5
:10408000D06E00081044025800127A0000093D006A
:10409000184402581C44025878B5FDB09DA4924DB6
:1040A000924E316801291AD100203060284600F074
:1040B000EFFB05F1400000F0EBFB684601F07AF8F9
:1040C0006946204600F0E4FB05F1740000F0E0FBD7
:1040D000684601F0BFF86946204600F0D9FB14207D
:1040E00000F0EFFCDDE780B5012001F093F900F06E
:1040F00014F8012001F0A0F900F00FF8F4E780B502
:10410000002001F087F900F008F8002001F094F990
:1041100000F003F800F001F8F2E74FF47A7000F0D5
:10412000D0BC80B5022001F075F9FFF7F6FF022040
:1041300001F082F9FFF7F1FFF4E700001FB56846D0
:10414000002100220023002480E81E0000F00CFB68
:10415000012187228DF800101F218DF80810012100
:104160008DF80140684601948DF80920ADF80A40A9
:104170008DF80C108DF80D10ADF80E4000F00BFB13
:10418000042000F0FBFA01F0CDF900F046F801F050
:10419000FDF9012080F310880020554C01F0FEF855
:1041A000012001F0FBF8022001F0F8F801210020C5
:1041B00001F05EF9FFF73AFB01F0F8F901200194F4
:1041C000009000234FF4007254A14A4800F0A5FB70
:1041D000201D022100F01BF853A1474800F09DFB71
:1041E00004F108005FF0030100F011F851A1434809
:1041F00000F093FB04F10C005FF0040100F007F8FD
:104200004FA13F4800F089FB00F0B4FCFEE70190AD
:10421000002300914FF40072704780B59CB04C2190
:1042200009A801F025FA202101A801F021FA0220B5
:1042300001F022FA00200090324801684908490044
:1042400001600268304802F001020092016841F406
:1042500040410160026802F4404200920099026805
:104260009304FCD501214FF48032099164210A9214
:1042700001221492022315910C2100221293139310
:1042800009A816931793189319911A921B9201F08B
:1042900017FA08B100F03CF83F21032201910821F0
:1042A00002924022049140210592002306914FF48E
:1042B000806208910221039301A80792FFF7F2FCA4
:1042C00008B100F025F81DB000BDB0F5005F02D1C7
:1042D000012006490860704700680C49884208BF01
:1042E00001F076BC70470000E06E0008D84C00205A
:1042F000C84C002099400008E7400008FF40000833
:10430000234100082C0400581848025800100040AF
:1043100072B6FEE725730D0A000000007654617343
:104320006B55736572494600765461736B4C454416
:1043300000000000765461736B4D736750726F001C
:10434000765461736B537461727400002DE9F84FF9
:104350004FF00009DFF834234FF0B043DFF830832B
:1043600005460E4639E0DFF82C43A54214BF0A2467
:1043700009248C4044EA0E04DFF81C1341F82C4059
:10438000D3F800C07468C14301EA0C0CE40248BFD2
:1043900040EA0C0CC3F800C0D3F804C0746801EA0A
:1043A0000C0CA40248BF40EA0C0CC3F804C0D2F8BD
:1043B00004C0746801EA0C0CA40348BF40EA0C0C6A
:1043C000C2F804C0D2F800C0746801EA0C01E4032A
:1043D00048BF0143116009F10109316831FA09F060
:1043E00000F0A780012404FA09F414EA0100F2D0D5
:1043F0004FEA490C032101FA0CF16FEA010E7168D2
:1044000001F00307012F1CBF01F00301022911D1A4
:10441000A968F7680EEA010107FA0CF73943A960A9
:10442000696821EA04047168C1F3001101FA09F115
:104430000C436C6034794FEA890104F00304032CC7
:1044400021D0EC68B7680EEA040407FA0CF73C4385
:10445000EC60347904F00304022C14D14FEAD9073C
:104460004FF00F0B05EB870401F01C070BFA07FB5D
:10447000D4F820A02AEA0B0AD6F810B00BFA07F7F6
:1044800047EA0A0727622C680EEA0407347904F029
:10449000030404FA0CF444EA070CC5F800C074687D
:1044A00014F4403F97D0D8F800E04FEA990C01F09F
:1044B0000C010F278F404EF0020EC8F800E0D8F82C
:1044C000004004F002040094DDF800E0724C54F85F
:1044D0002CE0724CA5422EEA070E08BF002427D01C
:1044E0006F4CA54208BF012422D06E4FBD4208BFC9
:1044F00002241DD06C4CA54208BF032418D06B4F7A
:10450000BD4208BF042413D0694CA54208BF05244E
:104510000ED0684FBD4208BF062409D0664CA542A4
:1045200008BF072404D0654FBD427FF41CAF0824A8
:104530001FE7BDE8F18F2DE9FC4F8A464FF0000BD5
:104540004FF0B041514A0F23DFF84C81054648E057
:10455000504FBD4214BF0A27092700969DF80460FA
:1045600007FA06F6009FB74212D11668C04306400C
:1045700016605668064056604F6807404F600E68E8
:104580003040086058F82E0020EA040448F82E4015
:1045900003204FEA4B04A0402C684FEADB0605EBF2
:1045A000860E0443C0432C600CF01C04DEF820701F
:1045B00003FA04F427EA040CCEF820C0D5F80CC0A6
:1045C00000EA0C0CC5F80CC0D5F804E02EEA090985
:1045D000C5F80490D5F808C000EA0C00A8600BF1FB
:1045E000010B3AFA0BF040D0012000FA0BF919EA5E
:1045F0000A00F4D04FEA9B0E4FEA8B0C58F82E605D
:104600000CF00C078DF8047003FA07F4234F2640D2
:10461000BD4208BF0027A0D0214FBD4208BF0127DF
:104620009BD0204FBD4208BF022796D01E4FBD42EF
:1046300008BF032791D01D4FBD4208BF04278CD06F
:104640001B4FBD4208BF052787D01A4FBD4208BF88
:10465000062782D0184FBD4208BF0727F9D0174F51
:10466000BD427FF475AF082777E7BDE8F38F02B945
:10467000090481617047124A014613680B421CBF4E
:104680001160FFF722BE7047000000008000005854
:10469000F44402580024025808040058000002584C
:1046A0000004025800080258000C0258001002587A
:1046B0000014025800180258001C0258002002582A
:1046C000880000580901020002D44548815470470F
:1046D000444B02F00F021A4402F8041C7047424B8C
:1046E0004FF6FF021968000200F4E0601140084331
:1046F0003E4908431860704770B53B4B1C68C4F3D3
:1047000002230124C3F10705052D2EBF0F2504FA4E
:1047100005F56D1E1E1D072E34BF0023DB1E29402C
:10472000994004FA03F35B1E1A401143BDE8704040
:10473000C8E70000010007D4012200F01F018A40F1
:104740002B4B400943F82020704701000BD4012275
:1047500000F01F018A40274B400943F82020BFF397
:104760004F8FBFF36F8F7047BFF35F8F22480022D8
:10477000016821F480310160026770471E4940F0F2
:1047800001000867086840F480300860BFF34F8F6D
:10479000BFF36F8F704710B5427818490A608B6875
:1047A0005B085B008B6042684A60C27A037B447B93
:1047B000120642EA0372837A42EAC342837B42EAE8
:1047C0008442C47B42EA4342437A42EA0442047A86
:1047D000007842EA032242EA440202438A6010BDA2
:1047E00000E400E018ED00E00CED00E00000FA0548
:1047F00000E100E080E100E024ED00E098ED00E061
:1048000010B50446102C8AB035D20022214636203D
:10481000FFF772FF3620FFF78DFF18480460184835
:10482000016841F010010160026801A902F0100264
:104830000092009802A8FFF7E8FB079810B9FFF76D
:10484000CCFB02E0FFF7C9FB40000E4B0E4C0F49BA
:1048500040F2E732B0FBF3F02160401E60600021BF
:10486000E26020462161A16001F0BAF918B9204642
:1048700001F0C3F900E001200AB010BD14000020CF
:10488000E844025840420F003C4C00200010004019
:104890000EB4C0B5024603A800210190009101ABFF
:1048A0000121044878440C30FDF71BF806BC5DF884
:1048B00010FB00BF41280000F0B585B050260B9DCD
:1048C00025B986F3118800F08EFBFEE70C9C24B915
:1048D00086F3118800F087FBFEE760270097DDF87C
:1048E00000E0BEF1600F04D086F3118800F07BFB7E
:1048F000FEE7009E25630225002784F85D5004AD85
:104900000397029401950A9E009600F034F8204621
:1049100000F07AF8049805B0F0BD2DE9F84306469A
:10492000174684B088469946B80001F0F7FA0500AA
:104930001CD0602001F0F2FA040014D0002025639E
:1049400084F85D000D9A03900C9801924B460090FC
:104950003A4602944146304600F00DF8204600F0F9
:1049600053F8012004E0284601F061FB4FF0FF30CE
:1049700005B0BDE8F0832DE9F0470A9F81460C465B
:1049800015469A46A522386BA90001F09FFB3A6BA9
:1049900002EB850107F13405081FC0084FEAC00883
:1049A00008F0070054B10021625C6A54605C10B1E9
:1049B000491C1029F8D30020E87300E02870089EF5
:1049C000372E88BF3726099CFE62AE61C6F13806D5
:1049D000E861381D01F0A4FB07F1180001F0A0FB0D
:1049E0003F610020BE6100217F62002228624046B4
:1049F0006962494687F85C20524601F0CFFB386077
:104A000004B12760BDE8F0872DE9F04100F054F8CB
:104A1000E86C1426DFF81087401CE864A86A28BBFD
:104A2000AC62E96C012929D1002706FB07F07F1C45
:104A3000404401F068FB382FF7D305F1780005F109
:104A40008C0701F060FB384601F05DFB284601F061
:104A50005AFB05F1140001F056FB05F1380001F096
:104A600052FB05F17801E9622F6307E0A86D28B9D0
:104A7000E16AA86AC26A914228BFAC62A86EE26A83
:104A8000401C6064696D914238BF6A655643A866F0
:104A9000211D08EB060001F046FB01F00AFCA86DA1
:104AA00040B1A96AE26AC86A904203D200F05BF89A
:104AB00000F099FABDE8F0810446DFF8D05601F025
:104AC000DFBB80B578B1DFF8C426116F11B100F0FB
:104AD00087FAFEE7116F491C1167002100F019FCED
:104AE00000F08AF818B900F034F800F07CFA01BD43
:104AF0002DE9F041050002D100F072FAFEE7DFF87F
:104B00008C66B06A854208BF002020D001F0B8FB57
:104B10006C69D6F82C80376B01F0CBFB444518BF8D
:104B2000BC420BD006F138018C4209D1A86A28B9E1
:104B300095F85C10012918BF032008D1022006E077
:104B400006F11400844216BF002C04200120BDE8A9
:104B5000F0814FF08050DFF898170860704704F13B
:104B6000180001F006BB4FF08051DFF88437196060
:104B70007047000080B586B00020059003AA04901D
:104B800004A905A801F0EEFB059A04980292002101
:104B9000039A01900091002312A10FF2FD30FFF75C
:104BA0008BFEA8B101F0E8FB5021012812D181F35E
:104BB000118800F018FADFF82C074FF0FF31C166BA
:104BC000012282650023036501F080FD01F008FBEE
:104BD00007B000BD10F1010FFAD181F3118800F088
:104BE00002FAFEE749444C4500000000DFF8F406F5
:104BF000016F491C0167704770B5DFF890650024AC
:104C0000306F002520B900F0F7F800F0ECF9FEE76E
:104C100001F036FB306F401E3067316F002937D10D
:104C2000F06CD0B934E0F168CC68FFF798FF00F081
:104C30007DFAE06A716D814238BF70651423DFF838
:104C4000E8245843211D104401F06DFAE06AB16A6E
:104C5000CA6A904224BF0123336630680028E2D13B
:104C60000CB100F047FAF46D44B100F065F808B1FA
:104C700001203066641EF8D10021F165306E38B134
:104C80004FF08051DFF868260125116000F0ABF984
:104C900000F02ABBDFF84C06006D70472DE9F047A5
:104CA0008046DFF8E874386F002538241646401C2B
:104CB0003867FB6C99423AD3641E14206043DFF8D6
:104CC00068344FF024090122191809FB05F040440B
:104CD00000F0C3F94519002CEED109FB05F0F96A83
:104CE0000222404400F0B9F900EB050A396B09FBD8
:104CF0000AF3022208EB030000F0AFF98244042219
:104D000009FB0AF007F11401404400F0A6F98244BF
:104D1000032209FB0AF307F1380108EB030000F056
:104D20009CF900EB0A0516B101F0D4FC3060FFF7E6
:104D300063FF2846BDE8F0872DE9F843DFF84C749F
:104D40000026386F002852D13C6D641C3C6510D1A0
:104D5000F86A006820B100F04FF800F044F9FEE76F
:104D6000F86A396BF9623863786E401C786600F037
:104D7000C1F9F86E4FF01408DFF8AC93844227D3E2
:104D80001FE0F96ACA68D568686884422DD3281D77
:104D900001F0EFF9A86A18B105F1180001F0E9F97E
:104DA000E86A796D814238BF786508FB00F0291DFB
:104DB000484401F0B8F9E86AB96ACA6A904228BF63
:104DC0000126F86A00680028DBD14FF0FF31F96650
:104DD000B86AC06A08FB00F859F80810022928BF11
:104DE0000126386E30B1012604E0F866F0E7F86D70
:104DF000401CF86500F07EBA502181F3118870479D
:104E000010B5DFF88843206F10B10121216610BD75
:104E1000206601F05FFC616F814204D2A26A536D8B
:104E2000C318591A51656067616DDFF8382500E0D5
:104E3000491E14234B43D05830B90029F8D1FFF74D
:104E4000DBFF00F0D0F8FEE7D01800F1080342685D
:104E5000526842609A4204BF526842604068C26829
:104E6000A262616510BD10B50C4610B900F0B8F82B
:104E7000FEE700F01CF801F063F920460121BDE8CF
:104E8000104000F046BA38B50D46144610B900F08F
:104E9000A7F8FEE700F00BF801F045F90CB14FF070
:104EA000FF3521462846BDE8344000F032BADFF82D
:104EB000B024936A03F11801704738B5C068C4681C
:104EC00024B9FFF799FF00F08EF8FEE704F118000F
:104ED000DFF88C5401F04DF9296F41B900F026F943
:104EE00000F013F838BF6A6500F00DFA02E004F133
:104EF0001801284601F017F900F0FFF903D2012349
:104F000001202B6632BD002032BDE26A686D9042FE
:104F100070471420DFF84C344243211D981801F0EB
:104F200002B9DFF83C144A6E0260096D41607047B7
:104F3000F8B504460D46502014B900F052F8FEE7CB
:104F400015B900F04EF8FEE701F09AF9DFF8100409
:104F5000016D62682E688B1A16F1010F0ED0476E34
:104F6000D4F800C0674501D091420BD2B34207D2BA
:104F7000F31A2B60416E2160006D6060002402E036
:104F800000212960012401F094F92046F2BD01209E
:104F9000DFF8CC130866704770B5634C7B4D11E0A9
:104FA00001F06EF9286AC668301D01F0E2F8E86C7D
:104FB000401EE864696B491E696301F07AF9304666
:104FC00000F083F8686B0028EAD121680229F9D340
:104FD0004FF08050DFF89023106000F004F8F1E704
:104FE000502080F31188BFF34F8FBFF36F8F70474E
:104FF00070B505000E461446644808BF856A3560E2
:1050000005F134017160EA6A3261296BF1616A6C01
:10501000B260E96C71616A6D052BB26111D0816A71
:105020008D4208BF00200FD0032B33730DD1016FC9
:10503000491C0167A86A08B102213173FFF7DCFD42
:1050400003E02846FFF754FD30731CB1286B00F0D5
:1050500031F800E00020308470BD2DE9F8430446AB
:105060000D4628689046002708B3696805F10802D4
:1050700048686860904204BF406868606968CE68AC
:10508000686805F1080140686860884204BF4068AC
:105090006860686843460122D0F80C902420784369
:1050A00021184846FFF7A4FF7F1CB145E8D13846D8
:1050B000BDE8F2830146002000E0401C11F8012BFE
:1050C000A52AFAD08003000C704710B5044694F866
:1050D0005D0040B9206B00F0AAFF2046BDE81040FB
:1050E00000F0A5BF10BD0128F7D00228FAD0FFF7C5
:1050F00077FFFEE72549C86A006818B94FF0FF320C
:10510000CA667047C86AC268D3685868C86670477C
:10511000DFF84C12886D08B901207047086F08B994
:1051200002207047002070478C410020201D01F0B4
:1051300020B838B50446002134B3DFF82452502299
:10514000A86A844204D082F31188FFF74CFFFEE77F
:10515000206D20B982F31188FFF745FFFEE7E26A70
:10516000401EE36C20659A420ED068B9FFF7DEFF5F
:10517000E26CE262C2F13800A061696D914238BF11
:105180006A65FFF7C6FE0121084632BD684A002065
:1051900010B5044601F0A4FA2046FDF751FB20218A
:1051A00001E02154401C0F28FBD30022225420444C
:1051B00010BD00002DE9FE4F044600202070DFF8EE
:1051C000A001D0F84C90C06C2425684300F0A6FEE6
:1051D0005FEA00083CD000224946FFF75FFD8246A7
:1051E00020460FF29019002415E0002700E0442724
:1051F0007168641CFFF7CCFF8346B0680190318C66
:105200003A46584600913369494601F075FA5846C6
:10521000FDF716FB5844544515D205FB04F108EB85
:105220000106317B0429E0D8DFE801F00507090B0E
:105230000400DAE7DBE75827DAE75227D8E7422706
:10524000D6E75327D4E74046BDE8FE4F00F0EFBE57
:10525000BDE8F78F2DE9F84F054600202870DFF8EC
:105260000001D0F84CA0C06C2426704300F056FE1C
:105270005FEA000834D06A465146FFF70FFD0099F7
:1052800081466422B1FBF2F21000009225D028463C
:1052900000270FF2F00A45461CE00FF2F40101F07E
:1052A0002BFA12E006FB07F1009A6C18A169B1FB1A
:1052B000F2F86168FFF76CFFB8F1000F8346A2694E
:1052C000EBD04346514601F017FA58467F1CFDF7D4
:1052D000B7FA58444F45E5D3A846404600F0A7FE2C
:1052E000BDE8F18F684A002000F0E3FF284670BD5A
:1052F00004ED00E03046BDE8F283A86AE26AC16AC4
:105300009142704700001420164B4243211D98180B
:105310007047F8B5124D0C462F6DA96A0646081D58
:1053200000F027FF16F1010F05D124B1A86A011D75
:1053300005F138001AE0A86AF619BE424660A86A6C
:1053400005D2011D286BBDE8F44000F0F9BE011D37
:10535000E86A00F0F5FEE86E864238BFEE66F1BD01
:10536000684A00208C41002004ED00E0BDE8F440D4
:1053700000F0D9BE0925630925750925750925752C
:105380000D0A00000925750909257525250D0A0056
:1053900009257509093C3125250D0A00F8B50024B9
:1053A0000546290086B0554806D0012D09D0022DAA
:1053B0000FD06FF001042AE0016841F002010160A2
:1053C0000BE0026842F010020260006800F010007A
:1053D00006E0026842F002020260006800F002008B
:1053E000009000994AA2032332F8156003940493B5
:1053F00001210196424F029157F8250001A9FEF7BD
:10540000A5FF57F8250000223146FFF730F9204666
:1054100007B0F0BD38B50024010018BF012804D042
:10542000022818BF6FF0010404D100F019F801221E
:10543000FFF71DF9204632BD38B50024010018BF22
:10544000012804D0022818BF6FF0010404D100F035
:1054500007F80022FFF70BF9204632BD00000000DC
:105460002BA3274D33F8101055F82000704700008B
:10547000F8B5044686B0214827A30268022642F008
:1054800004020260006800F004000090009A33F803
:105490001450039604961B4E019506EB840528686C
:1054A00029B9002201A90292FEF750FF23E04FF430
:1054B000881201A9CDF80820FEF748FF06F10C007C
:1054C00017A100EBC40751F82410384601F03CF94D
:1054D000301D002150F82420384601F02DF900BF7E
:1054E0000EA0A96830F9144000222046FFF704F905
:1054F0002046FFF71FF9002007B0F0BDE044025836
:105500002C00002018000020002001F023B900002A
:105510000100020000400000002000002800000000
:105520000D00301638B50320134DFFF7D8F8FEF7FD
:10553000BDFC1249124A0B68C3F30323D45C09680B
:1055400001F00F01525C04F01F04E0400D4C02F02A
:105550001F0220FA02F3236028600F20FFF750F9A2
:1055600008B1012032BD01F0F7F8002032BD064835
:105570000068000C704700003800002018440258F2
:10558000D06E00083C0000200010005C81B006488E
:10559000016841F080010160006800F08000009027
:1055A000009901B0704700BFE044025838B51F4C65
:1055B0001F4801212060E1601E4A136849F64045FA
:1055C000002120462161B3FBF5F56D1EA1606560E9
:1055D000616100F005FB10B118A0FFF759F92046F2
:1055E00000F00BFB28B100BF1AA0BDE83240FFF766
:1055F0004FB931BD80B510480022016841F0020169
:105600000160006800F00200009000991D20012157
:10561000FFF772F81D20BDE80240FFF78BB8034882
:10562000C16C491CC16400F061BB00009C4B0020B0
:105630000004004038000020E844025874696D6599
:10564000206261736520696E6974206572726F7281
:105650000A00000074696D652062617365207374CF
:10566000617274206974206572726F720A000000A2
:10567000002200F02FBD000038B5DFF84040A168DF
:105680004A0708D4A36803F00703834201D001202E
:1056900032BD002032BDA168C90840EAC100A06047
:1056A000FCF716F9054620688104F2D4FCF710F9DE
:1056B000401B40F2E9329042F5D3E8E70448025833
:1056C0002DE9F04104002CD02078DFF8F454C10714
:1056D00011D52869A96A00F03800102805D01828CB
:1056E00004BF01F00301022930D129688A0302D5E1
:1056F0006068002815D0217841F2040688076BD530
:105700002869A96A202700F0380028B1182808BFA6
:1057100011F0030F40F0A980E06829684A0702D51C
:10572000002800F02D82296821F019010843286023
:10573000FCF7CEF880462868410742D4FCF7C8F849
:10574000A0EB08000328F6D3032037E26068B0F529
:10575000803F0FD038B9296821F48031296028684A
:1057600020F4802009E0B0F5A02F08D1296841F489
:1057700080212960286840F48030286007E02A688A
:1057800022F480322A60296821F48021296060682F
:1057900058B1FCF79DF8064629688803ABD4FCF79E
:1057A00097F8801B6528F7D3CEE7FCF791F80646FB
:1057B000286881039FD5FCF78BF8801B6528F7D3F9
:1057C000C2E7FFF7D4FEB04248D2206940283ED15C
:1057D000686867F3113068602178C8061ED52869AB
:1057E0001027A96A00F03800082805D0182804BF3F
:1057F00001F00301012973D12868C10503D5E269CD
:10580000802A40F0BD81FFF7B2FEB04260D2206A2C
:10581000202856D1686867F39E60686021780A077F
:1058200040F199806069002800F08580696F41F03F
:1058300001016967FCF74CF80646686F810700F1C3
:105840008A80FCF745F8801B0328F6D37CE769685B
:1058500021F47C3141EA00316960BDE76868216963
:1058600020F0FE4040EA0160B5E7E068C8B1296871
:1058700021F0190108432860FCF72AF880462868BF
:10588000410706D4FCF724F8A0EB08000328F6D360
:105890005AE7FFF76CFEB042E0D220694028D6D12B
:1058A00096E72868400840002860FCF711F8074692
:1058B0002968480790D5FCF70BF8C01B0328F7D3DD
:1058C00042E7696821F0F84141EA80616960A5E733
:1058D000E868216A20F07C5040EA0160E8609DE7BA
:1058E000E069C0B1296841F080012960FBF7F0FF51
:1058F00080462868C10506D4FBF7EAFFA0EB080044
:105900000328F6D320E7FFF732FEB042E0D2206A48
:105910002028D6D17EE7286820F080002860FBF799
:10592000D7FF06462968C805D9D5FBF7D1FF801BEC
:105930000328F7D308E7686F400840006867FBF763
:10594000C7FF0646686F810705D5FBF7C1FF801BBF
:105950000328F7D3F8E621788A0621D5A06978B123
:10596000296841F480512960FBF7B2FF0646286898
:10597000810415D4FBF7ACFF801B0328F7D3E3E6C3
:10598000286820F480502860FBF7A2FF06462968AB
:10599000880405D5FBF79CFF801B0328F7D3D3E6CB
:1059A0002078410748D5874F3A6842F480723A60C0
:1059B000FBF78EFF06463868C10505D4FBF788FF64
:1059C000801B6528F7D3BFE6A068012804D1286FA3
:1059D00040F00100286713E008B9286F09E00528A6
:1059E000286F06D140F004002867296F41F00101BB
:1059F00005E0400840002867296F21F0040129676D
:105A0000A06841F2893658B1FBF762FF0746286F5C
:105A1000810711D4FBF75CFFC01BB042F7D393E6BC
:105A2000FBF756FF0746286F810705D5FBF750FFA8
:105A3000C01BB042F7D387E6606A002800F0BD8043
:105A40002969614E01F03801182973D002282868AD
:105A500020F08070286061D1FBF73AFF0746296883
:105A6000880105D5FBF734FFC01B0328F7D36BE68D
:105A7000A86AA26A5549E36A0840104340EA031045
:105A8000A862616B206BA26B491E4902401EC0F3E5
:105A90000800521E01F47E4112040843E16B02F437
:105AA000FE021043491E090601F0FE410843286327
:105AB000E86A40084000E862696BA06C0E4046EA64
:105AC000C0066E63E96A206C21F00C010143E962B3
:105AD000E96A606C21F002010143E962E96A41F47C
