:020000040800F2
:10000000C85F0020F59C0008099B00080B9B0008B6
:100010000D9B00080F9B0008119B000800000000CA
:10002000000000000000000000000000C98F000870
:10003000139B000800000000718F00086D9C0008F1
:10004000059D0008099D00080D9D00084B6B0008E8
:10005000119D0008159D0008199D00081D9D0008B0
:10006000219D0008259D0008299D0008159B00087A
:100070001B9B0008219B0008279B00082D9D000862
:10008000319D0008359D0008399D00083D9D000800
:10009000419D0008459D0008499D00084D9D0008B0
:1000A000519D0008559D0008599D00085D9D000860
:1000B000619D000823730008659D0008699D000884
:1000C0006D9D0008719D0008759D0008799D0008D0
:1000D0007D9D0008819D0008859D0008899D000880
:1000E0005D9B0008456B0008000000008D9D000826
:1000F000919D0008959D0008999D00089D9D000810
:10010000A19D0008A59D0008A99D0008AD9D0008BF
:10011000B19D0008B59D00082D9B0008B99D000801
:10012000BD9D0008C19D0008C59D0008C99D00082F
:10013000CD9D0008D19D0008D59D0008D99D0008DF
:1001400000000000000000000000000000000000AF
:10015000DD9D0008E19D0008E59D0008339B000837
:10016000E99D0008ED9D0008F19D0008F59D00083F
:10017000F99D0008FD9D0008019E0008059E0008ED
:10018000099E00080D9E0008399B0008119E00087A
:10019000159E0008199E00081D9E0008219E00085B
:1001A000259E0008299E00082D9E0008319E00080B
:1001B000359E0008399E00083D9E0008419E0008BB
:1001C000459E0008499E00084D9E0008519E00086B
:1001D000559E0008599E00085D9E0008619E00081B
:1001E000659E0008699E00086D9E0008719E0008CB
:1001F000759E0008799E00087D9E0008819E00087B
:10020000859E0008899E00088D9E0008919E00082A
:10021000959E0008999E00089D9E0008A19E0008DA
:10022000A59E0008A99E0008AD9E000800000000E1
:10023000B19E0008B59E000800000000B99E0008AD
:10024000BD9E0008C19E0008C59E0008C99E00080A
:10025000CD9E0008D19E0008D59E0008D99E0008BA
:10026000DD9E0008E19E0008E59E0008E99E00086A
:10027000ED9E0008F19E0008F59E000800000000B9
:10028000F99E0008FD9E0008019F00080000000084
:1002900000000000059F00082DE9F84F044601F01A
:1002A00051FC002C00F030812168DFF870B604F1B9
:1002B0003405DFF86C66DFF86C76DFF86C86DFF803
:1002C0006C96DFF86CA6594518BF51452AD04945B0
:1002D00018BF414526D0B94218BFB14222D001F023
:1002E00049FA1CBFDFF84C3699421BD001F03EFAA8
:1002F0001CBFDFF84426914214D000F049FE1CBF19
:10030000DFF8382691420DD001F028FA1CBFDFF843
:100310003036994206D001F01DFA1CBFDFF82426C2
:10032000914245D1022300226B7059452A7018BFB3
:1003300051452AD0494518BF414526D0B94218BF7A
:10034000B14222D001F016FA1CBFDFF8E83599421D
:100350001BD001F00BFA1CBFDFF8DC25914214D052
:1003600000F016FE1CBFDFF8D42591420DD001F03D
:10037000F5F91CBFDFF8C835994206D001F0EAF95B
:100380001CBFDFF8C025914242D10B688E465B0846
:100390005B00CEF80030009023681868C1073DD597
:1003A00001F0D0FB009A801A0628F5D32020A8E09F
:1003B000DFF8940581421CBFDFF89025914218D0E8
:1003C000DFF88C3599421CBFDFF88805814210D0D8
:1003D000DFF8842591421CBFDFF88035994208D0B0
:1003E000DFF87C0581421CBFDFF81029914240F004
:1003F0008780022100206970287023681B68A0682C
:1004000040286FF3101340F0818043F0100381E027
:100410000A680B46520852001A60BCE7D3F800C0C5
:10042000A268DFF84005E16800EA0C001043626949
:10043000014320690843A1691043626A0143E069EE
:100440000843216A0143042A03D1E06A0843216B6F
:100450000143DFF81425D2F800C04FEA1C40000425
:10046000B0F1005F11D36068A0F12902062A24BF11
:10047000A0F13F02042A06D3A0F14702022A24BFBA
:100480004F38042801D241F4801119602268536961
:10049000606ADB0840EAC30304280ED1D4F828E0E0
:1004A000E06A4EEA030340B1A16969B9BEF1000FE9
:1004B00018BFBEF1020F1CD011D35361204601F0CA
:1004C00033FA00F0C4F845E0B1F5005F0BD1BEF19E
:1004D000030FF2D8DFE80EF00F0D0F03EDE7B0F1D8
:1004E000C07FEAD107E0BEF1020F04D9BEF10301DB
:1004F000E3D1C001E1D540210122296201209BE026
:100500004020286203216970012096E0802808BFFE
:1005100043F48043E168206962694FF0140C08439A
:10052000A1691043226A0143E0690843216843EA54
:10053000D003DFF8380443EA12130B602368C318B2
:10054000B3FBFCFC4FEA8C00A862204601F0ECF9FA
:1005500000F075F82068584518BF50454CD0484504
:1005600018BF404548D0B84218BFB04244D0DFF869
:10057000001488421CBFDFF8BC2390423CD0DFF857
:10058000F43398421CBFDFF8B013884234D000F037
:10059000B7FB1CBFDFF8A43398422DD000F0B8F9A8
:1005A0001CBFDFF89C23904226D000F0ADF91CBFA1
:1005B000DFF8901388421FD0DFF88C2390421CBFD5
:1005C000DFF88833984217D0DFF8841388421CBFC5
:1005D000DFF8802390420FD0DFF87C3398421CBFB5
:1005E000DFF87813884207D0DFF8742390421CBFED
:1005F000DFF8083798421BD1204601F0EBF9A068DC
:10060000802804BF00216160E96A20790860286BB6
:100610006A6B4260606838B1092805D2204601F053
:1006200027FA00F01CF803E00021A963E9632964BC
:1006300000210122296200206A70BDE8F28F95F83E
:100640002820012102F01F0291404160704795F877
:1006500028203F2102F01F02914081607047A96B62
:1006600000200860E86B2A6C426070472DE9F84F63
:1006700004004FF0000B08BF012005D004F1340640
:100680003078012808BF022000F02F810127377041
:100690007078012840F022814FF0020C002786F884
:1006A00001C0DFF878A2376220689F4F00F01FFB7F
:1006B00018BF48452AD0404518BFB84226D0994DAA
:1006C000A8421CBF964DA84220D0A94DA8421CBFED
:1006D000984DA8421AD0A74DA8421CBF964DA842DB
:1006E00014D0DFF83456A8421CBF944DA8420DD058
:1006F000DFF82856A8421CBF914DA84206D0DFF86B
:100700002056A8421CBF8F4DA8420AD12068D0F8BD
:1007100000C04FEA5C054FEA450C8646CEF800C0A3
:1007200006E02568286840084000AC46CCF8000088
:10073000204601F025F82068504518BF484528D0CC
:10074000404518BFB84224D0764988421CBF744A3D
:1007500090421ED000F0C7FA1CBF7649884218D0DC
:1007600000F0D5FA1CBF744B984212D0DFF8A815E0
:1007700088421CBF714A90420BD000F0B0FA1CBFF7
:100780006F49884205D000F0BEFA1CBF6D4B9842FD
:100790000DD121680B200A6860F344020B461A60F1
:1007A000F06890B12068016841F008010CE0216810
:1007B00005200A6860F343020B461A60F06820B116
:1007C0002068016841F00401016020686949594AC4
:1007D000674BDFF84CC1DFF84CE1504518BF484586
:1007E0003ED0404518BFB8423AD0704518BF60456A
:1007F00036D0984218BF904232D088421CBF4E4D2E
:10080000A8422DD0DFF81055A8421CBF4B4DA8427E
:1008100026D0DFF80855A8421CBF494DA8421FD07A
:10082000DFF8FC54A8421CBF464DA84218D0464DE4
:10083000A8421CBF454DA84212D0454DA8421CBF3E
:10084000444DA8420CD0444DA8421CBF434DA84281
:1008500006D0434DA8421CBFDFF8A054A8420FD1D8
:10086000F06A0568ED0303D5056845F480750560F9
:10087000B06B28B105462E46286840F48070306081
:100880002068504518BF484522D0404518BFB8429F
:100890001ED0704518BF60451AD0984218BF9042CC
:1008A00016D088421CBF2449884211D000F028FA93
:1008B0001CBF224B98420BD000F02AF81CBF204AE4
:1008C000904205D000F020F81CBF1E49884202D19A
:1008D00000F00DF808E000F010F805E04FF40063B8
:1008E000336286F800B0BB465846BDE8F28F026816
:1008F000034642F001021A60704701460A46086842
:1009000040F0010010607047DFF8143498427047DF
:10091000DFF8081488427047000000001000024011
:10092000880002407000024058000240400002402F
:1009300028000240B8000240280402405804024047
:1009400088040240B8040240085402581C5402585B
:100950003054025844540258585402586C540258A7
:10096000805402583F8010FE0010005CF8ABFDA7D9
:10097000A0000240100402402DE9F84F054601F0A6
:10098000E1F8002D044600F0F38005F1340670789C
:10099000022802D080213162E8E02868DFF8F8A55B
:1009A000DFF8F8B500F0A3F918BF48452FD040454F
:1009B00018BF58452BD0DFF8E81588421CBFDFF878
:1009C000E425904223D000F08EF91CBFDFF8D81543
:1009D00088421CD000F09BF91CBFDFF8D03598424C
:1009E00015D0DFF8341388421CBFDFF8C4259042CD
:1009F0000DD000F074F91CBFDFF8B815884206D09E
:100A000000F081F91CBFDFF8B03598420AD10168C7
:100A1000024621F01E0111602868436923F080031B
:100A2000436104E00168024621F00E01116028686C
:100A30002F68504518BF48454ED0404518BF58450F
:100A40004AD0DFF85C1588421CBFDFF85825904279
:100A500042D000F048F91CBFDFF84C1588423BD06B
:100A600000F055F91CBFDFF84435984234D0AA494C
:100A700088421CBFDFF8382590422DD000F02FF9B6
:100A80001CBFDFF83015884226D000F03CF91CBFAF
:100A9000DFF8243598421FD0DFF8201588421CBFAC
:100AA000DFF81C25904217D0DFF8183598421CBF9C
:100AB000DFF8141588420FD0DFF8102590421CBFD4
:100AC000DFF80C35984207D0DFF8081588421CBFC4
:100AD000DFF8B824904204D1F06A016821F48071F3
:100AE00001602868504518BF48452ED0404518BFC2
:100AF00058452AD0DFF8A82490421CBFDFF8A41480
:100B0000884222D000F0EFF81CBFDFF89C2490420E
:100B10001BD000F01BFE1CBFDFF89034984214D0AD
:100B200000F0EEF81CBFDFF8881488420DD000F00A
:100B3000D6F81CBFDFF87C24904206D000F002FEFD
:100B40001CBFDFF87434984214D102680146520881
:100B500052000A603B68D80712D500F0F3FF001B73
:100B60000628F7D3202003213062717000223270F2
:100B70000120B2E001680246490849001160E9E736
:100B8000D5F800E0DFF82404DFF84C14DFF818246F
:100B9000DFF84834DFF80C44DFF804C4D64518BF4A
:100BA000CE4526D0C64518BFDE4522D0E64518BF43
:100BB000A6451ED09E4518BF96451AD08E4518BF33
:100BC000864516D0544FBE451CBFDFF8E473BE45C2
:100BD0000FD0DFF80C74BE451CBFDFF8D873BE45DC
:100BE00007D0DFF80074BE451CBFDFF8CC73BE45EC
:100BF0000BD196F828704FF03F0E07F01F070EFA42
:100C000007FE776AC7F808E00AE096F828704FF008
:100C1000010E07F01F070EFA07FE776AC7F804E017
:100C20002D68554518BF4D4545D0454518BF5D4514
:100C300041D0654518BFA5423DD09D4218BF9542A1
:100C400039D08D4218BF854235D0334885421CBF0C
:100C5000DFF85C138D422ED0DFF8842395421CBF51
:100C6000DFF85003854226D0DFF878138D421CBF91
:100C7000DFF8442395421ED0DFF8400385421CBFB5
:100C8000DFF83C138D4216D0DFF8382395421CBFA5
:100C9000DFF8340385420ED0DFF830138D421CBFDD
:100CA000DFF82C23954206D0DFF8280385421CBFCD
:100CB000B6498D420CD1336B726B5A60B06B38B150
:100CC00001460A6822F480720260F26B316C516056
:100CD00001200021707000203170BDE8F28FDFF834
:100CE000003398427047DFF8F43298427047DFF8DB
:100CF000F882DFF8F892504570470000945402588B
:100D0000054A90427047DFF8DC2290427047DFF8D6
:100D1000C822904270470000400402407004024024
:100D2000A00402402DE9F84F30B100F134025178AF
:100D3000022903D080201062012025E10668DFF837
:100D40005892DFF86812DFF89032DFF85C42DFF883
:100D50008C52DFF850A2DFF848B2DFF840C2DFF86B
:100D600088E2DFF888824E4518BF464527D0764591
:100D700018BF664523D05E4518BF56451FD0AE420A
:100D800018BFA6421BD09E4218BF8E4217D0DFF874
:100D90006072BE421CBFDFF81872BE420FD0DFF88F
:100DA0004072BE421CBFDFF80C72BE4207D0DFF8B3
:100DB0003472BE421CBFDFF80072BE4234D1042739
:100DC0004E45577018BF464527D0764518BF664533
:100DD00023D05E4518BF56451FD0AE4218BFA6426D
:100DE0001BD09E4218BF8E4217D0DFF804128E42ED
:100DF0001CBFDFF8BC2196420FD0DFF8E4319E42E1
:100E00001CBFDFF8B0118E4207D0DFF8D821964220
:100E10001CBFDFF8A4319E423DD1314608460C6824
:100E2000640864000460AEE0376827F00E0737609E
:100E300006684E4518BF464527D0764518BF66451B
:100E400023D05E4518BF56451FD0AE4218BFA642FC
:100E50001BD09E4218BF8E4217D0DFF89471BE425D
:100E60001CBFDFF84C71BE420FD0DFF87471BE4278
:100E70001CBFDFF84071BE4207D0DFF86871BE4288
:100E80001CBFDFF83471BE420CD1366807687608A3
:100E900076003E600AE0314608460A685208520071
:100EA000026070E037687F087F00376006684E4553
:100EB00018BF464546D0764518BF664542D05E45C8
:100EC00018BF56453ED0AE4218BFA6423AD09E4209
:100ED00018BF8E4236D0DFF818118E421CBFDFF8E3
:100EE000D0309E422ED0DFF8F840A6421CBFDFF87B
:100EF000C4108E4226D0DFF8EC309E421CBFDFF8D3
:100F0000B840A6421ED0DFF8B4108E421CBFDFF8F6
:100F1000B0309E4216D0DFF8AC40A6421CBFDFF8CE
:100F2000A8108E420ED0DFF8A4309E421CBFDFF81E
:100F3000A040A64206D0DFF89C108E421CBF134B87
:100F40009E4219D1D16A0C6824F480740C6092F826
:100F50002830546A012103F01F0399406160156B2A
:100F6000536B6B60916B39B10B461C6824F4807431
:100F70000C60D46B136C6360012100235170D16944
:100F8000137001B188470020BDE8F28F94540258D5
:100F9000174B994270470000100002405800024071
:100FA0007000024088000240B8000240280402405D
:100FB0005804024088040240B80402400854025811
:100FC0001C54025830540258445402585854025881
:100FD0006C5402588054025810040240A000024091
:100FE00070040240A0040240400002402800024079
:100FF000400402402DE9FE4F0021DFF8182901913D
:1010000013684FF4165504460822DFF80CB9B3FBF9
:10101000F5F5029504F13405686A01230090DFF8C4
:10102000FC78DFF8FC88DFF8FC980146DFF88CA933
:101030000E680168D4F800C0DC4518BFD44531D033
:10104000CC4518BFC4452DD0BC451CBFDFF870E9A6
:10105000F44527D0DFF878EAF4451CBFDFF864E9EF
:10106000F4451FD0DFF86CEAF4451CBFDFF858E9FF
:10107000F44517D0DFF860EAF4451CBFDFF84CE90F
:10108000F4450FD0DFF854EAF4451CBFDFF840E91F
:10109000F44507D0DFF848EAF4451CBFDFF844EA1E
:1010A000F44541D100F044FB02FA00F0064200F0A2
:1010B0009580DC4518BFD44531D0CC4518BFC44518
:1010C0002DD0BC451CBFDFF8F8188C4527D0DFF8C1
:1010D000000A84451CBFDFF8EC0884451FD0DFF808
:1010E000F4198C451CBFDFF8E008844517D0DFF801
:1010F000E80984451CBFDFF8D4188C450FD0DFF811
:10110000DC0984451CBFDFF8C808844507D0DFF838
:10111000D0198C451CBFDFF8CC0984454AD1DCF8D6
:10112000000000F0040049E0DFF82869B4451CBF66
:10113000DFF82469B44518D0DFF82069B4451CBF36
:10114000DFF81C69B44510D0DFF81869B4451CBF3E
:10115000DFF81469B44508D0DFF81069B4451CBF46
:10116000DFF81866B44540F0E182DCF8006095F8DD
:1011700028C04FF0040E0CF01F0C0EFA0CFE11EA02
:101180000E0FCDF800E000F04B825FEA467E40F1A2
:10119000478200994160300440F1F881F10300F189
:1011A00037826969002900F0C182204603B0BDE89A
:1011B000F04F08476046006800F0080070B16046D4
:1011C000016821F00401CCF8001000F0B1FA82406F
:1011D00000988260296A41F00101296200F0A8FAB2
:1011E00026FA00F1CA073DD52168594518BF514577
:1011F0002ED0494518BF41452AD0B9421CBFDFF85F
:10120000C027914224D000F0B5FA1CBFDFF8B42704
:1012100091421DD000F0AAFA1CBFDFF8AC27914222
:1012200016D0DFF8B42891421CBFDFF8A027914206
:101230000ED000F093FA1CBFDFF89427914207D03C
:1012400000F088FA1CBFDFF89C28914240F08E80A5
:101250004969090606D5834000988360296A41F0F0
:101260000201296295F8281000F067FA06423FD083
:101270002168594518BF51452FD0494518BF4145F0
:101280002BD0B9421CBFDFF83827914225D0DFF8B8
:10129000403899421CBFDFF82C2791421DD000F046
:1012A00065FA1CBFDFF82037994216D0DFF82828EE
:1012B00091421CBFDFF8142791420ED0DFF81C3892
:1012C00099421CBFDFF80827914206D000F042FA8D
:1012D0001CBFDFF8103899424AD1D1F800C05FEA4C
:1012E0008C7205D500998860286A40F00400286255
:1012F00095F82800102100F01F0081400E4259D0BF
:101300002068584518BF50452CD0484518BF404567
:1013100028D0B8421CBFDFF8A826904222D0FFF7A1
:10132000E2FC1CBFDFF89C2690421BD0FFF7EFFCCD
:101330001CBFDFF89436984214D0FFF7E1FC1CBFC5
:10134000DFF8882690420DD0FFF7C9FC1CBFDFF8FC
:101350008026904206D0FFF7D6FC1CBFDFF884370A
:10136000984208D1006800F0080009E00A6879E7AF
:1013700008460368BCE78446DCF8000000F004007F
:10138000C0B100988160206801684A0307D50068F1
:1013900001030BD5696969B1204688470AE00168F5
:1013A000CA0503D4036823F008030360E96809B1A0
:1013B0002046884795F82800202100F01F00814032
:1013C0000E423BD02068584518BF50452DD04845A7
:1013D00018BF404529D0B8421CBFDFF8E425904231
:1013E00023D0FFF780FC1CBFDFF8D865B0421CD0CB
:1013F000FFF78DFC1CBFDFF8D035984215D0DFF821
:10140000D866B0421CBFDFF8C42590420DD0FFF76C
:1014100066FC1CBFDFF8B865B04206D0FFF773FC6E
:101420001CBFDFF8C036984203D1006800F01000FE
:1014300003E00246106800F00200002847D0009840
:10144000816020686978042927D1026822F0160299
:1014500002602068436923F080034361E968002942
:1014600004BF6869002804D02068016821F00801E1
:10147000016095F8282000993F2002F01F0290405B
:101480008860012068700022E9692A70002920D054
:10149000204603B0BDE8F04F084701684A0307D56E
:1014A000006801030FD4296989B1204688470EE0FE
:1014B0000168CA0507D40368002123F01003036004
:1014C000012068702970A96809B120468847286AF8
:1014D000002800F02B81296AC80756D504226A70BB
:1014E0002068584518BF50452ED0484518BF404584
:1014F0002AD0B8421CBFDFF8C814884224D0DFF8D5
:10150000D02590421CBFDFF8BC3498421CD000F0BC
:101510001DF91CBFDFF8B024904215D000F022F96D
:101520001CBFDFF8A81488420ED0DFF8B025904227
:101530001CBFDFF89C34984206D000F003F91CBFB2
:10154000DFF8A025904217D1206803685B085B0094
:1015500001460B600298019A521C90420192216848
:1015600002D30A68D307F6D40868C10747BF03222D
:101570006A7001236B7006E0206801684908490021
:1015800002461160E6E700202870C8E0B0063FD4AC
:101590002068584518BF50452ED0484518BF4045D3
:1015A0002AD0B8421CBFDFF81814884224D0DFF8D4
:1015B000202590421CBFDFF80C3498421CD000F06C
:1015C000C5F81CBFDFF80024904215D000F0CAF81F
:1015D0001CBFDFF8F81388420ED0DFF800259042D8
:1015E0001CBFDFF8EC33984206D000F0ABF81CBF0C
:1015F000DFF8F024904205D10368014623F0080388
:101600000B6005E002461346106820F004001860E5
:10161000E968002918D0204603B0BDE8F04F08471C
:101620004FF0020E0EFA0CFE11EA0E0FCDF800E09C
:101630005DD05FEA867E5AD500994160300409D5B5
:10164000F1034DD42969002970D0204603B0BDE8CC
:10165000F04F0847B00643D42068584518BF50459E
:101660002ED0484518BF40452AD0B8421CBFDFF8ED
:101670005013884224D0DFF8582490421CBFDFF872
:10168000443398421CD000F061F81CBFDFF83823C7
:10169000904215D000F066F81CBFDFF83013884286
:1016A0000ED0DFF8382490421CBFDFF82433984274
:1016B00006D000F047F81CBFDFF82824904205D17F
:1016C0000368014623F014030B6005E0024613464D
:1016D000106820F00A00186001210020697028704D
:1016E000A96819B3204603B0BDE8F04F084702FAD5
:1016F0000CF211421AD0310718D52268166826F06C
:101700000E06174601223E6095F8281001F01F01D1
:101710008B4043600120286200216A702970A9690A
:1017200021B1204603B0BDE8F04F0847BDE8F78F70
:1017300095F8280000F01F007047042001F01F01F9
:1017400088407047DFF8981388427047DFF88413A9
:1017500088427047DFF8882391427047DFF87C2386
:1017600091427047DFF8703398427047DFF8642386
:1017700091427047DFF858239142704794540258C1
:101780002DE9F84F0446DFF890A1A56DDFF830B2DF
:1017900000952668DFF884C1DFF884E1DFF88481F2
:1017A000DFF81892564518BF4E4543D0464518BF3E
:1017B00076453FD0664518BF5E453BD0DFF8100345
:1017C00086421CBF7F4FBE4234D0DFF808038642FA
:1017D0001CBF7D4886422DD0DFF8FC72BE421CBF84
:1017E0007A48864226D0DFF8F40286421CBF784F42
:1017F000BE421FD0DFF8E80286421CBFDFF8E402D9
:10180000864217D0934FBE421CBF9348864211D0E8
:10181000924886421CBF924FBE420BD091488642EE
:101820001CBF9148864205D0904FBE421CBFAE48B7
:1018300086425BD1676EA06E7860E06E10B1206F5B
:10184000676F4760564518BF4E4525D0464518BFBF
:10185000764521D0664518BF5E451DD09C4886421E
:101860001CBF5848864217D09A4886421CBF56482B
:10187000864211D0984886421CBF544886420BD0FD
:10188000964886421CBF5248864205D094488642FC
:101890001CBF9448864215D194F85C00DDF800B076
:1018A0003F2500F01F008540CBF80850356825F42F
:1018B000802535607360A068402827D0B160F26051
:1018C000BDE8F18F634886421CBF6348864210D052
:1018D000624886421CBF624886420AD061488642FE
:1018E0001FBF614886426148864202D07E488642D8
:1018F000E6D194F85C00012700F01F0007FA00FC15
:10190000C5F804C07360A368402BD7D1B260F16002
:10191000D6E700003C0000201000024070000240AA
:101920005800024040000240F0B501686F4A914201
:101930001CBF224B994229D06D4CA1421CBF6D4A5D
:10194000914223D06C4B99421CBF1D4CA1421DD02B
:10195000FFF710FF1CBF1B4B994217D05D4CA142F3
:101960001CBF194A914211D0FFF712FB1CBF174C44
:10197000A1420BD0FFF7F2FE1CBF154B994205D0D8
:10198000574CA1421CBF574A914211D101F0FF03AD
:10199000890A103B1824B3FBF4F20FF2A01502F0F1
:1019A00007068902AF5D042AC76503D3091D01E05C
:1019B000090A090281650846F0BD000028000240BE
:1019C00088000240B8000240280402405804024047
:1019D00088040240F0B5046801221E4D2346AC4243
:1019E0001CBF1D4EB44211D01C4FBC421CBF1C4D2D
:1019F000AC420BD01B4EB4421CBF1B4FBC4205D0A7
:101A00001A4DAC421CBF384EB4420DD104F0FF0158
:101A100008391423394DB1FBF3F1394B03EB810342
:101A200001F01F018A4011E004F0FF011039182471
:101A3000B1FBF4F43349CB18A92B38BF0834324B2F
:101A4000324D03EB840304F01F04A2400366456695
:101A50008266F0BD085402581C5402583054025893
:101A600044540258585402586C5402588054025836
:101A70000179002900D170470929F0B527D2026801
:101A8000234B9A421CBF234DAA4211D0224EB24290
:101A90001CBF224B9A420BD0214DAA421CBF214EA3
:101AA000B24205D0204FBA421CBF0F4DAA4204D10A
:101AB0001E4B1F4A03EB810403E01E4A02EB810424
:101AC0001D4A0123491E8B40C46602674367F0BD6F
:101AD000A000024010040240400402407004024092
:101AE000A0040240B804024094540258100002407E
:101AF00040000240580002407000024080580258E6
:101B000000580258F0FBFDBF000802408008024068
:101B1000085402581C540258305402584454025875
:101B2000585402586C54025880540258FC580258B9
:101B300040590258FC0802404009024000061016B5
:101B40000006101601484068704700BF0C000020D6
:101B500040F0200070472DE9F14FB0B0924604915B
:101B60000DF142013A9A2B9199464A7000200AE001
:101B70001AF8011B0498309A90470028049000F04E
:101B800041860D98401C0D909AF8000050B1252810
:101B9000EED1002100220791089209910A920B913F
:101BA0000C9204E00D9800F02FBE41F001011AF8EC
:101BB000010F2028F9D023280CD02B2804D02D2861
:101BC00005D0302809D00BE041F00201EFE741F0E9
:101BD0000401ECE741F00801E9E741F01001E6E714
:101BE0002A280FD1D9F8002052F8040BC9F8002098
:101BF00000280F9003D540420F9041F004010AF1F4
:101C0000010A14E00F92DFF8083C0AE00F989842AE
:101C100005DA00EB800402EB4402303A0F920AF13D
:101C2000010A9AF80020A2F130000A28EED39AF8AF
:101C300000002E2803D04FF0FF320E9229E01AF850
:101C4000010F2A2809D1D9F8000050F8042BC9F84F
:101C500000000E920AF1010A1BE02D280CBF0AF1C8
:101C6000010A002000220E92DFF8A44B0BE040B9DD
:101C70000E9AA24205DA02EB820503EB4503303BE4
:101C80000E930AF1010A9AF80030A3F130020A2AF1
:101C9000EDD3ADF840100FF67C309AF8001000F04C
:101CA000D9FE08B11AF8010B8DF842009DF84200E8
:101CB000682805D19AF8000068280CD1622106E056
:101CC0006C2804BF9AF800006C2804D171218DF8AB
:101CD00042100AF1010A12A806901AF801BBBBF1E2
:101CE00025012CD01C3900F09481091F022940F2F3
:101CF0009081133900F0B884093900F08A81891E77
:101D000000F04D85491E00F0FA84491E022940F278
:101D10008081091F00F0F384491F00F0EF80491E05
:101D200000F0A284491E00F0D780C91E0CD0891E85
:101D300000F09A84C91E00F0978400F03BBD012397
:101D40000793252100F033BDD9F8000050F8044B6B
:101D5000C9F80000002C059440F0AB802B9948781E
:101D6000002800F0A1804FF0FF340FF6B02000F003
:101D700081FE241A40F0468500F028BD01236A4602
:101D800002A9304600F00EFE002840F03B85641E9C
:101D9000F4D13096079C12AF74B1309E17F8011B36
:101DA0000498B0470028049000F02C850D98401C42
:101DB000641E0D90F2D130960A9C3021002C8DF8D3
:101DC00000100CDD309E01236A4602A9304600F067
:101DD000E9FD002840F01685641EF4D13096059F79
:101DE000089C74B1309E17F8011B0498B047002876
:101DF000049000F007850D98401C641E0D90F2D1F0
:101E000030960B9C3021002C8DF800100CDD309E9C
:101E100001236A4602A9304600F0C4FD002840F0C4
:101E2000F184641EF4D1309605980899099C4718EE
:101E300074B1309E17F8011B0498B0470028049035
:101E400000F0E0840D98401C641E0D90F2D1309695
:101E50000C9C3021002C8DF800100CDD309E0123ED
:101E60006A4602A9304600F09DFD002840F0CA8471
:101E7000641EF4D130969DF8400041077FF584AE92
:101E80002020002D8DF800007FF77EAE309C0123CE
:101E90006A4602A9204600F085FD002840F0B28481
:101EA0006D1EF4D130946FE60FF65830059000F0B7
:101EB0008DBC0E9D002D04D5204600F0FBFD044690
:101EC00007E02A46204600F0FFFD002814BF041B4F
:101ED0002C46089400F07ABCD9F8001051F8040B95
:101EE000C9F8001020F00004002121F0FF35CDE9F1
:101EF000024512AB0593782100F04DBC2B99487830
:101F000020B14FF0FF340FF6CC2030E79DF84200AF
:101F1000622860D0682817D06A283FD06C2806D085
:101F2000712847D074282CD07A281DD062E0D9F8C7
:101F3000001051F8040BC9F80010002866D14FF0CA
:101F4000FF340FF6A82012E7D9F8001051F8040B5F
:101F5000C9F8001020B94FF0FF340FF6902006E7C3
:101F60000D99018000F032BCD9F8001051F8040B33
:101F7000C9F80010002849D14FF0FF340FF66C204B
:101F8000F5E6D9F8001051F8040BC9F80010002844
:101F90003CD14FF0FF340FF65420E8E6D9F800109A
:101FA00051F8040BC9F8001080B94FF0FF340FF658
:101FB0003C20DCE6D9F8001051F8040BC9F80010F9
:101FC00020B94FF0FF340FF62420D0E60D9AD31736
:101FD000C0E90023FAE3D9F8001051F8040BC9F85E
:101FE000001020B94FF0FF340FF60020BFE60D9926
:101FF0000170EBE3D9F8001051F8040BC9F8001098
:1020000020B94FF0FF340FF6E410B0E60D990160EF
:10201000DCE39DF842004C2807BFD9F80010CA1D28
:10202000D9F80000C21D22F00702C9F80020D2E949
:1020300000010832C9F80020CDE90201C80F02D022
:1020400007982D210AE0BDF84000810702D50798C6
:102050002B2103E0C00705D50798202112AA1154AF
:10206000401C079012A807994BF0200300EB010CCD
:10207000DDE90201CDE92C01612BCDF814C021ACC2
:102080000BD00E98002848BF062105D404BF4BF0A2
:102090002000672801D101210E91DDE902014F00E6
:1020A00047EAD0777E15FF174FF0FF32974208BFFF
:1020B000964210D1090341EA10510003002908BFDC
:1020C000002808D0ABF1610503211A2D089118D31F
:1020D0000FF6381110E0DDE902014A00521512F145
:1020E000010F11D108030FD1ABF1610503211A2DA6
:1020F00008911FD30FF61C110322604600F010FD5B
:1021000064E30FF60411F7E7DDE902016A4600F027
:1021100013FDCDE902014BF02000612811D1059893
:1021200030210170821C0592BBF1610F0CBF782138
:10213000582102E00FF6D801DEE741700798801CB5
:102140000790DDE9020120F0000231F0004308BFF2
:10215000002A02D10026002542E14BF02008B8F108
:10216000610F40F092800E98002847BF2121019115
:10217000401C0190019FDDE92C017F1C00220023FF
:10218000DDE9024500F010FD38BF85F000450099FB
:102190008DF88420091F002F00910DF1850632DD96
:1021A000204629460022002300F018FD2BD21C22D5
:1021B00000F02EFD04460D4600F0ACFDFF1F002F81
:1021C000804609DD00F0ADFD02460B46204629465B
:1021D00000F0AEFD04460D46F01D0721B8F1000FDA
:1021E0000CDD491E5EBF08F00F0200F8012D4FEA1A
:1021F0002818F3D502E0002200F8012D491EFAD577
:10220000C61D002FCCDC0DF18500361A01980DF1AA
:1022100085048642D8BF304600282FD4B04206DA63
:102220000DF185010A5C082AA8BF0F2100DA002100
:10223000024621AB134400E0401E13F80159521E20
:102240008D42F9D00F2904D10DF185018B5C5B1C07
:102250008B54002A04D50099091D21AC401C009123
:10226000411E0BD4621813783033DDB23A2DA4BF6F
:102270005B443A3B491E02F80139F4D50E99002916
:1022800040F1AC80421E0E92A8E00099DFF80427CE
:1022900047F29750414391FBF2F20092DDE92C4561
:1022A000C2F10702002A25F0004504DD2046294638
:1022B00000F04CFB0BE052420020DFF8DC1600F08F
:1022C00045FB02460B462046294600F03AFD0446EF
:1022D0000D46B8F1660F06BF009F0A3706270E9815
:1022E0003F18142FC8BF142730208DF884000DF13B
:1022F0008506002F34DD2046294600F02BFD0146DF
:102300000A4606F1080304200A26B2FBF6F606EB9D
:10231000860EA2EB4E02303203F8012C0A22B6FBE5
:10232000F2F202EB820EA6EB4E063036401E03F8A8
:10233000026DE9D1083F002F03F10806D9DD0846F8
:1023400000F00FFD02460B462046294600F0F0FC47
:102350000022DFF8483600F00BFD04460D46CAE7C0
:102360000DF18500361A0DF1850404E00098401E39
:10237000761E0090641C20783028F7D0B8F1660FE4
:1023800002D10098401C04E0B8F1650F0CBF012099
:1023900000200E9940188642B8BF701E00281DD438
:1023A000B04204DA215C3429C8BF392100DC302175
:1023B0000246631E9D1800E0401E15F80169521E7A
:1023C0008E42F9D0392902D1A15C491CA154002ABE
:1023D00004D50099491C1C46401C00910646009DEE
:1023E00000F0D0FC406A0778DDF8388030B2002871
:1023F00002DC01260FF220644BF02000662808BFA3
:102400006D1C16D0672845D128B210F1040F47DBA8
:10241000404545DA9DF840006D1C010703D430B2F9
:102420004045D8BF804628B2B8EB000848BF4FF0FF
:1024300000080FFA85FBBBF1000F00F3B480089889
:10244000411C0891302205990A54B8F1000F03DCB1
:102450009DF84000010704D50898411C0891059992
:102460000F5418EB0B0FB8BFC8F100052DB268422E
:10247000454432B20B909542B8BF2E46059B089852
:1024800036B2099632462146184400F049FBAD1B8E
:102490000C95D2E0BBF1610F17D14FF0700B19E032
:1024A00030B2404504DA9DF840100A0758BF804614
:1024B000B8F1010848BF4FF00008BBF1670F14BF27
:1024C0004FF0450B4FF0650B04E0BBF1410F08BF27
:1024D0004FF0500B0898411C0891B8F1000F059976
:1024E00014F8012B0A5403DC9DF8400001071AD5AB
:1024F0000898411C0891B8F1000F05990F5412DD9E
:10250000761E30B28045B8BF46460598089B32B269
:102510002146184400F004FB089936B2711808915E
:10252000A8EB06000B9005980899084429B20029E9
:1025300080F800B003D42B224270821C04E02D22CC
:1025400042700D46821C6D4200212CAB28460AE0E9
:1025500004460A2094FBF0F000EB8005A4EB450450
:1025600003F8014B491C00B20028F1DC012906DC0C
:102570004BF02000652804BF302002F8010B002931
:102580002CAB08D1302002F8010B06E0491E585C44
:10259000303002F8010B0029F8DC0599089808444E
:1025A000121A099249E030B229B288421CDA059821
:1025B000089B32B22146184400F0B2FA089936B2AC
:1025C00071180891ABEB0600B8F1000F0B9003DC1B
:1025D0009DF84000020704D5059847540999491C05
:1025E0000991CDF8308028E00598089B2AB2214651
:1025F000184400F095FA0898761B5844B8F1000F7B
:10260000089003DC9DF840100A0703D5411C08918F
:1026100005990F5430B28045B8BF46460598089BCF
:1026200032B204EB0B01184400F07AFA089836B283
:1026300030180890A8EB06000B909DF8400000F0C1
:102640001400102840F0C280079A08980B9982184D
:1026500009988A1882180C980F998018884280F27D
:10266000B580081A0A90B1E09DF84200622808D0AF
:1026700068280ED06A2814D06C281FD0712810D07A
:102680001CE0D9F8001051F8040BC9F80010C0B2D2
:102690001AE0D9F8001051F8040BC9F8001080B204
:1026A00012E0D9F80000C21D22F00702C9F800208C
:1026B000D2E900010832C9F8002006E0D9F800107C
:1026C00051F8040BC9F800100021CDE902019DF872
:1026D000400001075AD5DDE90223002B08BF002A7C
:1026E00054D04BF02000782850D1079812A93022FE
:1026F0000A54401C431C079301F800B046E09DF8C3
:102700004200622808D068280ED06A2814D06C28AD
:102710001FD0712810D01CE0D9F8001051F8040B1C
:10272000C9F8001040B21AE0D9F8001051F8040BB3
:10273000C9F8001000B212E0D9F80000C21D22F062
:102740000702C9F80020D2E900010832C9F80020C8
:1027500006E0D9F8001051F8040BC9F80010C117B1
:10276000CDE90201002902D507982D210AE0BDF824
:102770004000810702D507982B2103E0C00705D54B
:102780000798202112AA1154401C079012A80799FB
:1027900001440591594602A800F04EF816E00120C8
:1027A0000790D9F8000050F8041BC9F800008DF814
:1027B00048100BE001212522BBF1000F07918DF895
:1027C000482003D0022207928DF849B00F9D079947
:1027D0000A986D1A08992D1A0B986D1A09992D1AD5
:1027E0000C986D1A9DF840102D1A48073FF5D2AA93
:1027F0002021002D8DF800107FF7CCAA309E2C46AA
:10280000FFF7BCBA4FF0FF3031B0BDE8F08F0000E9
:10281000CBCCCC0C686A6C747A4C00007072696E18
:1028200074665F733A206261642025732061726769
:10283000756D656E740000002DE9FC4707468A46F9
:102840003C6950466F2808BF082505D0FFF780F97E
:10285000782814BF0A251025D7E900013C268046B8
:102860008946BAF1640F18BFBAF1690F05D1002982
:1028700003D5D8F1000869EB4909B9F1000F08BF89
:10288000B8F1000F0CD1386B50B9082D3AD197F838
:102890003800010736D530223B2684F83B2031E052
:1028A0008DF800A0404649462A46EB1700F06EFA24
:1028B0003032D0B2761E3A2801960EDAA255404642
:1028C00049462A46EB1700F061FA80465FEA0109A3
:1028D00008BFB8F1000F05D108E09DF800001218FC
:1028E000513AEBE7F868A1198842DBD3082D09D1EA
:1028F00097F83800010705D5A05D302802D0761E74
:102900003020A055C6F13C03BB61A119F960386BBA
:10291000834208DAC31A3B624FF6EF70398F0140E9
:102920003987BDE8F38700280ED597F8380000F006
:102930001400102808D17A6B7969386A521A121A71
:10294000D21A002AC8BF3A62BDE8F3872DE9D04306
:1029500006460F4614464FF00008DFF8449012E098
:10296000E00707D542464B463046394600F000FAAC
:1029700006460F464046494642464B4600F0F8F9A7
:10298000641080468946002CEAD130463946BDE8BD
:10299000D0830000A08601000000F03F84D797415B
:1029A00000002440F8B505460E4617461C46002098
:1029B0005CB117F8011BB068A847B06030B1F06A8D
:1029C000401CF0620020641EF3D1F2BD4FF0FF30D6
:1029D000F2BD00007072696E74665F733A20256EF6
:1029E00020646973616C6C6F776564007072696EE6
:1029F00074663A2062616420256E20617267756D8D
:102A0000656E7400000000006E616E004E414E0065
:102A1000696E6600494E4600300030B50168846832
:102A20004218416802EB5103C90703D54C4401E049
:102A3000491C08D19A4218BF12F9011B01D10C3070
:102A400030BD12F8015B002904F8015BF0D4491E87
:102A5000F7D5EFE7C9B202788A421AB11CBF10F865
:102A6000012FF9E718BF002070470268531C03606C
:102A70001170704780B500B906A005490B681BB1FD
:102A800022220021984701E000F003FA222002BD33
:102A9000C04F0020636F6E73747261696E7420683A
:102AA000616E646C65723A20626164206D65737357
:102AB0006167650000F1010310F8011B11B110F806
:102AC000011BFBE7C01A7047C9B2830706D0521E2C
:102AD00022D310F8013B9942F7D11FE0083A13D3F3
:102AE00002F1040241EA012141EA014150F8043BAC
:102AF000121F21BF4B40A3F1013C2CEA030C1CF038
:102B0000803FF3D0C9B2001F083210F8013B521EBB
:102B100028BF91EA030FF8D818BF0120401E704764
:102B20004AB1000011F8013B521E00F8013B1CBFE6
:102B300011F8013BF8E7704710B5144600F002F8B1
:102B4000226010BDC1F30A5343B14A0012F5001FC1
:102B500028D2A3F2FE32A1EB0251704750EA410C99
:102B600020D001F0004C31EA0C01B1FA81F204BF2F
:102B7000B0FA80F3D2180B3AB2F120032CBF00FA5E
:102B800003F1914041EA0C013EBFC2F1200C20FA52
:102B90000CF319439040524240F2FD33D21A01EB3C
:102BA000035170470022704741EA030C50EA4C0C75
:102BB00052EA0C0C4FF4001C09D307D01CEB410F58
:102BC0009CBF1CEB430F8B4208BF824270471CEB3B
:102BD000430FFBD8994208BF9042704741EA030C6B
:102BE00050EA4C0C52EA0C0C4FF4001C09D307D0ED
:102BF0001CEB410F9CBF1CEB430F994208BF904256
:102C000070471CEB410FFBD88B4208BF82427047D4
:102C100000B541EC100B104600F004F851EC100B1D
:102C200000BD00BF020030EE101B40F2FF7C37D425
:102C30001CEA115313D063456BD09B18634504D233
:102C400001EB025120EE101B704701F0004141EAF8
:102C50000C51002041EC100BAFF30080704710EED8
:102C6000100B50EA410054D0B2F57F7F08D202EB3E
:102C70005C010905002041EC110B20EE010B7047AF
:102C80004FF0FE41002341EC113B20EE010BB2F569
:102C90007E7230EE101B4FEA410342EB5353CDE7F7
:102CA00052421CEA115316D0634532D09A4204D2E4
:102CB000A1EB025120EE101B70475B1ED21AA1EB54
:102CC000035120EE101B372A0CD3002001F00041E5
:102CD00041EC100BC0E710EE100B50EA410018D089
:102CE000372AF2D2C2EB5C021105002041EC110B35
:102CF000F1EE100A20F01F0121F4F851E1EE101A54
:102D000020EE010BF1EE101AE1EE100A11F0080F9F
:102D1000A2D1704741EC100BBDEEC00B10EE100AB3
:102D2000704700EE100AB8EEC00B51EC100B704764
:102D300041EC100B43EC112B30EE410B51EC100B1E
:102D4000704741EC100B43EC112B80EE010B51EC62
:102D5000100B704741EC100BBCEEC00B10EE100ACC
:102D6000704700EE100AB8EE400B51EC100B7047A4
:102D700041EC100B43EC112B20EE010B51EC100B2E
:102D800070472E000048704744000020D3BBD9B1E3
:102D9000B2F5803F5BD2022A1ED98C46B1FBF2F11C
:102DA00002FB11C31B0443EA1043B3FBF2FC02FB1A
:102DB0001C3380B240EA0343B3FBF2F002FB103253
:102DC00040EA0C4000237047022A05D98446B0FB34
:102DD000F2F002FB10C270474AB105D100F00102C7
:102DE00049085FEA3000704700220023704700F076
:102DF00053B80B000200002100207047F7D30022D7
:102E000000237047904271EB030CF2D370B5B1FA16
:102E100081F4B3FA83F52C1BA340C4F1200532FAE8
:102E200005F63343A2405FF00046E64002E05B084F
:102E30005FEA3202841A71EB030524BF204629465B
:102E40007641F4D302000B003000002170BD70B554
:102E5000B1FA81F4B2FA82F5C4F120046419B4F134
:102E60002006DAD3B2405FF00044F440002502E0CF
:102E700052085FEA3303C61A71EB020E24BF3046D4
:102E8000714664416D41F3D302000B00200029001C
:102E900070BD012000F002B87047000080B5AFF3AC
:102EA0000080024A11001820ABBEFBE7260002009A
:102EB00038B5040001D1012032BD04F184056868F1
:102EC00008B900F01BF800F01EF808B100F02EF869
:102ED00000F029F8012806D0206800F005F800F07D
:102EE0001BF800F085BA32BD416821F49041416081
:102EF0002068826822F02A02826070470021204602
:102F0000297000F0C4BE2420686020680168490868
:102F100049000160A06A70472068016841F0010122
:102F2000016020467047204600F066BA204600F057
:102F30006FBC2DE9F843054605F15406706B0C464D
:102F40001746994620283ED10CB1380001D1012006
:102F50003AE000202121F0637163FEF7F3FD378032
:102F600080467780A968B1F5805F04BF2869002892
:102F70001ABF204600272746044611E00022802180
:102F800000F024F8D8B92868002C12BF14F8011BEF
:102F900037F8021BC1F3080181627288511E7180EB
:102FA0007088CDF8009043460028E7D100224021E8
:102FB00000F00CF818B920207063002004E02021F4
:102FC0000320716300E00220BDE8F283284600F090
:102FD000DABCF8B5044604F15405686B13462028A2
:102FE00038D121B3180022D0216500202B80212167
:102FF0006B80E8636963A86AD8B1DFF8E013002644
:10300000C163AA6ADFF8D803DFF8D8131064A86A8E
:10301000C164AF6A3E652068216D00F12802A86A8C
:10302000FDF724FB28B110202021E863696301200B
:10303000F2BD226840201062216801F1080353E8C4
:10304000001F206841F0800100F1080200F0E3FC5D
:10305000F2D1F2BD0220F2BD134643E80010002871
:103060007047286881684A0670472DE9F84305468D
:1030700040F60F0C2A6805F15C04D3691046076816
:10308000966813EA0C0F03F0200107F020000DD121
:10309000002914D010B9F00040F19080A1690029F6
:1030A00000F078812846BDE8F4430847DFF8ECC615
:1030B00016EA0C0F04BFDFF8E8E617EA0E0F00F07F
:1030C0007D805FEAC37848BF5FEAC75E07D54FF0EF
:1030D0000109C2F82090626B42F0010262639A0714
:1030E0000BD5F20709D5D5F800E04FF00208CEF86D
:1030F0002080626B42F0040262635A070BD5F2072C
:1031000009D5D5F800E04FF00408CEF82080626BB6
:1031100042F0020262631A070FD5002808BF16EAC0
:103120000C0F0AD0D5F800C00822CCF82020D4F823
:1031300034E04EF0080EC4F834E01A0509D57B01DE
:1031400007D52A684FF400671762636B43F02003CA
:103150006363626B002A30D031B108B9F00003D547
:10316000A16909B128468847606B29688A685306B7
:1031700002D410F0280F1BD000F012F9FFF771FFF6
:1031800011D500F010F9FCD1606A60B1DFF81416B7
:103190000165606AFDF7C6FD00280ED0606A016D0A
:1031A000BDE8F44308472846BDE8F24300F0ACBE52
:1031B000284600F0A9FE00206063EBE021690129A8
:1031C00040F0A980D80600D5F90640F1A48010236C
:1031D0001362FFF746FF6AD5606ADFF8CC350168F5
:1031E00099421CBFDFF8C42591422ED0DFF8C0659C
:1031F000B1421CBFDFF8BC35994226D0DFF8B825B4
:1032000091421CBFDFF8B465B1421ED0DFF8B03583
:1032100099421CBFDFF8AC25914216D0DFF8A865B3
:10322000B1421CBFDFF8A43599420ED0DFF8A025CB
:1032300091421CBFDFF89C65B14206D0DFF898359B
:1032400099421CBFDFF89425914249688AB2002A4E
:1032500035D023889A42B0D26180C069B0F5807FB2
:103260001DD0296851E8001F2A6821F4807100F000
:10327000D2FBF6D100F07AFBFCD100F0A1F8FCD132
:1032800020200021206321612A6852E8001F21F0DC
:103290001001FFF7E1FEF7D1606AFDF76DFB022137
:1032A000616121886088091A89B228462FE0218847
:1032B00062886088891A00281CBF88B2002869D0FB
:1032C0002A46136853E8003F156823F4907300F012
:1032D00063F8F6D11068444F00F1080353E8003F4B
:1032E00000F108063B4046E800300028F2D12020DB
:1032F000002320632361A36100F022FC064646E818
:1033000000300028F8D1022089B260611046BDE883
:10331000F44300F0FABDD90209D5700207D54FF485
:10332000801328461362BDE8F24300F0EFBD180693
:1033300009D5390601D4300205D5E16951B32846D3
:10334000BDE8F4430847580612D5790610D52A6817
:1033500052E8001F21F04001FFF77EFEF7D1202048
:103360000021E0622846E161BDE8F24300F0CFBDF4
:10337000180206D5790004D52846BDE8F24300F0CE
:10338000C7BDD80148BF002F04D52846BDE8F24389
:1033900000F0BFBDBDE8F18345E80030002870476C
:1033A000284600F05EBB286800F1080353E8001FC0
:1033B00000F1080221F0400142E8001000287047A7
:1033C000286800F1080151E8001F00F1080321F00E
:1033D000400143E80010002870470000FB3A000855
:1033E000393B00084D3B0008FEFFFFEF20215160F4
:1033F000BDE8324070E200002DE9F04186B004469D
:103400002168DFF8B80600250E68A2682369064027
:1034100060691643E2691E4306431643DFF89826A7
:103420000E604B68E06823F44053034391424B60C5
:10343000A6691CBF236A1E438F68DFF88406074015
:103440003E438E60CB6A606ADFF878760FF2903682
:103450001B09B94240EA0313CB62DFF86C3648D14E
:10346000586D10F0380000F09D80082800F0D380DF
:1034700010284BD018285AD0202800F06A8028281D
:1034800000F07A804FF0800C9142DFF84006DFF8C0
:1034900040E64FF4004840F0E980BCF1020F14D040
:1034A000BCF1040F00F0BA80BCF1080F00F0BB8043
:1034B000BCF1100F00F0BC80BCF1200F00F0C08008
:1034C000BCF1400F00F0BE805BE101F019F900286B
:1034D00000F05881616A36F81120B0FBF2F662689C
:1034E00002EB42039E4203D31103B14280F0AC8051
:1034F00047E1DFF8E00581420BD100F084F9C1D843
:10350000DFE807F075890415273ABBE74FF0080C90
:10351000BAE7DFF8C40581420CD100F074F9B1D8E4
:10352000DFE807F065790405172AABE7EEE74FF00F
:10353000100CA9E7DFF8A40581420DD100F063F972
:10354000A0D8DFE807F05468050406199AE7EEE70B
:10355000DCE74FF0200C97E7DFF8640681420ED1DC
:1035600000F051F9F2D8DFE807F0425606050407EB
:1035700088E7EEE7DBE7C9E74FF0400C84E7DFF8C8
:103580004406814211D15F6D17F038070AD0082F29
:1035900041D0102FBAD0182FC9D0202FD9D0282F22
:1035A000EAD06FE74FF0010C6EE7DFF81C068142AE
:1035B0000CD100F028F9F4D8DFE807F0192D070640
:1035C00005045FE7D8E7C4E7B1E79FE7DFF8FC054C
:1035D00081420ED100F017F9F3D8DFE807F0081C9C
:1035E000070605044EE7C7E7B3E7A0E78EE7AC465A
:1035F0004AE79142F6D1986D00F00700052804D8FB
:10360000DFE800F00809070605043BE7B4E7A0E798
:103610008DE77BE759E74FF0040C35E703A801F08D
:103620007FF8049853E7684601F0A6F801984EE742
:1036300019688A0605D51F68C7F3C101C84046E767
:10364000704647E7404645E75008002110EB06204A
:1036500051EB16610023FFF799FBA0F54076DFF8E8
:1036600070158E421DD22768F8608BE0E1694FF635
:10367000F077B1F5004F44D1BCF1000F12D0BCF18E
:10368000010F25D0BCF1040F25D0BCF1080F27D0C5
:10369000BCF1100F29D0BCF1200F2ED0BCF1400F8F
:1036A0002DD06EE001F065FC00286BD000F0A4F88E
:1036B0004E0806EB4006B6FBF1F0A0F11001B9424E
:1036C0005FD20740C0F3420007432068C76059E05B
:1036D00001F057FCE8E703A801F022F80498E3E7BB
:1036E000684601F049F80198DEE719688A06DDD5D9
:1036F0001968C1F3C101C840D6E77046D6E7404615
:10370000D4E7BCF1000F12D0BCF1010F20D0BCF106
:10371000040F20D0BCF1080F22D0BCF1100F24D030
:10372000BCF1200F29D0BCF1400F28D029E001F0D6
:1037300020FC38B300F060F800EB5100B0FBF1F072
:10374000A0F11001B9421CD2226880B2D06019E009
:1037500001F017FCEDE703A800F0E2FF0498E8E7AA
:10376000684601F009F80198E3E719688A06E1D58F
:103770001968C1F3C101C840DBE77046DAE740468B
:10378000D8E7012504F16800012100234180018070
:10379000C3600361284606B0BDE8F0810100001057
:1037A000200100049B3B000810000240280002405A
:1037B0004000024058000240700002408800024071
:1037C000A0000240B8000240100402402804024059
:1037D0004004024058040240700402408804024041
:1037E000010002000400060008000A000C0010009E
:1037F0002000400080000001626A616836F81230E3
:10380000B0FBF3F070475F6D07F00707052F7047B7
:1038100010B590F828100A0706D502685368816B26
:1038200023F400430B43536090F82820D10706D5BA
:1038300002685368C16A23F400330B43536090F865
:103840002820910706D502685368016B23F4803362
:103850000B43536090F82820510706D5026853683F
:10386000416B23F480230B43536090F82820D1064A
:1038700006D502689368C16B23F480530B439360B1
:1038800090F82820910606D502689368016C23F40D
:1038900000530B43936090F82820510610D502681E
:1038A0005368416C23F480130B435360436CB3F5AE
:1038B000801F05D15468816C24F4C0040C4354600B
:1038C00090F82820110606D501684A68C06C22F4D9
:1038D000002202434A6010BDF8B5054605F1840494
:1038E00000206FF07E47E060FEF72CF9296806465D
:1038F0000868020712D50097334600224FF40011E2
:10390000FFF764FB50B1286850E8001F21F08001E8
:1039100000F080F8F7D12020606018E02A68106875
:10392000410718D50097334600224FF48001FFF776
:103930004DFB80B1286850E8001F21F4907100F021
:1039400069F8F7D100F012F8FCD12020A060002126
:1039500003202170F2BD2022202062600021A0609F
:103960000022E96600202A672070F2BD286800F175
:10397000080151E8001F490800F10803490043E825
:103980000010002870472DE9F04105460E4690468C
:103990001F46069C2868C1693140B1420CBF012016
:1039A0000020404534D114F1010FF3D0FEF7CAF8DE
:1039B000C01B844200D314B90320BDE8F0812868FD
:1039C00001684A07E6D5802E18BF402EE2D0C169B3
:1039D0000A0703D4C1690A05DCD50CE02B6808206E
:1039E0001862FFF7DDFC05F184000821C1600022A8
:1039F00002700120E1E729684FF400600862FFF7D8
:103A0000CFFC05F184002022C26000210170D3E7C1
:103A10000020D2E7024642E800100028704710B5A7
:103A200000F008F8FCD100F00FF8FCD12021C0F81C
:103A3000881010BD016851E8002F22F0C0020B462B
:103A400043E8002100297047016801F1080252E8AB
:103A5000002F01F1080422F4000244E800210029AB
:103A6000704730B500F00EF8FCD100F015F8FCD12D
:103A7000C16E00F035F820210022C0F88C10C2661B
:103A8000426730BD016851E8002F22F490720B4666
:103A900043E80021002970470168DFF8385101F13F
:103AA000080252E8002F01F108042A4044E80021EE
:103AB0000029704700000000000C0058F369FFCF98
:103AC000FFF4FF1100100140004402580090D003A1
:103AD00000093D000044004000480040004C004008
:103AE000012909D1026852E8002F036822F0100270
:103AF00043E800210029F5D1704720B50146886BC5
:103B0000C969B1F5807F13D00022A0F85620016862
:103B100001F1080353E8002F01F1080522F08002AB
:103B200045E800210029F2D100F040F8FCD120BD89
:103B3000BDE8204000F0EBB9806B01F083BA0000D3
:103B4000106850E8003F23F010037047F8B5846B0D
:103B500004F1880528686E68216804F156078A68B0
:103B6000130606D5212804D1002038802046FFF70F
:103B700056FF21688A68500606D5222E04D10021FE
:103B800020463981FFF76DFFA86840F01000A8605B
:103B90002046BDE8F24000F0B7B9806B0022002358
:103BA00000F156010A810B8000F0AEB9016851E8BE
:103BB000002F42F040020B4643E8002100297047E5
:103BC000005000400014014000780040007C00409C
:103BD00000FD0F00FEFFFFEF10B5DFF80413DFF864
:103BE0000443DFF80403002261604FF400532060B7
:103BF0000C21A2602046E36000F03CF808B101F01F
:103C000041FD0021204601F0BAFD08B101F03AFD66
:103C10000021204601F0BEFD08B101F033FD204631
:103C200001F090FD00B12EE010BD10B54FF4E13170
:103C3000AE4CAF486160206000220C21A260E260BF
:103C4000204600F017F808B101F01CFD00212046C5
:103C500001F095FD08B101F015FD0021204601F0AD
:103C600099FD08B101F00EFD204601F06BFD00B199
:103C700009E010BD22616161A261E26122626262BB
:103C8000A262FFF715B9BDE8104001F0FBBC2DE9B9
:103C9000F84FB6B00446142200216846954D01F055
:103CA000CBFDC022002106A805F1840601F0C4FD69
:103CB00020688D4ADFF840924FF4803B4FF4807AC1
:103CC0004FF4806890428D4F5BD102200021CDE9F6
:103CD0000601249106A800F01DF908B101F0D2FCFC
:103CE000B86840F08040B860B968854801F080410C
:103CF0000591059A3B6843F020033B603968C02377
:103D000001F0200100F0A3F809F130000022286042
:103D10004F2169602846AA60EA60C5F810806A6190
:103D2000AA61C5F81CA0C5F820B06A62FCF7B4FA15
:103D300008B101F0A7FC09F14800C4F88050A86759
:103D40000020502130604022B060F060306170612E
:103D5000B06105F17800AC63E967C5F88020C6F86A
:103D60000480FCF799FA08B101F08CFC05F17800A9
:103D70000022E0670121F462522001F081FD52200F
:103D800060E05B4A90425FD101200021CDE906014D
:103D9000259106A800F0BEF808B101F073FC38695F
:103DA00040F0200038613969564801F02001059142
:103DB000059A3B6843F004033B603968C02305F172
:103DC000F00701F0040100F042F847200021C6F896
:103DD0006C90306738467167B167C6F87C8005F52E
:103DE000827631607160C6F808A0C6F80CB0316107
:103DF000FCF752FA08B101F045FC09F11800C4F8CB
:103E00008070706600204821306740227462B1667D
:103E1000F266C6F87480B067F06705F5C276306068
:103E200005F5B4757060B0602846FCF735FA08B146
:103E300001F028FCE5670022F4610121472001F030
:103E40001FFD472001F03AFD37B0BDE8F08F059126
:103E5000059A022100930022019102926946039281
:103E60000722049201F080BD00B585B080210128B1
:103E7000009107D1002102230291039107210193B0
:103E8000049102E008B90121019169461C4801F042
:103E90006BFD05B000BD70B50D46144600260DB98A
:103EA000002070BD012804D0022809D101E0761C51
:103EB000641E44B115F8010B00F007F80028F6D590
:103EC0004FF0FF3070BD304670BD01B54FF0FF338D
:103ED000012269460548FFF72CF8009802BD000052
:103EE00090D00300444C002000780040D84C0020C3
:103EF000001401400448002010000240E044025831
:103F00000014025800080258704770477047704705
:103F1000704770472DE9F04704460027D4E90001B7
:103F20000201B846DFF8D45722D5A36E4BB1B3F5E2
:103F3000801F0BD0B3F5001F15D0B3F5401F09D07B
:103F400014E0EA6942F40032EA6105E0022100F07F
:103F5000D1FB074638000AD1296CA06E21F440112C
:103F60000143296404E000F0BFFBF2E70127B846F3
:103F7000D4E90001C2051CD5A36D042B17D8DFE8D6
:103F800003F0030E1205050000F0A4FB38000FD16A
:103F9000296CA06DC90840EAC101296409E000F05C
:103FA000A8FB0746F2E7002100F09AFBF9E701279A
:103FB000B846D4E90001820520D5E36D4BB1402B12
:103FC00012D0802B14D0C02B18BFB3F5807F02D045
:103FD00012E000F07FFB38000FD1296CE06D21F476
:103FE000E0710143296409E000F083FB0746F2E732
:103FF000002100F075FBF9E70127B846D4E900017C
:10400000420504F1840623D5736A63B1B3F5001F3A
:1040100014D0B3F5800F15D0B3F5C00F18BFB3F5AA
:10402000000F02D012E000F055FB38000FD1A96C50
:10403000706A21F460010143A96409E000F059FBB2
:104040000746F2E7002100F04BFBF9E70127B846ED
:10405000D4E90001020523D5B36A63B1B3F1807FCF
:1040600014D0B3F1007F15D0B3F1407F18BFB3F186
:10407000806F02D012E000F02DFB38000FD1A96C48
:10408000B06A21F0E0610143A96409E000F031FB6E
:104090000746F2E7002100F023FBF9E70127B846C5
:1040A000D4E9000182011AD5E36C43B1102B04D08E
:1040B000202B0DD0302B02D00FE000F00BFB38008E
:1040C0000CD1E96BE06C21F030010143E96306E0BB
:1040D000022100F00FFB0746F1E70127B846D4E9BB
:1040E0000001C20423D5236E63B1B3F5805F14D001
:1040F000B3F5005F15D0B3F5405F18BFB3F5804F3F
:1041000002D012E000F0E6FA38000FD1296C206EE0
:1041100021F4E0410143296409E000F0EAFA07468E
:10412000F2E7002100F0DCFAF9E70127B846D4E90C
:104130000001820422D5636E93B1B3F5803F0BD0AA
:10414000B3F5003F15D0B3F5403F1CBFB3F5802F4A
:10415000B3F5A02F04D00FE0012100F0CBFA074601
:1041600038000AD1296C606E21F4E02101432964F2
:1041700004E000F0B4FAF2E70127B846D4E9000100
:10418000420422D5F36A93B1B3F1805F0BD0B3F14F
:10419000005F15D0B3F1405F1CBFB3F1804FB3F1A6
:1041A000A04F04D00FE0012100F0A4FA0746380028
:1041B0000AD1A96CF06A21F0E0410143A96404E04E
:1041C00000F08DFAF2E70127B846D4E900010204B5
:1041D0001AD5236F43B1B3F1805F03D0B3F1005F11
:1041E0000BD00FE000F076FA38000CD1296C206F6C
:1041F00021F040510143296406E0012100F07AFAE0
:104200000746F1E70127B846D4E90001C20118D5F5
:10421000A36C032B13D8DFE803F004020D0400F0B5
:1042200059FA38000CD1E96BA06C890840EA810189
:10423000E96306E0022100F05DFA0746F1E7012795
:10424000B846D4E9000142023FD5DFF89896D9F884
:10425000003043F48073C9F80030FDF773FC8246E8
:10426000D9F80000C10506D4FDF76CFCA0EB0A00EC
:104270006528F5D327E0380026D1286E316B00F48D
:10428000407001F4407188420BD0286E296E41F4D1
:10429000803129662A6E20F4407022F480322A662A
:1042A0002866306BB0F5807F2BD1FDF74BFC814643
:1042B000286E810725D4FDF745FCA0EB090041F2EB
:1042C00089329042F4D30327B8462178CA0738D5FB
:1042D000E06F68B1082807D010282DD018281CBF1F
:1042E0002028282804D02AE0012100F003FA0746FC
:1042F000380025D1696CE06F21F038010143696411
:104300001FE0306B00F44071B1F5407F09D12A689D
:10431000DFF8D41501EA101122F47C520A432A6016
:1043200003E0286820F47C502860296E306BC0F3CD
:104330000B0001432966C8E700F0D1F9D7E7012750
:10434000B84621788A0719D5A06F052814D8DFE868
:1043500000F0070310070707012100F0CBF907461B
:1043600038000AD1696CA06FC90840EAC1016964CC
:1043700004E000F0B4F9F2E70127B84621784A07D3
:1043800019D53069052814D8DFE800F007031007B5
:104390000707012100F0AEF9074638000AD1A96CE1
:1043A0003069C90840EAC101A96404E000F097F946
:1043B000F2E70127B84621788A0621D5F06888B14E
:1043C000B0F1805F0BD0B0F1005F14D0B0F1405F6E
:1043D0001CBFB0F1804FB0F1A04F03D00EE000F051
:1043E00088F9074638000AD1696CF06821F0E0418D
:1043F0000143696404E000F077F9F2E70127B84669
:1044000021784A0621D5B06988B1B0F5806F0BD00C
:10441000B0F5006F14D0B0F5406F1CBFB0F5805FF1
:10442000B0F5A05F03D00EE000F063F90746380056
:104430000AD1A96CB06921F4E0510143A96404E0F8
:1044400000F052F9F2E70127B84621780A0621D593
:10445000F06988B1B0F5005F0BD0B0F5804F14D093
:10446000B0F5C04F1CBFB0F5004FB0F5204F03D0E2
:104470000EE000F03EF9074638000AD1A96CF06959
:1044800021F460410143A96404E000F02DF9F2E752
:104490000127B84621780A070ED53068B0F5805F4D
:1044A00004D100F021F908B14FF001086A6C3068BE
:1044B00022F4405202436A642178CA060ED570691C
:1044C000B0F5807F04D100F00FF908B14FF001087A
:1044D000A96C726921F440711143A964D4E9000107
:1044E000030319D5326A32B1B2F5803F0FD0B2F56D
:1044F000003F03D00EE000F0FCF8074638000AD178
:10450000A96C306A21F440310143A96404E000F051
:10451000EBF8F2E70127B846D4E9000143031BD5C5
:104520007268B2F5801F06D0B2F5001F0ED0B2F54A
:10453000401F02D00EE000F0CDF838000BD1696CBE
:10454000706821F440110143696405E000F0C7F888
:104550000746F2E70127B846D4E90001C30317D59F
:10456000226D1AB1B2F5803F0BD00FE000F0B2F827
:1045700038000CD1E96B206D21F480310143E963EF
:1045800006E0022100F0B6F80746F1E70127B84639
:10459000D4E90001830004D500F0A6F808B14FF07B
:1045A0000108D4E9000182031CD5D4F880306BB136
:1045B000B3F5807F06D0B3F5007F18BFB3F5407F19
:1045C00004D00DE0EA6942F40032EA613A0008D111
:1045D0006B6CD4F8802023F4407313436B6401E0C8
:1045E0000127B846C20205D52B6C626F23F0004349
:1045F00013432B64C30005D52F68726B27F48047E3
:1046000017432F60830205D52F6CE26E27F0807769
:1046100017432F6443000AD52F6827F400472F6003
:10462000D5F800C0B26B42EA0C0CC5F800C00028F7
:1046300005D5EF6B626D27F040571743EF63030218
:1046400005D56F6CB26827F4400717436F6411F00B
:10465000010104D000F04DF8010018BF8046D4E9F4
:10466000000111F0020305D0012100F043F8010020
:1046700018BF8046D4E9000111F0040305D00221DF
:1046800000F038F8010018BF8046D4E9000111F0AD
:10469000080305D0002100F023F8010018BF804670
:1046A000D4E9000111F0100304D000F018F8010063
:1046B00018BF8046D4E9000111F0200302D000F0B9
:1046C00013F820B9B8F1000F08BF002000D0012076
:1046D000BDE8F087E86940F40030E86170470121E7
:1046E00004F1280000F062B9022104F1280000F072
:1046F0005DB9002104F1080000F002B9104402582D
:1047000080B500F01EFCDFF8B423DFF8B4131368A3
:10471000C3F30212895C01F01F01C84002BD000012
:1047200030B500F082F8C2F30015DA6BC1F3053141
:1047300000F0B5F81DD000F07EF802D0022C06D0B3
:1047400008E000F0B5F8996B00F04CF807E09FED39
:10475000672A01E09FED662A996B00F053F8996B88
:1047600000F08CF8996B00F07AF8996B00F06AF819
:1047700001E000F031F82BE030B500F056F8C2F35C
:1047800000255A6CC1F3055100F089F81DD000F0E6
:1047900052F802D0022C06D008E000F089F8196C1B
:1047A00000F020F807E09FED512A01E09FED502A2C
:1047B000196C00F027F8196C00F060F8196C00F023
:1047C0004EF8196C00F03EF801E000F005F800BF6B
:1047D00080ED020A30BD000000229FED460A026013
:1047E00042607047F7EE001AC1F3080101EE101A9B
:1047F000B8EE411A31EE000A70EE211A20EEA10A3D
:1048000070470000DFED3C1AC2EE200AC1F3080138
:1048100001EE101AB8EE411A00EE211AB7EE000AA6
:1048200031EE000A20EE800A7047DFF88C329C6A75
:10483000996ADA6A704714F0030400EE901AF8EEF1
:10484000600A7047C1F3066100EE901AF8EE600A44
:1048500070EE810A80EE200ABCEEC00A7047C1F3F8
:10486000064100EE901AF8EE600A70EE810AC0EE82
:10487000200AFCEEE00AC0ED010A7047B7EE001A0C
:10488000C1F3462100EE901AF8EE600A70EE810A3C
:10489000C0EE200AFCEEE00AC0ED000A7047C2F349
:1048A000CC025543002900EE105AB8EE400A70477A
:1048B00019689FED111A20EE010A8A060CD51968B5
:1048C000DFF8F041C1F3C101CC4001EE104AB8EE6F
:1048D000411AC1EE200A70479FED082AC2EE200A55
:1048E0007047000000480258CFFFFF000024F44A40
:1048F0000024744A00000000000000390024744CB9
:10490000F8B500F0AFF801D10120F2BD286820F021
:10491000806000F0C7F807462968080106D5FDF752
:1049200011F9C01B0328F7D30320F2BDA86A316830
:1049300020F47C3040EA013000F09CF8A863E96A7A
:10494000706921F0C00100F0B0F8B06921F02001D9
:1049500000F0ABF821F01001E962E86B00F07CF8A0
:10496000E863E86A40F01000E8621CB9E86A40F4C5
:10497000002004E0012C04D1E86A40F48010E862D1
:1049800003E0E96A41F40011E962286840F08060C0
:1049900000F088F804462968080105D4FDF7D2F82C
:1049A000001B0328F7D3BFE70020F2BDF8B500F0E5
:1049B00059F801D10120F2BD286820F0805000F0A4
:1049C00071F807462968880006D5FDF7BBF8C01BBB
:1049D0000328F7D30320F2BDA86A316820F07C7069
:1049E00040EA015000F046F82864E96A706921F451
:1049F000406100F05AF8B06921F4007100F055F8F8
:104A000021F48071E962686C00F026F86864E86A55
:104A100040F48070E8621CB9E86A40F4800004E069
:104A2000012C04D1E86A40F40000E86203E0E96A7E
:104A300041F08071E962286840F0805000F032F85F
:104A400004462968880005D4FDF77CF8001B03287C
:104A5000F7D3BFE70020F2BDF1696FF3CF0040EA62
:104A6000C10070470646144DA86A0C4600F00300CA
:104A700003287047A862B1687068F268491E49024D
:104A8000401EC0F30800521E01F47E411204084388
:104A9000316902F4FE021043491E090601F0FE418D
:104AA000084370472860FDF74DB80143E962E96AA1
:104AB000704700000090D003004402582044025880
:104AC000309A0008F8B5DFF838550724286800F058
:104AD0000F00072802D200F0A9F826D1FDF732F81E
:104AE0000746DFF82065306840F00100306031682B
:104AF0004A0706D4FDF726F8C01B0328F7D3032086
:104B0000F2BD70680021DFF80025DFF8003540F0C5
:104B100080407060DFF8F804316110601860DFF8E1
:104B2000F404006801F048F800287BD1FDF70AF88A
:104B30000746306910F0380F07D0FDF703F8C01BA7
:104B400041F289318842F4D3D9E7FCF7FBFF0746ED
:104B50003068DFF8C4241040306031688B0305D51D
:104B6000FCF7F0FFC01B6528F7D3C8E7FCF7EAFFA6
:104B70000746306820F08070306031688A0105D5C2
:104B8000FCF7E0FFC01B0328F7D3B8E7FCF7DAFF18
:104B90000746306820F08060306031680A0105D532
:104BA000FCF7D0FFC01B0328F7D3A8E7FCF7CAFF28
:104BB0003168074621F0805131603068820005D5A8
:104BC000FCF7C0FFC01B0328F7D398E700200021A3
:104BD000B0610022F161DFF844043262DFF8401472
:104BE000B062DFF84004F162002130637263B063A9
:104BF000F16330640020706432684FF0FF3022F4BB
:104C0000802232603166B066DFF81C04026842F42C
:104C100080320260296801F00F01072904D900F0F1
:104C200005F801D00120F2BD0020F2BD286864F330
:104C300003002860296801F00F01072970472DE95A
:104C4000F0410400884656D0DFF8B463306800F0C5
:104C50000F00404502D200F0EBF87AD12078DFF85F
:104C6000A453410706D52069AA6902F07002824266
:104C700000F0D7F82078010706D56069EA6902F0EC
:104C80007002824200F0C6F82078C10606D5A069FD
:104C9000EA6902F4E062824200F0B5F82078810609
:104CA00006D5E0692A6A02F07002824200F0A4F898
:104CB0002078810706D5E068AA6902F00F028242D7
:104CC00000F093F82078C10731D5AA69A06822F4D2
:104CD00070620243AA616068022802D129688A03CF
:104CE00008E0032802D129688A0103E0012803D1E2
:104CF0002968CA0503D42CE02B68590729D52A69ED
:104D0000D20840EAC2002861FCF71CFF0746286968
:104D1000616800F03800B0EBC10F08D0FCF712FF5B
:104D2000C01B41F289329042F1D303205BE020782E
:104D3000810706D5E068AA6902F00F02904200F0F0
:104D400054F8306800F00F00804504D200F070F88D
:104D500001D0012047E02078410706D52069AA69E3
:104D600002F07002904200F05CF82078010706D54E
:104D70006069EA6902F07002904200F04BF8207816
:104D8000C10606D5A069EA6902F4E062904200F02B
:104D90003AF82078810606D5E0692A6A02F07002A6
:104DA000904200F029F800F04DF8AA69DFF87C1273
:104DB000C2F303228B5CAC69DFF84C5204F00F04A1
:104DC000095D03F01F03D840DFF8403201F01F01F6
:104DD00020FA01F21A602860DFF838020068BDE8A6
:104DE000F04100F0E9BEBDE8F08104D2A9690909EB
:104DF00040EA0110A861704704D2296A21F07001CD
:104E000008432862704704D2E96921F4E06108434D
:104E1000E861704704D2E96921F070010843E86154
:104E2000704704D2A96921F070010843A861704756
:104E30003168090948EA01113160326802F00F0255
:104E40004245704730B56F4B7148196911F0380110
:104E500004D010290AD018290AD069E01A689406EB
:104E600067D51968C1F3C101C84030BD714830BD74
:104E70009C6A996ADD6A5A6B05F00105C1F3051158
:104E8000C2F3CC025543002900EE105AB8EE400A96
:104E90004CD014F0030400EE901AF8EE600A02D031
:104EA000022C20D022E019689FED511A20EE010A51
:104EB0008A0608D51968C1F3C101C84000F03CF862
:104EC000C1EE200A03E09FED4B2AC2EE200A186BC8
:104ED000F7EE001A00F02EF831EE000A70EE211AFB
:104EE00020EEA10A13E09FED442A01E09FED432A42
:104EF000186BDFED3F1AC2EE200A00F01BF800EE3F
:104F0000211AB7EE000A31EE000A20EE800A186B73
:104F1000C0F34620401C00EE900AF8EE600A80EED6
:104F2000200ABCEEC00A10EE100A30BD002030BDD1
:104F3000414830BDC0F3080001EE100AB8EE411A36
:104F4000704710B5FFF77EFF3C49384B0A68096887
:104F50002D4CC2F303229A5C01F00F0102F01F02F4
:104F6000D0402060595C294A01F01F01C840106000
:104F700010BD80B5FFF7E5FF00F00FF8C3F3021294
:104F800006E080B5FFF7DDFF00F007F8C3F302226B
:104F9000895C01F01F01C84002BD294A23491368FA
:104FA000704710B53F220260214A136803F00703DF
:104FB0004360946804F470648460936803F00F03A2
:104FC000C360946804F070040461D36803F0700354
:104FD0004361D46804F4E0648461126902F07002F1
:104FE000C2610748036803F00F030B6010BD0000A7
:104FF000000000390024744C0024F44A0024744A50
:1050000000200052004402583C00002040000020D4
:105010000090D0031400002045EDF6FF00020202CC
:105020000000FF0180020101D0440258309A0008BC
:105030001044025800127A0000093D00184402583A
:105040001C440258704700002DE9F04FFFB0DFF814
:10505000C445DFF8C4550FF2386BDFF8C075DFF8D0
:10506000C0850FF22469DFF8BCA5DFF8BC6518E045
:1050700000210FF22860F16000F0E6FD0BE0082847
:1050800018BF092807D00A28F2D10AF5227000F0CB
:10509000DBFD00F0EDFD306800F0B4FF142000F0FF
:1050A00063FFF06801282BD1504600F0CDFD0AF1D6
:1050B000400000F0C9FD02A801F07CFB02A94846AF
:1050C00000F0C2FD0AF1740000F0BEFD02A801F07C
:1050D000C1FB02A9484600F0B7FD01F05FFCB8F83B
:1050E000000000F065F8A8F800000AF19C00C8F87C
:1050F0000410C8F81820C8F8283000F0A5FDCAE749
:10510000022813D10AF1F00000F09EFD706818B17A
:1051100000F0F2FE00207060388800F049F8388016
:105120000AF58C707960BA61BB62E6E703281BD18F
:105130000AF5B47000F088FD706858B9311D02227C
:105140000191002300924FF4007259460FF2710052
:1051500000F003FE288800F02BF828800AF5C870BC
:105160006960AA61AB62C8E7042810D10AF5F07043
:1051700000F06AFD706800F045FF208800F018F824
:1051800020800AF503706160A261A362B5E705287B
:1051900007D10AF5187000F057FD706800F08AFF1B
:1051A00079E70628FCD007287FF469AFB068F5E7F7
:1051B0000146401C82B2401C83B2401C7047000074
:1051C00080B5002001F0DEFD012001F0DBFD0220B2
:1051D00001F0D8FD01F0E2FB4FF47A7000F0C4FE5C
:1051E000EFE770B5DFF8444432226421601C01F01F
:1051F00085FE1C220FF2C441DFF83404DFF834547A
:10520000FDF7E7FEDFF830640020FEF72DFE0022F8
:105210008021304600F09DFC582001F079FE0122EB
:105220008021304600F095FC082001F071FE01203D
:10523000FEF71AFEFF23642221462846FDF779FE79
:105240004FF47A7000F090FEDEE72DE9F84287B067
:10525000DFF8E803992247F28873DFF8E41305903A
:105260008DF81020DFF8DC43ADF812300FF28445E2
:105270000691DFF8D4630FF26449DFF8AC7329E0DC
:1052800007285DD1284600F0DFFC204601F0AEFE85
:105290000C2204A9204601F0E9FEBDF812309DF869
:1052A00010209DED060A0599B7EEC00A8DED000BA2
:1052B00006F1640000F0C8FC94ED020A06F1AC00AF
:1052C000B7EEC00A8DED000B63882278616800F0AC
:1052D000BBFC32E0F8680628D2D1204601F086FEF9
:1052E000AA2245F2AA538DF80820D848ADF80A3012
:1052F0000122039002A9204601F0B8FE02220DF11E
:105300000A0104F1200001F0B1FE042203A904F116
:10531000400001F0ABFE484600F096FCBDF80A20C4
:105320009DF80810039B304600F08EFC228C2178FB
:10533000236C06F1340000F087FCB86800F062FED0
:105340000A2000F011FEC5E738B586B06846002196
:1053500000220023002480E81E0000F0BAFA012198
:105360004FF010538DF8001012218DF80810012114
:1053700003228DF80140019368468DF809408DF8AD
:105380000A108DF80B20ADF80C408DF80E108DF83A
:105390000F1000F0B5FA01214FF040528DF80110C6
:1053A0001021019268468DF808108DF809408DF89B
:1053B0000A408DF80F4000F0A3FA0221A44A8DF8AC
:1053C00001106846019200F09BFA0321A14A8DF872
:1053D00001100E2100F097F804214FF060528DF873
:1053E00001100F2100F08FF8042000F07CFA9A4A97
:1053F0009A491068830309D400F0FFF80C6000F0AC
:10540000FCF8106840F4003000F0F6F81368DC0394
:105410001ED400201067BFF34F8FD36EC3F34E34FA
:10542000C3F3C90543F6E07000EA441040EA857012
:1054300008612846451E0028F4D12046441E002855
:10544000EED1BFF34F8F106840F4803000F0D4F8F5
:1054500001F0A8FE00F063F801F0D8FE01F0F8FEBC
:10546000FEF7E3FBFEF7B8FB4FF4E13100220291B7
:1054700002A9ADF81420002004926B4C039201F0B5
:10548000DDFCFF235FF01202A9A17548FDF751FD75
:10549000002001F03BFC012001F038FC022001F06B
:1054A00035FC0121002001F083FC01F001FF01F037
:1054B000A3FA0520019400905FF000034FF40072FE
:1054C00092A1684800F049FC201D022100F021F85B
:1054D0006FA1654800F041FC04F110005FF003018A
:1054E00000F017F88CA1614800F037FC04F10800C7
:1054F0005FF0040100F00DF88AA15D4800F02DFC7A
:1055000000F038FEFEE7019268468DF8081000F0C2
:10551000F7B90190002300914FF40072704780B5F5
:105520009CB04C2109A801F025FF202101A801F021
:1055300021FF022001F022FF002000904D48016869
:1055400049084900016002684B4802F001020092DC
:10555000016841F440410160026802F44042009257
:10556000009902689304FCD501214FF4803209911F
:1055700064210A9201221492022315910C21002227
:105580001293139309A816931793189319911A92CB
:105590001B9201F017FF08B100F074F83F210322BD
:1055A000019108210292402204914021059200239A
:1055B00006914FF4806208910221039301A807929B
:1055C000FFF73DFB08B100F05DF81DB000BDB0F580
:1055D000005F00D0704780B51348C168491CC160A6
:1055E000006800F094FD012805D14FF08051234858
:1055F000016000F002F801BD1060BFF34F8FBFF3F0
:105600006F8F704700681E49884208BF02F062B978
:1056100070470000000080380000003800000030B3
:1056200000000024C4950008A84F0020F84D002079
:10563000D84C0020444C002000140258AAAA55550A
:10564000E1FAC742000002087898000844332211AA
:10565000000002300000043014ED00E050EF00E0E4
:10566000B04B002049500008C1510008E351000828
:105670004B5200082C0400581848025804ED00E072
:105680000010004072B6FEE725730D0A000000000E
:10569000765461736B4C454400000000557365728D
:1056A000427574746F6E5374617475732072657390
:1056B000657420746F20300D0A00000075617274EB
:1056C0003620646D61207472616E736D697420732D
:1056D0007563636573730D0A00000000757365726E
:1056E000427574746F6E537461747573203D203607
:1056F0000D0A000075736572427574746F6E537491
:1057000061747573203D20370D0A00007654617373
:105710006B55736572494600765461736B4D7367C0
:1057200050726F00765461736B5374617274000031
:1057300073746C696E6B2075617274207465737418
:105740000D0A000010B500F184010A78012A01D188
:10575000022010BD012324220B704A6002681368E6
:10576000146864086400146000224266006823F034
:105770000053036020234B6000200A7010BD70B5F9
:1057800000F01FF801D1022070BD00F020F822F0D7
:10579000604209E070B500F014F801D1022070BD3C
:1057A00000F015F822F0606211438160204600F09D
:1057B0001BF82068202100220660002069602A7002
:1057C00070BD044604F18405287801287047012241
:1057D00024202A7068602068066803685B085B0004
:1057E000036020688268704730B5416E11B90121AD
:1057F000012214E0016800BF0FF22C040CA38A6898
:105800008968520E02F00702490F655CA45C595C7E
:105810009A5C2D01240195FBF1F194FBF2F26830C2
:105820004180028030BD000001010103070100003A
:10583000080402040801010110B5044610460A4696
:105840000146204601F05AFB204610BD0901020026
:1058500002D43E48815470473D4B02F00F021A4477
:1058600002F8041C70473B4B4FF6FF021968000218
:1058700000F4E0601140084337490843186070475E
:1058800070B5344B1C68C4F302230124C3F107052F
:10589000052D2EBF0F2504FA05F56D1E1E1D072EC2
:1058A00034BF0023DB1E2940994004FA03F35B1E3A
:1058B0001A401143BDE87040C8E70000010007D45A
:1058C000012200F01F018A40244B400943F82020A8
:1058D0007047BFF35F8F22480022016821F48031B6
:1058E0000160026770471E4940F0010008670868C0
:1058F00040F480300860BFF34F8FBFF36F8F704765
:1059000010B5427817490A608B685B085B008B60B2
:1059100042684A60C27A037B447B120642EA037201
:10592000837A42EAC342837B42EA8442C47B42EAEE
:105930004342437A42EA0442047A007842EA03226C
:1059400042EA440202438A6010BD000000E400E025
:1059500018ED00E00CED00E00000FA0500E100E0C9
:1059600024ED00E098ED00E02DE9F84F4FF000093C
:10597000DFF80C224FF0B043DFF8088205460E46F0
:1059800039E0DFF80442A54214BF0A2409248C4000
:1059900044EA0E04DFF8F41141F82C40D3F800C0BB
:1059A0007468C14301EA0C0CE40248BF40EA0C0CE5
:1059B000C3F800C0D3F804C0746801EA0C0CA40258
:1059C00048BF40EA0C0CC3F804C0D2F804C07468A5
:1059D00001EA0C0CA40348BF40EA0C0CC2F804C056
:1059E000D2F800C0746801EA0C01E40348BF014327
:1059F000116009F10109316831FA09F000F0A7805E
:105A0000012404FA09F414EA0100F2D04FEA490C27
:105A1000032101FA0CF16FEA010E716801F003072E
:105A2000012F1CBF01F00301022911D1A968F768F9
:105A30000EEA010107FA0CF73943A960696821EA07
:105A400004047168C1F3001101FA09F10C436C60A0
:105A500034794FEA890104F00304032C21D0EC6867
:105A6000B7680EEA040407FA0CF73C43EC6034799B
:105A700004F00304022C14D14FEAD9074FF00F0BA6
:105A800005EB870401F01C070BFA07FBD4F820A0F4
:105A90002AEA0B0AD6F810B00BFA07F747EA0A070A
:105AA00027622C680EEA0407347904F0030404FA30
:105AB0000CF444EA070CC5F800C0746814F4403FC5
:105AC00097D0D8F800E04FEA990C01F00C010F27AD
:105AD0008F404EF0020EC8F800E0D8F8004004F005
